{"abi":[{"type":"function","name":"REQUIRED_FLAGS","inputs":[],"outputs":[{"name":"","type":"uint160","internalType":"uint160"}],"stateMutability":"view"}],"bytecode":{"object":"0x6080806040523460175760719081601c823930815050f35b5f80fdfe60808060405260043610156011575f80fd5b5f3560e01c638549d9be146023575f80fd5b5f36600319011260375780610ac060209252f35b5f80fdfea26469706673582212209f1ec9d849b0224388c49bcd46d0b99523081355b2e8d782b30d6a0f49915c4f64736f6c634300081a0033","linkReferences":{}},"methodIdentifiers":{"REQUIRED_FLAGS()":"8549d9be"},"id":56}