{"abi":[{"type":"constructor","inputs":[{"name":"_owner","type":"address","internalType":"address"}],"stateMutability":"nonpayable"},{"type":"function","name":"MAX_PRICE_STALENESS","inputs":[],"outputs":[{"name":"","type":"uint256","internalType":"uint256"}],"stateMutability":"view"},{"type":"function","name":"MAX_VALID_PRICE","inputs":[],"outputs":[{"name":"","type":"uint256","internalType":"uint256"}],"stateMutability":"view"},{"type":"function","name":"MIN_VALID_PRICE","inputs":[],"outputs":[{"name":"","type":"uint256","internalType":"uint256"}],"stateMutability":"view"},{"type":"function","name":"addPriceFeed","inputs":[{"name":"token0","type":"address","internalType":"Currency"},{"name":"token1","type":"address","internalType":"Currency"},{"name":"priceFeed","type":"address","internalType":"address"}],"outputs":[],"stateMutability":"nonpayable"},{"type":"function","name":"getLastUpdateTime","inputs":[{"name":"token0","type":"address","internalType":"Currency"},{"name":"token1","type":"address","internalType":"Currency"}],"outputs":[{"name":"timestamp","type":"uint256","internalType":"uint256"}],"stateMutability":"view"},{"type":"function","name":"getPrice","inputs":[{"name":"token0","type":"address","internalType":"Currency"},{"name":"token1","type":"address","internalType":"Currency"}],"outputs":[{"name":"price","type":"uint256","internalType":"uint256"}],"stateMutability":"view"},{"type":"function","name":"getPriceAtTime","inputs":[{"name":"token0","type":"address","internalType":"Currency"},{"name":"token1","type":"address","internalType":"Currency"},{"name":"","type":"uint256","internalType":"uint256"}],"outputs":[{"name":"price","type":"uint256","internalType":"uint256"}],"stateMutability":"view"},{"type":"function","name":"isPriceStale","inputs":[{"name":"token0","type":"address","internalType":"Currency"},{"name":"token1","type":"address","internalType":"Currency"}],"outputs":[{"name":"stale","type":"bool","internalType":"bool"}],"stateMutability":"view"},{"type":"function","name":"owner","inputs":[],"outputs":[{"name":"","type":"address","internalType":"address"}],"stateMutability":"view"},{"type":"function","name":"priceFeeds","inputs":[{"name":"","type":"bytes32","internalType":"bytes32"}],"outputs":[{"name":"","type":"address","internalType":"contract AggregatorV3Interface"}],"stateMutability":"view"},{"type":"function","name":"removePriceFeed","inputs":[{"name":"token0","type":"address","internalType":"Currency"},{"name":"token1","type":"address","internalType":"Currency"}],"outputs":[],"stateMutability":"nonpayable"},{"type":"function","name":"renounceOwnership","inputs":[],"outputs":[],"stateMutability":"nonpayable"},{"type":"function","name":"transferOwnership","inputs":[{"name":"newOwner","type":"address","internalType":"address"}],"outputs":[],"stateMutability":"nonpayable"},{"type":"event","name":"OwnershipTransferred","inputs":[{"name":"previousOwner","type":"address","indexed":true,"internalType":"address"},{"name":"newOwner","type":"address","indexed":true,"internalType":"address"}],"anonymous":false},{"type":"event","name":"PriceFeedAdded","inputs":[{"name":"token0","type":"address","indexed":false,"internalType":"Currency"},{"name":"token1","type":"address","indexed":false,"internalType":"Currency"},{"name":"priceFeed","type":"address","indexed":false,"internalType":"address"}],"anonymous":false},{"type":"event","name":"PriceFeedRemoved","inputs":[{"name":"token0","type":"address","indexed":false,"internalType":"Currency"},{"name":"token1","type":"address","indexed":false,"internalType":"Currency"}],"anonymous":false},{"type":"error","name":"InvalidPriceData","inputs":[]},{"type":"error","name":"NoPriceFeedConfigured","inputs":[]},{"type":"error","name":"OwnableInvalidOwner","inputs":[{"name":"owner","type":"address","internalType":"address"}]},{"type":"error","name":"OwnableUnauthorizedAccount","inputs":[{"name":"account","type":"address","internalType":"address"}]},{"type":"error","name":"StalePriceData","inputs":[]}],"bytecode":{"object":"0x60803460b857601f610aa538819003918201601f19168301916001600160401b0383118484101760bc5780849260209460405283398101031260b857516001600160a01b0381169081900360b857801560a5575f80546001600160a01b031981168317825560405192916001600160a01b03909116907f8be0079c531659141344cd1fd0a4f28419497f9722a3daafe3b4186f6b6457e09080a36109d490816100d18239f35b631e4fbdf760e01b5f525f60045260245ffd5b5f80fd5b634e487b7160e01b5f52604160045260245ffdfe6080806040526004361015610012575f80fd5b5f3560e01c9081630f65dfc5146105e7575080631b10a949146104e957806359f5a87f146104b55780635e41a2821461042357806366c4968a146103fc578063685d5a74146103e1578063715018a61461038a5780638da5cb5b14610363578063ac41865a146101b8578063c14343f414610182578063c6c3f71e14610150578063d6913b32146101345763f2fde38b146100ab575f80fd5b34610130576020366003190112610130576100c4610686565b6100cc61085c565b6001600160a01b0316801561011d575f80546001600160a01b03198116831782556001600160a01b0316907f8be0079c531659141344cd1fd0a4f28419497f9722a3daafe3b4186f6b6457e09080a3005b631e4fbdf760e01b5f525f60045260245ffd5b5f80fd5b34610130575f366003190112610130576020604051610e108152f35b34610130576020366003190112610130576004355f526001602052602060018060a01b0360405f205416604051908152f35b346101305760403660031901126101305760206101ae6101a0610686565b6101a861069c565b906107cb565b6040519015158152f35b34610130576040366003190112610130576101e26101d4610686565b6101dc61069c565b90610882565b5f908152600160205260409020546001600160a01b0316801561035457604051633fabe5a360e21b81529060a082600481845afa80156102ec575f925f9161031c575b505f831315610287578042119081610306575b506102f75760206004916040519283809263313ce56760e01b82525afa9081156102ec575f916102ac575b5061026d91610929565b600181108015610296575b61028757602090604051908152f35b63f45e167b60e01b5f5260045ffd5b506c0c9f2c9cd04674edea400000008111610278565b90506020813d6020116102e4575b816102c7602093836106b2565b8101031261013057519060ff82168203610130579061026d610263565b3d91506102ba565b6040513d5f823e3d90fd5b630d57861b60e21b5f5260045ffd5b610e10915061031590426107aa565b1183610238565b905061034191925060a03d60a01161034d575b61033981836106b2565b8101906106ff565b50939250509183610225565b503d61032f565b63d2fea18d60e01b5f5260045ffd5b34610130575f366003190112610130575f546040516001600160a01b039091168152602090f35b34610130575f366003190112610130576103a261085c565b5f80546001600160a01b0319811682556001600160a01b03167f8be0079c531659141344cd1fd0a4f28419497f9722a3daafe3b4186f6b6457e08280a3005b34610130575f36600319011261013057602060405160018152f35b34610130575f3660031901126101305760206040516c0c9f2c9cd04674edea400000008152f35b34610130576040366003190112610130577fac49089020c52dc09b25997730450c4b6b62a7637a33c7ee7d4a3b9bbafb73e961045d610686565b61046561069c565b9061046e61085c565b6104788282610882565b5f9081526001602090815260409182902080546001600160a01b031916905581516001600160a01b039384168152939092169183019190915290a1005b346101305760403660031901126101305760206104e16104d3610686565b6104db61069c565b90610734565b604051908152f35b3461013057606036600319011261013057610502610686565b61050a61069c565b6044356001600160a01b03811692908390036101305761052861085c565b82156105a2577f1bfb6cf590e29574156886678ab2eb7fe658fbea224c52c020172df30f2f7169928261055d60609484610882565b5f52600160205260405f20826bffffffffffffffffffffffff60a01b8254161790556040519260018060a01b0316835260018060a01b031660208301526040820152a1005b60405162461bcd60e51b815260206004820152601a60248201527f496e76616c6964207072696365206665656420616464726573730000000000006044820152606490fd5b346101305760603660031901126101305760208180610636610607610686565b61060f61069c565b635620c32d60e11b84526001600160a01b0391821660048501521660248301526044820190565b0381305afa80156102ec575f90610653575b602090604051908152f35b506020813d60201161067e575b8161066d602093836106b2565b810103126101305760209051610648565b3d9150610660565b600435906001600160a01b038216820361013057565b602435906001600160a01b038216820361013057565b90601f8019910116810190811067ffffffffffffffff8211176106d457604052565b634e487b7160e01b5f52604160045260245ffd5b519069ffffffffffffffffffff8216820361013057565b908160a091031261013057610713816106e8565b916020820151916040810151916107316080606084015193016106e8565b90565b9061073e91610882565b5f908152600160205260409020546001600160a01b031680156107a55760a060049160405192838092633fabe5a360e21b82525afa9081156102ec575f91610784575090565b61079d915060a03d60a01161034d5761033981836106b2565b509250505090565b505f90565b919082039182116107b757565b634e487b7160e01b5f52601160045260245ffd5b906107d591610882565b5f908152600160205260409020546001600160a01b031680156108565760a060049160405192838092633fabe5a360e21b82525afa9081156102ec575f91610832575b50804211156107a55761082e610e1091426107aa565b1190565b61084b915060a03d60a01161034d5761033981836106b2565b50925050505f610818565b50600190565b5f546001600160a01b0316330361086f57565b63118cdaa760e01b5f523360045260245ffd5b906001600160a01b0380821690831610156108e0576040516bffffffffffffffffffffffff19606093841b8116602083019081529290931b9092166034830152906108da81604881015b03601f1981018352826106b2565b51902090565b6040516bffffffffffffffffffffffff19606092831b8116602083019081529390921b90911660348201526108da81604881016108cc565b60ff16604d81116107b757600a0a90565b9060ff1660128103610939575090565b601281101561096a5760120360ff81116107b75761095690610918565b908181029181830414901517156107b75790565b6011190160ff81116107b75761097f90610918565b90811561098a570490565b634e487b7160e01b5f52601260045260245ffdfea26469706673582212202ced1e53eef104c5cd80f5b5042a11a7f616aaabb45ec42d9f767a32c103c7e164736f6c634300081a0033","linkReferences":{}},"methodIdentifiers":{"MAX_PRICE_STALENESS()":"d6913b32","MAX_VALID_PRICE()":"66c4968a","MIN_VALID_PRICE()":"685d5a74","addPriceFeed(address,address,address)":"1b10a949","getLastUpdateTime(address,address)":"59f5a87f","getPrice(address,address)":"ac41865a","getPriceAtTime(address,address,uint256)":"0f65dfc5","isPriceStale(address,address)":"c14343f4","owner()":"8da5cb5b","priceFeeds(bytes32)":"c6c3f71e","removePriceFeed(address,address)":"5e41a282","renounceOwnership()":"715018a6","transferOwnership(address)":"f2fde38b"},"id":45}