{"abi":[{"type":"constructor","inputs":[],"stateMutability":"nonpayable"},{"type":"function","name":"MAX_PRICE_STALENESS","inputs":[],"outputs":[{"name":"","type":"uint256","internalType":"uint256"}],"stateMutability":"view"},{"type":"function","name":"PRICE_PRECISION","inputs":[],"outputs":[{"name":"","type":"uint256","internalType":"uint256"}],"stateMutability":"view"},{"type":"function","name":"addPriceFeed","inputs":[{"name":"token0","type":"address","internalType":"Currency"},{"name":"token1","type":"address","internalType":"Currency"},{"name":"priceFeed","type":"address","internalType":"address"}],"outputs":[],"stateMutability":"nonpayable"},{"type":"function","name":"getLastUpdateTime","inputs":[{"name":"token0","type":"address","internalType":"Currency"},{"name":"token1","type":"address","internalType":"Currency"}],"outputs":[{"name":"timestamp","type":"uint256","internalType":"uint256"}],"stateMutability":"view"},{"type":"function","name":"getPrice","inputs":[{"name":"token0","type":"address","internalType":"Currency"},{"name":"token1","type":"address","internalType":"Currency"}],"outputs":[{"name":"price","type":"uint256","internalType":"uint256"}],"stateMutability":"view"},{"type":"function","name":"getPriceAtTime","inputs":[{"name":"token0","type":"address","internalType":"Currency"},{"name":"token1","type":"address","internalType":"Currency"},{"name":"","type":"uint256","internalType":"uint256"}],"outputs":[{"name":"price","type":"uint256","internalType":"uint256"}],"stateMutability":"view"},{"type":"function","name":"isPriceStale","inputs":[{"name":"token0","type":"address","internalType":"Currency"},{"name":"token1","type":"address","internalType":"Currency"}],"outputs":[{"name":"isStale","type":"bool","internalType":"bool"}],"stateMutability":"view"},{"type":"function","name":"owner","inputs":[],"outputs":[{"name":"","type":"address","internalType":"address"}],"stateMutability":"view"},{"type":"function","name":"priceFeeds","inputs":[{"name":"","type":"bytes32","internalType":"bytes32"}],"outputs":[{"name":"","type":"address","internalType":"contract AggregatorV3Interface"}],"stateMutability":"view"},{"type":"function","name":"removePriceFeed","inputs":[{"name":"token0","type":"address","internalType":"Currency"},{"name":"token1","type":"address","internalType":"Currency"}],"outputs":[],"stateMutability":"nonpayable"},{"type":"function","name":"renounceOwnership","inputs":[],"outputs":[],"stateMutability":"nonpayable"},{"type":"function","name":"transferOwnership","inputs":[{"name":"newOwner","type":"address","internalType":"address"}],"outputs":[],"stateMutability":"nonpayable"},{"type":"event","name":"OwnershipTransferred","inputs":[{"name":"previousOwner","type":"address","indexed":true,"internalType":"address"},{"name":"newOwner","type":"address","indexed":true,"internalType":"address"}],"anonymous":false},{"type":"event","name":"PriceFeedAdded","inputs":[{"name":"token0","type":"address","indexed":true,"internalType":"Currency"},{"name":"token1","type":"address","indexed":true,"internalType":"Currency"},{"name":"priceFeed","type":"address","indexed":true,"internalType":"address"}],"anonymous":false},{"type":"event","name":"PriceFeedRemoved","inputs":[{"name":"token0","type":"address","indexed":true,"internalType":"Currency"},{"name":"token1","type":"address","indexed":true,"internalType":"Currency"}],"anonymous":false},{"type":"error","name":"OwnableInvalidOwner","inputs":[{"name":"owner","type":"address","internalType":"address"}]},{"type":"error","name":"OwnableUnauthorizedAccount","inputs":[{"name":"account","type":"address","internalType":"address"}]}],"bytecode":{"object":"0x6080604052348015600e575f80fd5b503380603357604051631e4fbdf760e01b81525f600482015260240160405180910390fd5b603a81603f565b50608e565b5f80546001600160a01b038381166001600160a01b0319831681178455604051919092169283917f8be0079c531659141344cd1fd0a4f28419497f9722a3daafe3b4186f6b6457e09190a35050565b610cbc8061009b5f395ff3fe608060405234801561000f575f80fd5b50600436106100cf575f3560e01c806395082d251161007d578063c6c3f71e11610058578063c6c3f71e146101a5578063d6913b32146101cd578063f2fde38b146101d6575f80fd5b806395082d2514610160578063ac41865a1461016f578063c14343f414610182575f80fd5b80635e41a282116100ad5780635e41a28214610121578063715018a6146101345780638da5cb5b1461013c575f80fd5b80630f65dfc5146100d35780631b10a949146100f957806359f5a87f1461010e575b5f80fd5b6100e66100e1366004610986565b6101e9565b6040519081526020015b60405180910390f35b61010c6101073660046109c4565b610261565b005b6100e661011c366004610a0c565b610319565b61010c61012f366004610a0c565b610444565b61010c6104f3565b5f546001600160a01b03165b6040516001600160a01b0390911681526020016100f0565b6100e6670de0b6b3a764000081565b6100e661017d366004610a0c565b610506565b610195610190366004610a0c565b610749565b60405190151581526020016100f0565b6101486101b3366004610a43565b60016020525f90815260409020546001600160a01b031681565b6100e6610e1081565b61010c6101e4366004610a5a565b610846565b604051635620c32d60e11b81526001600160a01b038085166004830152831660248201525f90309063ac41865a90604401602060405180830381865afa158015610235573d5f803e3d5ffd5b505050506040513d601f19601f820116820180604052508101906102599190610a7c565b949350505050565b610269610883565b60408051606085811b6bffffffffffffffffffffffff199081166020808501919091529186901b1660348301528251602881840301815260489092018084528251928201929092205f8181526001909252928120805473ffffffffffffffffffffffffffffffffffffffff19166001600160a01b038681169182179092559281871692918816917f1bfb6cf590e29574156886678ab2eb7fe658fbea224c52c020172df30f2f716991a450505050565b5f8061036984846040516bffffffffffffffffffffffff19606084811b8216602084015283901b1660348201525f9060480160405160208183030381529060405280519060200120905092915050565b5f818152600160205260409020549091506001600160a01b0316806103d55760405162461bcd60e51b815260206004820152601e60248201527f436861696e6c696e6b4f7261636c653a206e6f2070726963652066656564000060448201526064015b60405180910390fd5b5f816001600160a01b031663feaf968c6040518163ffffffff1660e01b815260040160a060405180830381865afa158015610412573d5f803e3d5ffd5b505050506040513d601f19601f820116820180604052508101906104369190610ab1565b509998505050505050505050565b61044c610883565b60408051606084811b6bffffffffffffffffffffffff199081166020808501919091529185901b1660348301528251602881840301815260489092018084528251928201929092205f8181526001909252928120805473ffffffffffffffffffffffffffffffffffffffff191690556001600160a01b0380851692908616917fac49089020c52dc09b25997730450c4b6b62a7637a33c7ee7d4a3b9bbafb73e991a3505050565b6104fb610883565b6105045f6108af565b565b5f8061055684846040516bffffffffffffffffffffffff19606084811b8216602084015283901b1660348201525f9060480160405160208183030381529060405280519060200120905092915050565b5f818152600160205260409020549091506001600160a01b0316806105bd5760405162461bcd60e51b815260206004820152601e60248201527f436861696e6c696e6b4f7261636c653a206e6f2070726963652066656564000060448201526064016103cc565b5f80826001600160a01b031663feaf968c6040518163ffffffff1660e01b815260040160a060405180830381865afa1580156105fb573d5f803e3d5ffd5b505050506040513d601f19601f8201168201806040525081019061061f9190610ab1565b509350509250505f82136106755760405162461bcd60e51b815260206004820152601e60248201527f436861696e6c696e6b4f7261636c653a20696e76616c6964207072696365000060448201526064016103cc565b610e106106828242610b13565b11156106d05760405162461bcd60e51b815260206004820152601c60248201527f436861696e6c696e6b4f7261636c653a207374616c652070726963650000000060448201526064016103cc565b5f836001600160a01b031663313ce5676040518163ffffffff1660e01b8152600401602060405180830381865afa15801561070d573d5f803e3d5ffd5b505050506040513d601f19601f820116820180604052508101906107319190610b26565b905061073d838261090b565b98975050505050505050565b5f8061079984846040516bffffffffffffffffffffffff19606084811b8216602084015283901b1660348201525f9060480160405160208183030381529060405280519060200120905092915050565b5f818152600160205260409020549091506001600160a01b0316806107c357600192505050610840565b5f816001600160a01b031663feaf968c6040518163ffffffff1660e01b815260040160a060405180830381865afa158015610800573d5f803e3d5ffd5b505050506040513d601f19601f820116820180604052508101906108249190610ab1565b509350505050610e1081426108399190610b13565b1193505050505b92915050565b61084e610883565b6001600160a01b03811661087757604051631e4fbdf760e01b81525f60048201526024016103cc565b610880816108af565b50565b5f546001600160a01b031633146105045760405163118cdaa760e01b81523360048201526024016103cc565b5f80546001600160a01b0383811673ffffffffffffffffffffffffffffffffffffffff19831681178455604051919092169283917f8be0079c531659141344cd1fd0a4f28419497f9722a3daafe3b4186f6b6457e09190a35050565b5f60128260ff16101561093f57610923826012610b46565b61092e90600a610c42565b6109389084610c50565b9050610840565b60128260ff16111561096b57610956601283610b46565b61096190600a610c42565b6109389084610c67565b5090919050565b6001600160a01b0381168114610880575f80fd5b5f805f60608486031215610998575f80fd5b83356109a381610972565b925060208401356109b381610972565b929592945050506040919091013590565b5f805f606084860312156109d6575f80fd5b83356109e181610972565b925060208401356109f181610972565b91506040840135610a0181610972565b809150509250925092565b5f8060408385031215610a1d575f80fd5b8235610a2881610972565b91506020830135610a3881610972565b809150509250929050565b5f60208284031215610a53575f80fd5b5035919050565b5f60208284031215610a6a575f80fd5b8135610a7581610972565b9392505050565b5f60208284031215610a8c575f80fd5b5051919050565b805169ffffffffffffffffffff81168114610aac575f80fd5b919050565b5f805f805f60a08688031215610ac5575f80fd5b610ace86610a93565b60208701516040880151606089015192975090955093509150610af360808701610a93565b90509295509295909350565b634e487b7160e01b5f52601160045260245ffd5b8181038181111561084057610840610aff565b5f60208284031215610b36575f80fd5b815160ff81168114610a75575f80fd5b60ff828116828216039081111561084057610840610aff565b6001815b6001841115610b9a57808504811115610b7e57610b7e610aff565b6001841615610b8c57908102905b60019390931c928002610b63565b935093915050565b5f82610bb057506001610840565b81610bbc57505f610840565b8160018114610bd25760028114610bdc57610bf8565b6001915050610840565b60ff841115610bed57610bed610aff565b50506001821b610840565b5060208310610133831016604e8410600b8410161715610c1b575081810a610840565b610c275f198484610b5f565b805f1904821115610c3a57610c3a610aff565b029392505050565b5f610a7560ff841683610ba2565b808202811582820484141761084057610840610aff565b5f82610c8157634e487b7160e01b5f52601260045260245ffd5b50049056fea26469706673582212206f5f24c3373186f9afaf9144e0a1521d4b6adecc34acfb1ee02487480c01b3d164736f6c634300081a0033","linkReferences":{}},"methodIdentifiers":{"MAX_PRICE_STALENESS()":"d6913b32","PRICE_PRECISION()":"95082d25","addPriceFeed(address,address,address)":"1b10a949","getLastUpdateTime(address,address)":"59f5a87f","getPrice(address,address)":"ac41865a","getPriceAtTime(address,address,uint256)":"0f65dfc5","isPriceStale(address,address)":"c14343f4","owner()":"8da5cb5b","priceFeeds(bytes32)":"c6c3f71e","removePriceFeed(address,address)":"5e41a282","renounceOwnership()":"715018a6","transferOwnership(address)":"f2fde38b"},"id":51}