{"abi":[{"type":"constructor","inputs":[{"name":"_priceOracle","type":"address","internalType":"contract ChainlinkPriceOracle"}],"stateMutability":"nonpayable"},{"type":"function","name":"addCustomPriceFeed","inputs":[{"name":"token0","type":"address","internalType":"address"},{"name":"token1","type":"address","internalType":"address"},{"name":"priceFeed","type":"address","internalType":"address"}],"outputs":[],"stateMutability":"nonpayable"},{"type":"function","name":"autoConfigureNetwork","inputs":[],"outputs":[],"stateMutability":"nonpayable"},{"type":"function","name":"batchAddPriceFeeds","inputs":[{"name":"configs","type":"tuple[]","internalType":"struct ProductionPriceFeedConfig.PriceFeedConfig[]","components":[{"name":"token0","type":"address","internalType":"address"},{"name":"token1","type":"address","internalType":"address"},{"name":"priceFeed","type":"address","internalType":"address"},{"name":"description","type":"string","internalType":"string"},{"name":"isActive","type":"bool","internalType":"bool"}]}],"outputs":[],"stateMutability":"nonpayable"},{"type":"function","name":"configureArbitrum","inputs":[],"outputs":[],"stateMutability":"nonpayable"},{"type":"function","name":"configureBase","inputs":[],"outputs":[],"stateMutability":"nonpayable"},{"type":"function","name":"configureMainnet","inputs":[],"outputs":[],"stateMutability":"nonpayable"},{"type":"function","name":"configureSepolia","inputs":[],"outputs":[],"stateMutability":"nonpayable"},{"type":"function","name":"emergencyReconfigure","inputs":[],"outputs":[],"stateMutability":"nonpayable"},{"type":"function","name":"getCurrentNetworkName","inputs":[],"outputs":[{"name":"","type":"string","internalType":"string"}],"stateMutability":"view"},{"type":"function","name":"isCurrentNetworkConfigured","inputs":[],"outputs":[{"name":"","type":"bool","internalType":"bool"}],"stateMutability":"view"},{"type":"function","name":"networkConfigured","inputs":[{"name":"","type":"uint256","internalType":"uint256"}],"outputs":[{"name":"","type":"bool","internalType":"bool"}],"stateMutability":"view"},{"type":"function","name":"owner","inputs":[],"outputs":[{"name":"","type":"address","internalType":"address"}],"stateMutability":"view"},{"type":"function","name":"priceOracle","inputs":[],"outputs":[{"name":"","type":"address","internalType":"contract ChainlinkPriceOracle"}],"stateMutability":"view"},{"type":"function","name":"removePriceFeed","inputs":[{"name":"token0","type":"address","internalType":"address"},{"name":"token1","type":"address","internalType":"address"}],"outputs":[],"stateMutability":"nonpayable"},{"type":"function","name":"renounceOwnership","inputs":[],"outputs":[],"stateMutability":"nonpayable"},{"type":"function","name":"transferOwnership","inputs":[{"name":"newOwner","type":"address","internalType":"address"}],"outputs":[],"stateMutability":"nonpayable"},{"type":"event","name":"NetworkConfigured","inputs":[{"name":"chainId","type":"uint256","indexed":true,"internalType":"uint256"},{"name":"feedCount","type":"uint256","indexed":false,"internalType":"uint256"}],"anonymous":false},{"type":"event","name":"OwnershipTransferred","inputs":[{"name":"previousOwner","type":"address","indexed":true,"internalType":"address"},{"name":"newOwner","type":"address","indexed":true,"internalType":"address"}],"anonymous":false},{"type":"event","name":"PriceFeedAdded","inputs":[{"name":"token0","type":"address","indexed":true,"internalType":"address"},{"name":"token1","type":"address","indexed":true,"internalType":"address"},{"name":"priceFeed","type":"address","indexed":false,"internalType":"address"}],"anonymous":false},{"type":"event","name":"PriceFeedRemoved","inputs":[{"name":"token0","type":"address","indexed":true,"internalType":"address"},{"name":"token1","type":"address","indexed":true,"internalType":"address"}],"anonymous":false},{"type":"error","name":"OwnableInvalidOwner","inputs":[{"name":"owner","type":"address","internalType":"address"}]},{"type":"error","name":"OwnableUnauthorizedAccount","inputs":[{"name":"account","type":"address","internalType":"address"}]}],"bytecode":{"object":"0x60a03461014657601f61227338819003918201601f19168301916001600160401b0383118484101761014a5780849260209460405283398101031261014657516001600160a01b0381168103610146573315610133575f8054336001600160a01b0319821681178355604051939290916001600160a01b0316907f8be0079c531659141344cd1fd0a4f28419497f9722a3daafe3b4186f6b6457e09080a3608052612114908161015f8239608051818181610a8301528181610ce401528181610f300152818161103d0152818161114a0152818161125701528181611364015281816114710152818161157e0152818161168b01528181611798015281816118a5015281816119b201528181611abf01528181611bcc01528181611cd901528181611dd001528181611edd0152611ffa0152f35b631e4fbdf760e01b5f525f60045260245ffd5b5f80fd5b634e487b7160e01b5f52604160045260245ffdfe6080806040526004361015610012575f80fd5b5f905f3560e01c90816303807a9e14610d3f575080631dc2b18914610d135780632630c12f14610ccf57806333cf226c14610c675780633743e1db14610b255780635e41a28214610a485780635f952967146109d3578063715018a6146109795780637e857f9b146107a15780637ea85a051461075957806381faaa9614610740578063881e9e85146107275780638da5cb5b146107005780639b211155146106e7578063e5c577ed146101565763f2fde38b146100ce575f80fd5b34610153576020366003190112610153576100e7610d6a565b6100ef610f08565b6001600160a01b0316801561013f5781546001600160a01b03198116821783556001600160a01b03167f8be0079c531659141344cd1fd0a4f28419497f9722a3daafe3b4186f6b6457e08380a380f35b631e4fbdf760e01b82526004829052602482fd5b80fd5b503461015357806003193601126101535761016f610f08565b466001036102ee5761017f610f08565b60018152600160205260ff6040822054166102a95760015f805160206120bf83398151915260206040661155120bd554d160ca1b8282516101c08482610daa565b6007815201526101ce611362565b66109510cbd554d160ca1b8282516101e68482610daa565b6007815201526101f461146f565b671554d110cbd554d160c21b82825161020d8482610daa565b60088152015261021b61157c565b661110524bd554d160ca1b8282516102338482610daa565b600781520152610241611689565b664554482f42544360c81b8282516102598482610daa565b600781520152610267611796565b664554482f44414960c81b82825161027f8482610daa565b60078152015261028d6118a3565b838552838252808520805460ff1916851790555160068152a280f35b60405162461bcd60e51b815260206004820152601a60248201527f4d61696e6e657420616c726561647920636f6e666967757265640000000000006044820152606490fd5b4662aa36a70361042257610300610f08565b62aa36a78152600160205260ff6040822054166103dd5762aa36a75f805160206120bf83398151915260206040704554482f55534420285365706f6c69612960781b82825161034f8482610daa565b60118152015261035d6119b0565b714c494e4b2f55534420285365706f6c69612960701b8282516103808482610daa565b60128152015261038e611abd565b71555344432f55534420285365706f6c69612960701b8282516103b18482610daa565b6012815201526103bf611bca565b83855260018252808520600160ff198254161790555160038152a280f35b60405162461bcd60e51b815260206004820152601a60248201527f5365706f6c696120616c726561647920636f6e666967757265640000000000006044820152606490fd5b466121050361052b57610433610f08565b6121058152600160205260ff6040822054166104e6576121055f805160206120bf833981519152602060406d4554482f5553442028426173652960901b82825161047d8482610daa565b600e8152015261048b611cd7565b6e555344432f5553442028426173652960881b8282516104ab8482610daa565b600f815201526104b9611dce565b6d4441492f5553442028426173652960901b8282516104d88482610daa565b600e815201526103bf611edb565b60405162461bcd60e51b815260206004820152601760248201527f4261736520616c726561647920636f6e666967757265640000000000000000006044820152606490fd5b4661a4b10361068f5761053c610f08565b61a4b18152600160205260ff60408220541661064a5761a4b15f805160206120bf83398151915260206040714554482f5553442028417262697472756d2960701b82825161058a8482610daa565b601281520152610598610f2e565b714152422f5553442028417262697472756d2960701b8282516105bb8482610daa565b6012815201526105c961103b565b72555344432f5553442028417262697472756d2960681b8282516105ed8482610daa565b6013815201526105fb611148565b714441492f5553442028417262697472756d2960701b82825161061e8482610daa565b60128152015261062c611255565b83855260018252808520600160ff198254161790555160048152a280f35b60405162461bcd60e51b815260206004820152601b60248201527f417262697472756d20616c726561647920636f6e6669677572656400000000006044820152606490fd5b60405162461bcd60e51b815260206004820152602a60248201527f556e737570706f72746564206e6574776f726b20666f72206175746f2d636f6e6044820152693334b3bab930ba34b7b760b11b6064820152608490fd5b5034610153578060031936011261015357610433610f08565b5034610153578060031936011261015357546040516001600160a01b039091168152602090f35b5034610153578060031936011261015357610300610f08565b503461015357806003193601126101535761017f610f08565b50346101535780600319360112610153576040610774610de0565b6020825193849282845280519283918282870152018585015e828201840152601f01601f19168101030190f35b50346101535760203660031901126101535760043567ffffffffffffffff811161093d573660238201121561093d57806004013567ffffffffffffffff8111610975573660248260051b8401011161097557906107fc610f08565b3681900360c2190190835b838110156109715760248160051b830101358381121561096d5782019060a0602319833603011261096d576040519160a0830183811067ffffffffffffffff8211176109595760405261085c60248201610d96565b835261086a60448201610d96565b6020840190815261087d60648301610d96565b9160408501928352608481013567ffffffffffffffff8111610955576024908201019036601f830112156109555781359167ffffffffffffffff831161094157604051908b906108d7601f8601601f191660200184610daa565b848352366020868301011161093d578460a4956020809301838601378301015260608701520135918215158303610939576080850192909252925192519051600193610933926001600160a01b03928316929081169116611fe8565b01610807565b8880fd5b5080fd5b634e487b7160e01b8b52604160045260248bfd5b8980fd5b634e487b7160e01b88526041600452602488fd5b8580fd5b8480f35b8280fd5b5034610153578060031936011261015357610992610f08565b80546001600160a01b03198116825581906001600160a01b03167f8be0079c531659141344cd1fd0a4f28419497f9722a3daafe3b4186f6b6457e08280a380f35b50346101535780600319360112610153576109ec610f08565b468152600160205260408120805460ff19169055303b156101535760405163e5c577ed60e01b81528190818160048183305af18015610a3d57610a2c5750f35b81610a3691610daa565b6101535780f35b6040513d84823e3d90fd5b5034610b21576040366003190112610b2157610a62610d6a565b610a6a610d80565b610a72610f08565b6001600160a01b03908116918116907f000000000000000000000000000000000000000000000000000000000000000016803b15610b21575f8091604460405180948193632f20d14160e11b83528760048401528860248401525af18015610b1657610b01575b507fac49089020c52dc09b25997730450c4b6b62a7637a33c7ee7d4a3b9bbafb73e98380a380f35b610b0e9193505f90610daa565b5f915f610ad9565b6040513d5f823e3d90fd5b5f80fd5b34610b21575f366003190112610b2157610b3d610f08565b61a4b15f5260016020527f205bae445d323d41c2a70638ff83cb0c4359544903850978ded8943e052cf9735460ff1661064a5761a4b15f805160206120bf83398151915260206040714554482f5553442028417262697472756d2960701b828251610ba88482610daa565b601281520152610bb6610f2e565b714152422f5553442028417262697472756d2960701b828251610bd98482610daa565b601281520152610be761103b565b72555344432f5553442028417262697472756d2960681b828251610c0b8482610daa565b601381520152610c19611148565b714441492f5553442028417262697472756d2960701b828251610c3c8482610daa565b601281520152610c4a611255565b835f5260018252805f20600160ff198254161790555160048152a2005b34610b21576060366003190112610b2157610c80610d6a565b610c88610d80565b604435906001600160a01b0382168203610b2157610ccd92610ca8610f08565b65437573746f6d60d01b6020604051610cc2604082610daa565b600681520152611fe8565b005b34610b21575f366003190112610b21576040517f00000000000000000000000000000000000000000000000000000000000000006001600160a01b03168152602090f35b34610b21575f366003190112610b2157465f526001602052602060ff60405f2054166040519015158152f35b34610b21576020366003190112610b21576020906004355f526001825260ff60405f20541615158152f35b600435906001600160a01b0382168203610b2157565b602435906001600160a01b0382168203610b2157565b35906001600160a01b0382168203610b2157565b90601f8019910116810190811067ffffffffffffffff821117610dcc57604052565b634e487b7160e01b5f52604160045260245ffd5b60014614610eda5762aa36a74614610ead576121054614610e8b5761a4b14614610e6157617a694614610e3a57604051610e1b604082610daa565b600f81526e556e6b6e6f776e204e6574776f726b60881b602082015290565b604051610e48604082610daa565b6009815268131bd8d85b1a1bdcdd60ba1b602082015290565b604051610e6f604082610daa565b600c81526b417262697472756d204f6e6560a01b602082015290565b604051610e99604082610daa565b60048152634261736560e01b602082015290565b604051610ebb604082610daa565b600f81526e14d95c1bdb1a584815195cdd1b995d608a1b602082015290565b604051610ee8604082610daa565b601081526f115d1a195c995d5b4813585a5b9b995d60821b602082015290565b5f546001600160a01b03163303610f1b57565b63118cdaa760e01b5f523360045260245ffd5b7f00000000000000000000000000000000000000000000000000000000000000006001600160a01b0316803b15610b2157604051631b10a94960e01b81527382af49447d8a07e3bd95bd0d56f35241523fbab1600482015273af88d065e77c8cc2239327c5edb3a432268e5831602482015273639fe6ab55c921f74e7fac1ee960c0b6293ba6126044820152905f908290606490829084905af18015610b165761102b575b5073af88d065e77c8cc2239327c5edb3a432268e58317382af49447d8a07e3bd95bd0d56f35241523fbab15f8051602061209f833981519152602060405173639fe6ab55c921f74e7fac1ee960c0b6293ba6128152a3565b5f61103591610daa565b5f610fd3565b7f00000000000000000000000000000000000000000000000000000000000000006001600160a01b0316803b15610b2157604051631b10a94960e01b815273912ce59144191c1204e64559fe8253a0e49e6548600482015273af88d065e77c8cc2239327c5edb3a432268e5831602482015273b2a824043730fe05f3da2efafa1cbbe83fa548d66044820152905f908290606490829084905af18015610b1657611138575b5073af88d065e77c8cc2239327c5edb3a432268e583173912ce59144191c1204e64559fe8253a0e49e65485f8051602061209f833981519152602060405173b2a824043730fe05f3da2efafa1cbbe83fa548d68152a3565b5f61114291610daa565b5f6110e0565b7f00000000000000000000000000000000000000000000000000000000000000006001600160a01b0316803b15610b2157604051631b10a94960e01b815273af88d065e77c8cc2239327c5edb3a432268e5831600482015273da10009cbd5d07dd0cecc66161fc93d7c9000da160248201527350834f3163758fcc1df9973b6e91f0f0f0434ad36044820152905f908290606490829084905af18015610b1657611245575b5073da10009cbd5d07dd0cecc66161fc93d7c9000da173af88d065e77c8cc2239327c5edb3a432268e58315f8051602061209f83398151915260206040517350834f3163758fcc1df9973b6e91f0f0f0434ad38152a3565b5f61124f91610daa565b5f6111ed565b7f00000000000000000000000000000000000000000000000000000000000000006001600160a01b0316803b15610b2157604051631b10a94960e01b815273da10009cbd5d07dd0cecc66161fc93d7c9000da1600482015273af88d065e77c8cc2239327c5edb3a432268e5831602482015273c5c8e77b397e531b8ec06bfb0048328b30e9ecfb6044820152905f908290606490829084905af18015610b1657611352575b5073af88d065e77c8cc2239327c5edb3a432268e583173da10009cbd5d07dd0cecc66161fc93d7c9000da15f8051602061209f833981519152602060405173c5c8e77b397e531b8ec06bfb0048328b30e9ecfb8152a3565b5f61135c91610daa565b5f6112fa565b7f00000000000000000000000000000000000000000000000000000000000000006001600160a01b0316803b15610b2157604051631b10a94960e01b815273c02aaa39b223fe8d0a0e5c4f27ead9083c756cc2600482015273a0b86a33e6441c4c27d3f50c9d6d14bdf12f4e6e6024820152735f4ec3df9cbd43714fe2740f5e3616155c5b84196044820152905f908290606490829084905af18015610b165761145f575b5073a0b86a33e6441c4c27d3f50c9d6d14bdf12f4e6e73c02aaa39b223fe8d0a0e5c4f27ead9083c756cc25f8051602061209f8339815191526020604051735f4ec3df9cbd43714fe2740f5e3616155c5b84198152a3565b5f61146991610daa565b5f611407565b7f00000000000000000000000000000000000000000000000000000000000000006001600160a01b0316803b15610b2157604051631b10a94960e01b8152732260fac5e5542a773aa44fbcfedf7c193bc2c599600482015273a0b86a33e6441c4c27d3f50c9d6d14bdf12f4e6e602482015273f4030086522a5beea4988f8ca5b36dbc97bee88c6044820152905f908290606490829084905af18015610b165761156c575b5073a0b86a33e6441c4c27d3f50c9d6d14bdf12f4e6e732260fac5e5542a773aa44fbcfedf7c193bc2c5995f8051602061209f833981519152602060405173f4030086522a5beea4988f8ca5b36dbc97bee88c8152a3565b5f61157691610daa565b5f611514565b7f00000000000000000000000000000000000000000000000000000000000000006001600160a01b0316803b15610b2157604051631b10a94960e01b815273a0b86a33e6441c4c27d3f50c9d6d14bdf12f4e6e6004820152736b175474e89094c44da98b954eedeac495271d0f6024820152738fffffd4afb6115b954bd326cbe7b4ba576818f66044820152905f908290606490829084905af18015610b1657611679575b50736b175474e89094c44da98b954eedeac495271d0f73a0b86a33e6441c4c27d3f50c9d6d14bdf12f4e6e5f8051602061209f8339815191526020604051738fffffd4afb6115b954bd326cbe7b4ba576818f68152a3565b5f61168391610daa565b5f611621565b7f00000000000000000000000000000000000000000000000000000000000000006001600160a01b0316803b15610b2157604051631b10a94960e01b8152736b175474e89094c44da98b954eedeac495271d0f600482015273a0b86a33e6441c4c27d3f50c9d6d14bdf12f4e6e602482015273aed0c38402a5d19df6e4c03f4e2dced6e29c1ee96044820152905f908290606490829084905af18015610b1657611786575b5073a0b86a33e6441c4c27d3f50c9d6d14bdf12f4e6e736b175474e89094c44da98b954eedeac495271d0f5f8051602061209f833981519152602060405173aed0c38402a5d19df6e4c03f4e2dced6e29c1ee98152a3565b5f61179091610daa565b5f61172e565b7f00000000000000000000000000000000000000000000000000000000000000006001600160a01b0316803b15610b2157604051631b10a94960e01b815273c02aaa39b223fe8d0a0e5c4f27ead9083c756cc26004820152732260fac5e5542a773aa44fbcfedf7c193bc2c5996024820152735f4ec3df9cbd43714fe2740f5e3616155c5b84196044820152905f908290606490829084905af18015610b1657611893575b50732260fac5e5542a773aa44fbcfedf7c193bc2c59973c02aaa39b223fe8d0a0e5c4f27ead9083c756cc25f8051602061209f8339815191526020604051735f4ec3df9cbd43714fe2740f5e3616155c5b84198152a3565b5f61189d91610daa565b5f61183b565b7f00000000000000000000000000000000000000000000000000000000000000006001600160a01b0316803b15610b2157604051631b10a94960e01b815273c02aaa39b223fe8d0a0e5c4f27ead9083c756cc26004820152736b175474e89094c44da98b954eedeac495271d0f6024820152735f4ec3df9cbd43714fe2740f5e3616155c5b84196044820152905f908290606490829084905af18015610b16576119a0575b50736b175474e89094c44da98b954eedeac495271d0f73c02aaa39b223fe8d0a0e5c4f27ead9083c756cc25f8051602061209f8339815191526020604051735f4ec3df9cbd43714fe2740f5e3616155c5b84198152a3565b5f6119aa91610daa565b5f611948565b7f00000000000000000000000000000000000000000000000000000000000000006001600160a01b0316803b15610b2157604051631b10a94960e01b815273fff9976782d46cc05630d1f6ebab18b2324d6b146004820152731c7d4b196cb0c7b01d743fbc6116a902379c7238602482015273694aa1769357215de4fac081bf1f309adc3253066044820152905f908290606490829084905af18015610b1657611aad575b50731c7d4b196cb0c7b01d743fbc6116a902379c723873fff9976782d46cc05630d1f6ebab18b2324d6b145f8051602061209f833981519152602060405173694aa1769357215de4fac081bf1f309adc3253068152a3565b5f611ab791610daa565b5f611a55565b7f00000000000000000000000000000000000000000000000000000000000000006001600160a01b0316803b15610b2157604051631b10a94960e01b815273779877a7b0d9e8603169ddbd7836e478b46247896004820152731c7d4b196cb0c7b01d743fbc6116a902379c7238602482015273c59e3633baac79493d908e63626716e204a45edf6044820152905f908290606490829084905af18015610b1657611bba575b50731c7d4b196cb0c7b01d743fbc6116a902379c723873779877a7b0d9e8603169ddbd7836e478b46247895f8051602061209f833981519152602060405173c59e3633baac79493d908e63626716e204a45edf8152a3565b5f611bc491610daa565b5f611b62565b7f00000000000000000000000000000000000000000000000000000000000000006001600160a01b0316803b15610b2157604051631b10a94960e01b8152731c7d4b196cb0c7b01d743fbc6116a902379c7238600482015273fff9976782d46cc05630d1f6ebab18b2324d6b14602482015273a2f78ab2355fe2f984d808b5cee7fd0a93d5270e6044820152905f908290606490829084905af18015610b1657611cc7575b5073fff9976782d46cc05630d1f6ebab18b2324d6b14731c7d4b196cb0c7b01d743fbc6116a902379c72385f8051602061209f833981519152602060405173a2f78ab2355fe2f984d808b5cee7fd0a93d5270e8152a3565b5f611cd191610daa565b5f611c6f565b7f00000000000000000000000000000000000000000000000000000000000000006001600160a01b0316803b15610b2157604051631b10a94960e01b81526006602160991b01600482015273833589fcd6edb6e08f4c7c32d4f71b54bda0291360248201527371041dddad3595f9ced3dccfbe3d1f4b0a16bb706044820152905f908290606490829084905af18015610b1657611dbe575b506040517371041dddad3595f9ced3dccfbe3d1f4b0a16bb70815273833589fcd6edb6e08f4c7c32d4f71b54bda02913906006602160991b01905f8051602061209f83398151915290602090a3565b5f611dc891610daa565b5f611d6f565b7f00000000000000000000000000000000000000000000000000000000000000006001600160a01b0316803b15610b2157604051631b10a94960e01b815273833589fcd6edb6e08f4c7c32d4f71b54bda0291360048201527350c5725949a6f0c72e6c4a641f24049a917db0cb6024820152737e860098f58bbfc8648a4311b374b1d669a2bc6b6044820152905f908290606490829084905af18015610b1657611ecb575b507350c5725949a6f0c72e6c4a641f24049a917db0cb73833589fcd6edb6e08f4c7c32d4f71b54bda029135f8051602061209f8339815191526020604051737e860098f58bbfc8648a4311b374b1d669a2bc6b8152a3565b5f611ed591610daa565b5f611e73565b7f00000000000000000000000000000000000000000000000000000000000000006001600160a01b0316803b15610b2157604051631b10a94960e01b81527350c5725949a6f0c72e6c4a641f24049a917db0cb600482015273833589fcd6edb6e08f4c7c32d4f71b54bda02913602482015273591e79239a7d679378ec8c847e5038150364c78f6044820152905f908290606490829084905af18015610b1657611fd8575b5073833589fcd6edb6e08f4c7c32d4f71b54bda029137350c5725949a6f0c72e6c4a641f24049a917db0cb5f8051602061209f833981519152602060405173591e79239a7d679378ec8c847e5038150364c78f8152a3565b5f611fe291610daa565b5f611f80565b6001600160a01b0391821692908216917f00000000000000000000000000000000000000000000000000000000000000001690813b15610b2157604051631b10a94960e01b81526001600160a01b038481166004830152858116602483015282166044820152915f908390606490829084905af1908115610b16575f8051602061209f8339815191529260209261208e575b506040516001600160a01b039091168152a3565b5f61209891610daa565b5f61207a56fe1bfb6cf590e29574156886678ab2eb7fe658fbea224c52c020172df30f2f71698f22da452c6c8505b1bc8887b4fd0722a07616b5e16c5d0a09aa71b8722cccbea2646970667358221220a2d96d1349cc30fb791649d8eb09d4af857dd43e8b7bebede7922298cbb858de64736f6c634300081a0033","linkReferences":{}},"methodIdentifiers":{"addCustomPriceFeed(address,address,address)":"33cf226c","autoConfigureNetwork()":"e5c577ed","batchAddPriceFeeds((address,address,address,string,bool)[])":"7e857f9b","configureArbitrum()":"3743e1db","configureBase()":"9b211155","configureMainnet()":"81faaa96","configureSepolia()":"881e9e85","emergencyReconfigure()":"5f952967","getCurrentNetworkName()":"7ea85a05","isCurrentNetworkConfigured()":"1dc2b189","networkConfigured(uint256)":"03807a9e","owner()":"8da5cb5b","priceOracle()":"2630c12f","removePriceFeed(address,address)":"5e41a282","renounceOwnership()":"715018a6","transferOwnership(address)":"f2fde38b"},"id":59}