{"abi":[{"type":"constructor","inputs":[{"name":"_priceOracle","type":"address","internalType":"contract ChainlinkPriceOracle"}],"stateMutability":"nonpayable"},{"type":"function","name":"addCustomPriceFeed","inputs":[{"name":"token0","type":"address","internalType":"address"},{"name":"token1","type":"address","internalType":"address"},{"name":"priceFeed","type":"address","internalType":"address"}],"outputs":[],"stateMutability":"nonpayable"},{"type":"function","name":"autoConfigureNetwork","inputs":[],"outputs":[],"stateMutability":"nonpayable"},{"type":"function","name":"batchAddPriceFeeds","inputs":[{"name":"configs","type":"tuple[]","internalType":"struct ProductionPriceFeedConfig.PriceFeedConfig[]","components":[{"name":"token0","type":"address","internalType":"address"},{"name":"token1","type":"address","internalType":"address"},{"name":"priceFeed","type":"address","internalType":"address"},{"name":"description","type":"string","internalType":"string"},{"name":"isActive","type":"bool","internalType":"bool"}]}],"outputs":[],"stateMutability":"nonpayable"},{"type":"function","name":"configureArbitrum","inputs":[],"outputs":[],"stateMutability":"nonpayable"},{"type":"function","name":"configureBase","inputs":[],"outputs":[],"stateMutability":"nonpayable"},{"type":"function","name":"configureMainnet","inputs":[],"outputs":[],"stateMutability":"nonpayable"},{"type":"function","name":"configureSepolia","inputs":[],"outputs":[],"stateMutability":"nonpayable"},{"type":"function","name":"emergencyReconfigure","inputs":[],"outputs":[],"stateMutability":"nonpayable"},{"type":"function","name":"getCurrentNetworkName","inputs":[],"outputs":[{"name":"","type":"string","internalType":"string"}],"stateMutability":"view"},{"type":"function","name":"isCurrentNetworkConfigured","inputs":[],"outputs":[{"name":"","type":"bool","internalType":"bool"}],"stateMutability":"view"},{"type":"function","name":"networkConfigured","inputs":[{"name":"","type":"uint256","internalType":"uint256"}],"outputs":[{"name":"","type":"bool","internalType":"bool"}],"stateMutability":"view"},{"type":"function","name":"owner","inputs":[],"outputs":[{"name":"","type":"address","internalType":"address"}],"stateMutability":"view"},{"type":"function","name":"priceOracle","inputs":[],"outputs":[{"name":"","type":"address","internalType":"contract ChainlinkPriceOracle"}],"stateMutability":"view"},{"type":"function","name":"removePriceFeed","inputs":[{"name":"token0","type":"address","internalType":"address"},{"name":"token1","type":"address","internalType":"address"}],"outputs":[],"stateMutability":"nonpayable"},{"type":"function","name":"renounceOwnership","inputs":[],"outputs":[],"stateMutability":"nonpayable"},{"type":"function","name":"transferOwnership","inputs":[{"name":"newOwner","type":"address","internalType":"address"}],"outputs":[],"stateMutability":"nonpayable"},{"type":"event","name":"NetworkConfigured","inputs":[{"name":"chainId","type":"uint256","indexed":true,"internalType":"uint256"},{"name":"feedCount","type":"uint256","indexed":false,"internalType":"uint256"}],"anonymous":false},{"type":"event","name":"OwnershipTransferred","inputs":[{"name":"previousOwner","type":"address","indexed":true,"internalType":"address"},{"name":"newOwner","type":"address","indexed":true,"internalType":"address"}],"anonymous":false},{"type":"event","name":"PriceFeedAdded","inputs":[{"name":"token0","type":"address","indexed":true,"internalType":"address"},{"name":"token1","type":"address","indexed":true,"internalType":"address"},{"name":"priceFeed","type":"address","indexed":false,"internalType":"address"}],"anonymous":false},{"type":"event","name":"PriceFeedRemoved","inputs":[{"name":"token0","type":"address","indexed":true,"internalType":"address"},{"name":"token1","type":"address","indexed":true,"internalType":"address"}],"anonymous":false},{"type":"error","name":"OwnableInvalidOwner","inputs":[{"name":"owner","type":"address","internalType":"address"}]},{"type":"error","name":"OwnableUnauthorizedAccount","inputs":[{"name":"account","type":"address","internalType":"address"}]}],"bytecode":{"object":"0x60a03461014657601f61256938819003918201601f19168301916001600160401b0383118484101761014a5780849260209460405283398101031261014657516001600160a01b0381168103610146573315610133575f8054336001600160a01b0319821681178355604051939290916001600160a01b0316907f8be0079c531659141344cd1fd0a4f28419497f9722a3daafe3b4186f6b6457e09080a360805261240a908161015f823960805181818161085f01528181610b0501528181610d5101528181610e5e01528181610f6b0152818161107801528181611185015281816112920152818161139f015281816114ac015281816115b9015281816116c6015281816117d3015281816118e0015281816119ed01528181611afa01528181611bf101528181611cfe0152611e1b0152f35b631e4fbdf760e01b5f525f60045260245ffd5b5f80fd5b634e487b7160e01b5f52604160045260245ffdfe6080806040526004361015610012575f80fd5b5f905f3560e01c90816303807a9e14610b60575080631dc2b18914610b345780632630c12f14610af057806333cf226c14610a885780633743e1db146109015780635e41a282146108245780635f952967146107ef578063715018a6146107955780637e857f9b146105bd5780637ea85a051461057557806381faaa96146103ed578063881e9e85146102d05780638da5cb5b146102a95780639b2111551461017a578063e5c577ed146101565763f2fde38b146100ce575f80fd5b34610153576020366003190112610153576100e7610b8b565b6100ef610d29565b6001600160a01b0316801561013f5781546001600160a01b03198116821783556001600160a01b03167f8be0079c531659141344cd1fd0a4f28419497f9722a3daafe3b4186f6b6457e08380a380f35b631e4fbdf760e01b82526004829052602482fd5b80fd5b503461015357806003193601126101535761016f610d29565b610177611ebf565b80f35b5034610153578060031936011261015357610193610d29565b6121058152600160205260ff604082205416610264576121055f805160206123b5833981519152602060406d4554482f5553442028426173652960901b8282516101dd8482610bcb565b600e815201526101eb611af8565b6e555344432f5553442028426173652960881b82825161020b8482610bcb565b600f81520152610219611bef565b6d4441492f5553442028426173652960901b8282516102388482610bcb565b600e81520152610246611cfc565b83855260018252808520600160ff198254161790555160038152a280f35b60405162461bcd60e51b815260206004820152601760248201527f4261736520616c726561647920636f6e666967757265640000000000000000006044820152606490fd5b5034610153578060031936011261015357546040516001600160a01b039091168152602090f35b50346101535780600319360112610153576102e9610d29565b62aa36a78152600160205260ff6040822054166103a85762aa36a75f805160206123b583398151915260206040704554482f55534420285365706f6c69612960781b8282516103388482610bcb565b6011815201526103466117d1565b714c494e4b2f55534420285365706f6c69612960701b8282516103698482610bcb565b6012815201526103776118de565b71555344432f55534420285365706f6c69612960701b82825161039a8482610bcb565b6012815201526102466119eb565b60405162461bcd60e51b815260206004820152601a60248201527f5365706f6c696120616c726561647920636f6e666967757265640000000000006044820152606490fd5b5034610153578060031936011261015357610406610d29565b60018152600160205260ff6040822054166105305760015f805160206123b583398151915260206040661155120bd554d160ca1b8282516104478482610bcb565b600781520152610455611183565b66109510cbd554d160ca1b82825161046d8482610bcb565b60078152015261047b611290565b671554d110cbd554d160c21b8282516104948482610bcb565b6008815201526104a261139d565b661110524bd554d160ca1b8282516104ba8482610bcb565b6007815201526104c86114aa565b664554482f42544360c81b8282516104e08482610bcb565b6007815201526104ee6115b7565b664554482f44414960c81b8282516105068482610bcb565b6007815201526105146116c4565b838552838252808520805460ff1916851790555160068152a280f35b60405162461bcd60e51b815260206004820152601a60248201527f4d61696e6e657420616c726561647920636f6e666967757265640000000000006044820152606490fd5b50346101535780600319360112610153576040610590610c01565b6020825193849282845280519283918282870152018585015e828201840152601f01601f19168101030190f35b50346101535760203660031901126101535760043567ffffffffffffffff8111610759573660238201121561075957806004013567ffffffffffffffff8111610791573660248260051b840101116107915790610618610d29565b3681900360c2190190835b8381101561078d5760248160051b83010135838112156107895782019060a06023198336030112610789576040519160a0830183811067ffffffffffffffff8211176107755760405261067860248201610bb7565b835261068660448201610bb7565b6020840190815261069960648301610bb7565b9160408501928352608481013567ffffffffffffffff8111610771576024908201019036601f830112156107715781359167ffffffffffffffff831161075d57604051908b906106f3601f8601601f191660200184610bcb565b8483523660208683010111610759578460a495602080930183860137830101526060870152013591821515830361075557608085019290925292519251905160019361074f926001600160a01b03928316929081169116611e09565b01610623565b8880fd5b5080fd5b634e487b7160e01b8b52604160045260248bfd5b8980fd5b634e487b7160e01b88526041600452602488fd5b8580fd5b8480f35b8280fd5b50346101535780600319360112610153576107ae610d29565b80546001600160a01b03198116825581906001600160a01b03167f8be0079c531659141344cd1fd0a4f28419497f9722a3daafe3b4186f6b6457e08280a380f35b5034610153578060031936011261015357610808610d29565b468152600160205260408120805460ff19169055610177611ebf565b50346108fd5760403660031901126108fd5761083e610b8b565b610846610ba1565b61084e610d29565b6001600160a01b03908116918116907f000000000000000000000000000000000000000000000000000000000000000016803b156108fd575f8091604460405180948193632f20d14160e11b83528760048401528860248401525af180156108f2576108dd575b507fac49089020c52dc09b25997730450c4b6b62a7637a33c7ee7d4a3b9bbafb73e98380a380f35b6108ea9193505f90610bcb565b5f915f6108b5565b6040513d5f823e3d90fd5b5f80fd5b346108fd575f3660031901126108fd57610919610d29565b61a4b15f5260016020527f205bae445d323d41c2a70638ff83cb0c4359544903850978ded8943e052cf9735460ff16610a435761a4b15f805160206123b583398151915260206040714554482f5553442028417262697472756d2960701b8282516109848482610bcb565b601281520152610992610d4f565b714152422f5553442028417262697472756d2960701b8282516109b58482610bcb565b6012815201526109c3610e5c565b72555344432f5553442028417262697472756d2960681b8282516109e78482610bcb565b6013815201526109f5610f69565b714441492f5553442028417262697472756d2960701b828251610a188482610bcb565b601281520152610a26611076565b835f5260018252805f20600160ff198254161790555160048152a2005b60405162461bcd60e51b815260206004820152601b60248201527f417262697472756d20616c726561647920636f6e6669677572656400000000006044820152606490fd5b346108fd5760603660031901126108fd57610aa1610b8b565b610aa9610ba1565b604435906001600160a01b03821682036108fd57610aee92610ac9610d29565b65437573746f6d60d01b6020604051610ae3604082610bcb565b600681520152611e09565b005b346108fd575f3660031901126108fd576040517f00000000000000000000000000000000000000000000000000000000000000006001600160a01b03168152602090f35b346108fd575f3660031901126108fd57465f526001602052602060ff60405f2054166040519015158152f35b346108fd5760203660031901126108fd576020906004355f526001825260ff60405f20541615158152f35b600435906001600160a01b03821682036108fd57565b602435906001600160a01b03821682036108fd57565b35906001600160a01b03821682036108fd57565b90601f8019910116810190811067ffffffffffffffff821117610bed57604052565b634e487b7160e01b5f52604160045260245ffd5b60014614610cfb5762aa36a74614610cce576121054614610cac5761a4b14614610c8257617a694614610c5b57604051610c3c604082610bcb565b600f81526e556e6b6e6f776e204e6574776f726b60881b602082015290565b604051610c69604082610bcb565b6009815268131bd8d85b1a1bdcdd60ba1b602082015290565b604051610c90604082610bcb565b600c81526b417262697472756d204f6e6560a01b602082015290565b604051610cba604082610bcb565b60048152634261736560e01b602082015290565b604051610cdc604082610bcb565b600f81526e14d95c1bdb1a584815195cdd1b995d608a1b602082015290565b604051610d09604082610bcb565b601081526f115d1a195c995d5b4813585a5b9b995d60821b602082015290565b5f546001600160a01b03163303610d3c57565b63118cdaa760e01b5f523360045260245ffd5b7f00000000000000000000000000000000000000000000000000000000000000006001600160a01b0316803b156108fd57604051631b10a94960e01b81527382af49447d8a07e3bd95bd0d56f35241523fbab1600482015273af88d065e77c8cc2239327c5edb3a432268e5831602482015273639fe6ab55c921f74e7fac1ee960c0b6293ba6126044820152905f908290606490829084905af180156108f257610e4c575b5073af88d065e77c8cc2239327c5edb3a432268e58317382af49447d8a07e3bd95bd0d56f35241523fbab15f80516020612395833981519152602060405173639fe6ab55c921f74e7fac1ee960c0b6293ba6128152a3565b5f610e5691610bcb565b5f610df4565b7f00000000000000000000000000000000000000000000000000000000000000006001600160a01b0316803b156108fd57604051631b10a94960e01b815273912ce59144191c1204e64559fe8253a0e49e6548600482015273af88d065e77c8cc2239327c5edb3a432268e5831602482015273b2a824043730fe05f3da2efafa1cbbe83fa548d66044820152905f908290606490829084905af180156108f257610f59575b5073af88d065e77c8cc2239327c5edb3a432268e583173912ce59144191c1204e64559fe8253a0e49e65485f80516020612395833981519152602060405173b2a824043730fe05f3da2efafa1cbbe83fa548d68152a3565b5f610f6391610bcb565b5f610f01565b7f00000000000000000000000000000000000000000000000000000000000000006001600160a01b0316803b156108fd57604051631b10a94960e01b815273af88d065e77c8cc2239327c5edb3a432268e5831600482015273da10009cbd5d07dd0cecc66161fc93d7c9000da160248201527350834f3163758fcc1df9973b6e91f0f0f0434ad36044820152905f908290606490829084905af180156108f257611066575b5073da10009cbd5d07dd0cecc66161fc93d7c9000da173af88d065e77c8cc2239327c5edb3a432268e58315f8051602061239583398151915260206040517350834f3163758fcc1df9973b6e91f0f0f0434ad38152a3565b5f61107091610bcb565b5f61100e565b7f00000000000000000000000000000000000000000000000000000000000000006001600160a01b0316803b156108fd57604051631b10a94960e01b815273da10009cbd5d07dd0cecc66161fc93d7c9000da1600482015273af88d065e77c8cc2239327c5edb3a432268e5831602482015273c5c8e77b397e531b8ec06bfb0048328b30e9ecfb6044820152905f908290606490829084905af180156108f257611173575b5073af88d065e77c8cc2239327c5edb3a432268e583173da10009cbd5d07dd0cecc66161fc93d7c9000da15f80516020612395833981519152602060405173c5c8e77b397e531b8ec06bfb0048328b30e9ecfb8152a3565b5f61117d91610bcb565b5f61111b565b7f00000000000000000000000000000000000000000000000000000000000000006001600160a01b0316803b156108fd57604051631b10a94960e01b815273c02aaa39b223fe8d0a0e5c4f27ead9083c756cc2600482015273a0b86a33e6441c4c27d3f50c9d6d14bdf12f4e6e6024820152735f4ec3df9cbd43714fe2740f5e3616155c5b84196044820152905f908290606490829084905af180156108f257611280575b5073a0b86a33e6441c4c27d3f50c9d6d14bdf12f4e6e73c02aaa39b223fe8d0a0e5c4f27ead9083c756cc25f805160206123958339815191526020604051735f4ec3df9cbd43714fe2740f5e3616155c5b84198152a3565b5f61128a91610bcb565b5f611228565b7f00000000000000000000000000000000000000000000000000000000000000006001600160a01b0316803b156108fd57604051631b10a94960e01b8152732260fac5e5542a773aa44fbcfedf7c193bc2c599600482015273a0b86a33e6441c4c27d3f50c9d6d14bdf12f4e6e602482015273f4030086522a5beea4988f8ca5b36dbc97bee88c6044820152905f908290606490829084905af180156108f25761138d575b5073a0b86a33e6441c4c27d3f50c9d6d14bdf12f4e6e732260fac5e5542a773aa44fbcfedf7c193bc2c5995f80516020612395833981519152602060405173f4030086522a5beea4988f8ca5b36dbc97bee88c8152a3565b5f61139791610bcb565b5f611335565b7f00000000000000000000000000000000000000000000000000000000000000006001600160a01b0316803b156108fd57604051631b10a94960e01b815273a0b86a33e6441c4c27d3f50c9d6d14bdf12f4e6e6004820152736b175474e89094c44da98b954eedeac495271d0f6024820152738fffffd4afb6115b954bd326cbe7b4ba576818f66044820152905f908290606490829084905af180156108f25761149a575b50736b175474e89094c44da98b954eedeac495271d0f73a0b86a33e6441c4c27d3f50c9d6d14bdf12f4e6e5f805160206123958339815191526020604051738fffffd4afb6115b954bd326cbe7b4ba576818f68152a3565b5f6114a491610bcb565b5f611442565b7f00000000000000000000000000000000000000000000000000000000000000006001600160a01b0316803b156108fd57604051631b10a94960e01b8152736b175474e89094c44da98b954eedeac495271d0f600482015273a0b86a33e6441c4c27d3f50c9d6d14bdf12f4e6e602482015273aed0c38402a5d19df6e4c03f4e2dced6e29c1ee96044820152905f908290606490829084905af180156108f2576115a7575b5073a0b86a33e6441c4c27d3f50c9d6d14bdf12f4e6e736b175474e89094c44da98b954eedeac495271d0f5f80516020612395833981519152602060405173aed0c38402a5d19df6e4c03f4e2dced6e29c1ee98152a3565b5f6115b191610bcb565b5f61154f565b7f00000000000000000000000000000000000000000000000000000000000000006001600160a01b0316803b156108fd57604051631b10a94960e01b815273c02aaa39b223fe8d0a0e5c4f27ead9083c756cc26004820152732260fac5e5542a773aa44fbcfedf7c193bc2c5996024820152735f4ec3df9cbd43714fe2740f5e3616155c5b84196044820152905f908290606490829084905af180156108f2576116b4575b50732260fac5e5542a773aa44fbcfedf7c193bc2c59973c02aaa39b223fe8d0a0e5c4f27ead9083c756cc25f805160206123958339815191526020604051735f4ec3df9cbd43714fe2740f5e3616155c5b84198152a3565b5f6116be91610bcb565b5f61165c565b7f00000000000000000000000000000000000000000000000000000000000000006001600160a01b0316803b156108fd57604051631b10a94960e01b815273c02aaa39b223fe8d0a0e5c4f27ead9083c756cc26004820152736b175474e89094c44da98b954eedeac495271d0f6024820152735f4ec3df9cbd43714fe2740f5e3616155c5b84196044820152905f908290606490829084905af180156108f2576117c1575b50736b175474e89094c44da98b954eedeac495271d0f73c02aaa39b223fe8d0a0e5c4f27ead9083c756cc25f805160206123958339815191526020604051735f4ec3df9cbd43714fe2740f5e3616155c5b84198152a3565b5f6117cb91610bcb565b5f611769565b7f00000000000000000000000000000000000000000000000000000000000000006001600160a01b0316803b156108fd57604051631b10a94960e01b815273fff9976782d46cc05630d1f6ebab18b2324d6b146004820152731c7d4b196cb0c7b01d743fbc6116a902379c7238602482015273694aa1769357215de4fac081bf1f309adc3253066044820152905f908290606490829084905af180156108f2576118ce575b50731c7d4b196cb0c7b01d743fbc6116a902379c723873fff9976782d46cc05630d1f6ebab18b2324d6b145f80516020612395833981519152602060405173694aa1769357215de4fac081bf1f309adc3253068152a3565b5f6118d891610bcb565b5f611876565b7f00000000000000000000000000000000000000000000000000000000000000006001600160a01b0316803b156108fd57604051631b10a94960e01b815273779877a7b0d9e8603169ddbd7836e478b46247896004820152731c7d4b196cb0c7b01d743fbc6116a902379c7238602482015273c59e3633baac79493d908e63626716e204a45edf6044820152905f908290606490829084905af180156108f2576119db575b50731c7d4b196cb0c7b01d743fbc6116a902379c723873779877a7b0d9e8603169ddbd7836e478b46247895f80516020612395833981519152602060405173c59e3633baac79493d908e63626716e204a45edf8152a3565b5f6119e591610bcb565b5f611983565b7f00000000000000000000000000000000000000000000000000000000000000006001600160a01b0316803b156108fd57604051631b10a94960e01b8152731c7d4b196cb0c7b01d743fbc6116a902379c7238600482015273fff9976782d46cc05630d1f6ebab18b2324d6b14602482015273a2f78ab2355fe2f984d808b5cee7fd0a93d5270e6044820152905f908290606490829084905af180156108f257611ae8575b5073fff9976782d46cc05630d1f6ebab18b2324d6b14731c7d4b196cb0c7b01d743fbc6116a902379c72385f80516020612395833981519152602060405173a2f78ab2355fe2f984d808b5cee7fd0a93d5270e8152a3565b5f611af291610bcb565b5f611a90565b7f00000000000000000000000000000000000000000000000000000000000000006001600160a01b0316803b156108fd57604051631b10a94960e01b81526006602160991b01600482015273833589fcd6edb6e08f4c7c32d4f71b54bda0291360248201527371041dddad3595f9ced3dccfbe3d1f4b0a16bb706044820152905f908290606490829084905af180156108f257611bdf575b506040517371041dddad3595f9ced3dccfbe3d1f4b0a16bb70815273833589fcd6edb6e08f4c7c32d4f71b54bda02913906006602160991b01905f8051602061239583398151915290602090a3565b5f611be991610bcb565b5f611b90565b7f00000000000000000000000000000000000000000000000000000000000000006001600160a01b0316803b156108fd57604051631b10a94960e01b815273833589fcd6edb6e08f4c7c32d4f71b54bda0291360048201527350c5725949a6f0c72e6c4a641f24049a917db0cb6024820152737e860098f58bbfc8648a4311b374b1d669a2bc6b6044820152905f908290606490829084905af180156108f257611cec575b507350c5725949a6f0c72e6c4a641f24049a917db0cb73833589fcd6edb6e08f4c7c32d4f71b54bda029135f805160206123958339815191526020604051737e860098f58bbfc8648a4311b374b1d669a2bc6b8152a3565b5f611cf691610bcb565b5f611c94565b7f00000000000000000000000000000000000000000000000000000000000000006001600160a01b0316803b156108fd57604051631b10a94960e01b81527350c5725949a6f0c72e6c4a641f24049a917db0cb600482015273833589fcd6edb6e08f4c7c32d4f71b54bda02913602482015273591e79239a7d679378ec8c847e5038150364c78f6044820152905f908290606490829084905af180156108f257611df9575b5073833589fcd6edb6e08f4c7c32d4f71b54bda029137350c5725949a6f0c72e6c4a641f24049a917db0cb5f80516020612395833981519152602060405173591e79239a7d679378ec8c847e5038150364c78f8152a3565b5f611e0391610bcb565b5f611da1565b6001600160a01b0391821692908216917f00000000000000000000000000000000000000000000000000000000000000001690813b156108fd57604051631b10a94960e01b81526001600160a01b038481166004830152858116602483015282166044820152915f908390606490829084905af19081156108f2575f8051602061239583398151915292602092611eaf575b506040516001600160a01b039091168152a3565b5f611eb991610bcb565b5f611e9b565b4660010361201557611ecf610d29565b60015f8190526020527fcc69885fda6bcc1a4ace058b4a62bf5e179ea78fd58a1ccd71c22cc9b688792f5460ff166105305760015f805160206123b583398151915260206040661155120bd554d160ca1b828251611f2d8482610bcb565b600781520152611f3b611183565b66109510cbd554d160ca1b828251611f538482610bcb565b600781520152611f61611290565b671554d110cbd554d160c21b828251611f7a8482610bcb565b600881520152611f8861139d565b661110524bd554d160ca1b828251611fa08482610bcb565b600781520152611fae6114aa565b664554482f42544360c81b828251611fc68482610bcb565b600781520152611fd46115b7565b664554482f44414960c81b828251611fec8482610bcb565b600781520152611ffa6116c4565b835f52838252805f208460ff198254161790555160068152a2565b4662aa36a70361212057612027610d29565b62aa36a75f5260016020527fd0ca2b9e48613413ba8bd488b2bc9928edc96f8f17ec2af94a885da5292afebb5460ff166103a85762aa36a75f805160206123b583398151915260206040704554482f55534420285365706f6c69612960781b8282516120938482610bcb565b6011815201526120a16117d1565b714c494e4b2f55534420285365706f6c69612960701b8282516120c48482610bcb565b6012815201526120d26118de565b71555344432f55534420285365706f6c69612960701b8282516120f58482610bcb565b6012815201526121036119eb565b835f5260018252805f20600160ff198254161790555160038152a2565b466121050361220157612131610d29565b6121055f5260016020527fb60096399359af1e390f4ccad595eafc702d6489db902b1fd8607f3867d438e15460ff16610264576121055f805160206123b5833981519152602060406d4554482f5553442028426173652960901b8282516121988482610bcb565b600e815201526121a6611af8565b6e555344432f5553442028426173652960881b8282516121c68482610bcb565b600f815201526121d4611bef565b6d4441492f5553442028426173652960901b8282516121f38482610bcb565b600e81520152612103611cfc565b4661a4b10361233c57612212610d29565b61a4b15f5260016020527f205bae445d323d41c2a70638ff83cb0c4359544903850978ded8943e052cf9735460ff16610a435761a4b15f805160206123b583398151915260206040714554482f5553442028417262697472756d2960701b82825161227d8482610bcb565b60128152015261228b610d4f565b714152422f5553442028417262697472756d2960701b8282516122ae8482610bcb565b6012815201526122bc610e5c565b72555344432f5553442028417262697472756d2960681b8282516122e08482610bcb565b6013815201526122ee610f69565b714441492f5553442028417262697472756d2960701b8282516123118482610bcb565b60128152015261231f611076565b835f5260018252805f20600160ff198254161790555160048152a2565b60405162461bcd60e51b815260206004820152602a60248201527f556e737570706f72746564206e6574776f726b20666f72206175746f2d636f6e6044820152693334b3bab930ba34b7b760b11b6064820152608490fdfe1bfb6cf590e29574156886678ab2eb7fe658fbea224c52c020172df30f2f71698f22da452c6c8505b1bc8887b4fd0722a07616b5e16c5d0a09aa71b8722cccbea2646970667358221220fc4410bb6a69a73503c55e78c037db63d07eaa94652c12c2a8da6fbb687bc3b164736f6c634300081a0033","linkReferences":{}},"methodIdentifiers":{"addCustomPriceFeed(address,address,address)":"33cf226c","autoConfigureNetwork()":"e5c577ed","batchAddPriceFeeds((address,address,address,string,bool)[])":"7e857f9b","configureArbitrum()":"3743e1db","configureBase()":"9b211155","configureMainnet()":"81faaa96","configureSepolia()":"881e9e85","emergencyReconfigure()":"5f952967","getCurrentNetworkName()":"7ea85a05","isCurrentNetworkConfigured()":"1dc2b189","networkConfigured(uint256)":"03807a9e","owner()":"8da5cb5b","priceOracle()":"2630c12f","removePriceFeed(address,address)":"5e41a282","renounceOwnership()":"715018a6","transferOwnership(address)":"f2fde38b"},"id":49}