{"abi":[{"type":"constructor","inputs":[{"name":"_poolManager","type":"address","internalType":"contract IPoolManager"},{"name":"_avsDirectory","type":"address","internalType":"contract IAVSDirectory"},{"name":"_priceOracle","type":"address","internalType":"contract IPriceOracle"},{"name":"_feeRecipient","type":"address","internalType":"address"},{"name":"_lvrThreshold","type":"uint256","internalType":"uint256"}],"stateMutability":"nonpayable"},{"type":"receive","stateMutability":"payable"},{"type":"function","name":"AVS_REWARD_PERCENTAGE","inputs":[],"outputs":[{"name":"","type":"uint256","internalType":"uint256"}],"stateMutability":"view"},{"type":"function","name":"BASIS_POINTS","inputs":[],"outputs":[{"name":"","type":"uint256","internalType":"uint256"}],"stateMutability":"view"},{"type":"function","name":"GAS_COMPENSATION_PERCENTAGE","inputs":[],"outputs":[{"name":"","type":"uint256","internalType":"uint256"}],"stateMutability":"view"},{"type":"function","name":"LP_REWARD_PERCENTAGE","inputs":[],"outputs":[{"name":"","type":"uint256","internalType":"uint256"}],"stateMutability":"view"},{"type":"function","name":"MAX_AUCTION_DURATION","inputs":[],"outputs":[{"name":"","type":"uint256","internalType":"uint256"}],"stateMutability":"view"},{"type":"function","name":"MIN_BID","inputs":[],"outputs":[{"name":"","type":"uint256","internalType":"uint256"}],"stateMutability":"view"},{"type":"function","name":"PROTOCOL_FEE_PERCENTAGE","inputs":[],"outputs":[{"name":"","type":"uint256","internalType":"uint256"}],"stateMutability":"view"},{"type":"function","name":"activeAuctions","inputs":[{"name":"","type":"bytes32","internalType":"PoolId"}],"outputs":[{"name":"","type":"bytes32","internalType":"bytes32"}],"stateMutability":"view"},{"type":"function","name":"afterAddLiquidity","inputs":[{"name":"sender","type":"address","internalType":"address"},{"name":"key","type":"tuple","internalType":"struct PoolKey","components":[{"name":"currency0","type":"address","internalType":"Currency"},{"name":"currency1","type":"address","internalType":"Currency"},{"name":"fee","type":"uint24","internalType":"uint24"},{"name":"tickSpacing","type":"int24","internalType":"int24"},{"name":"hooks","type":"address","internalType":"contract IHooks"}]},{"name":"params","type":"tuple","internalType":"struct ModifyLiquidityParams","components":[{"name":"tickLower","type":"int24","internalType":"int24"},{"name":"tickUpper","type":"int24","internalType":"int24"},{"name":"liquidityDelta","type":"int256","internalType":"int256"},{"name":"salt","type":"bytes32","internalType":"bytes32"}]},{"name":"delta","type":"int256","internalType":"BalanceDelta"},{"name":"feesAccrued","type":"int256","internalType":"BalanceDelta"},{"name":"hookData","type":"bytes","internalType":"bytes"}],"outputs":[{"name":"","type":"bytes4","internalType":"bytes4"},{"name":"","type":"int256","internalType":"BalanceDelta"}],"stateMutability":"nonpayable"},{"type":"function","name":"afterDonate","inputs":[{"name":"sender","type":"address","internalType":"address"},{"name":"key","type":"tuple","internalType":"struct PoolKey","components":[{"name":"currency0","type":"address","internalType":"Currency"},{"name":"currency1","type":"address","internalType":"Currency"},{"name":"fee","type":"uint24","internalType":"uint24"},{"name":"tickSpacing","type":"int24","internalType":"int24"},{"name":"hooks","type":"address","internalType":"contract IHooks"}]},{"name":"amount0","type":"uint256","internalType":"uint256"},{"name":"amount1","type":"uint256","internalType":"uint256"},{"name":"hookData","type":"bytes","internalType":"bytes"}],"outputs":[{"name":"","type":"bytes4","internalType":"bytes4"}],"stateMutability":"nonpayable"},{"type":"function","name":"afterInitialize","inputs":[{"name":"sender","type":"address","internalType":"address"},{"name":"key","type":"tuple","internalType":"struct PoolKey","components":[{"name":"currency0","type":"address","internalType":"Currency"},{"name":"currency1","type":"address","internalType":"Currency"},{"name":"fee","type":"uint24","internalType":"uint24"},{"name":"tickSpacing","type":"int24","internalType":"int24"},{"name":"hooks","type":"address","internalType":"contract IHooks"}]},{"name":"sqrtPriceX96","type":"uint160","internalType":"uint160"},{"name":"tick","type":"int24","internalType":"int24"}],"outputs":[{"name":"","type":"bytes4","internalType":"bytes4"}],"stateMutability":"nonpayable"},{"type":"function","name":"afterRemoveLiquidity","inputs":[{"name":"sender","type":"address","internalType":"address"},{"name":"key","type":"tuple","internalType":"struct PoolKey","components":[{"name":"currency0","type":"address","internalType":"Currency"},{"name":"currency1","type":"address","internalType":"Currency"},{"name":"fee","type":"uint24","internalType":"uint24"},{"name":"tickSpacing","type":"int24","internalType":"int24"},{"name":"hooks","type":"address","internalType":"contract IHooks"}]},{"name":"params","type":"tuple","internalType":"struct ModifyLiquidityParams","components":[{"name":"tickLower","type":"int24","internalType":"int24"},{"name":"tickUpper","type":"int24","internalType":"int24"},{"name":"liquidityDelta","type":"int256","internalType":"int256"},{"name":"salt","type":"bytes32","internalType":"bytes32"}]},{"name":"delta","type":"int256","internalType":"BalanceDelta"},{"name":"feesAccrued","type":"int256","internalType":"BalanceDelta"},{"name":"hookData","type":"bytes","internalType":"bytes"}],"outputs":[{"name":"","type":"bytes4","internalType":"bytes4"},{"name":"","type":"int256","internalType":"BalanceDelta"}],"stateMutability":"nonpayable"},{"type":"function","name":"afterSwap","inputs":[{"name":"sender","type":"address","internalType":"address"},{"name":"key","type":"tuple","internalType":"struct PoolKey","components":[{"name":"currency0","type":"address","internalType":"Currency"},{"name":"currency1","type":"address","internalType":"Currency"},{"name":"fee","type":"uint24","internalType":"uint24"},{"name":"tickSpacing","type":"int24","internalType":"int24"},{"name":"hooks","type":"address","internalType":"contract IHooks"}]},{"name":"params","type":"tuple","internalType":"struct SwapParams","components":[{"name":"zeroForOne","type":"bool","internalType":"bool"},{"name":"amountSpecified","type":"int256","internalType":"int256"},{"name":"sqrtPriceLimitX96","type":"uint160","internalType":"uint160"}]},{"name":"delta","type":"int256","internalType":"BalanceDelta"},{"name":"hookData","type":"bytes","internalType":"bytes"}],"outputs":[{"name":"","type":"bytes4","internalType":"bytes4"},{"name":"","type":"int128","internalType":"int128"}],"stateMutability":"nonpayable"},{"type":"function","name":"auctions","inputs":[{"name":"","type":"bytes32","internalType":"bytes32"}],"outputs":[{"name":"poolId","type":"bytes32","internalType":"PoolId"},{"name":"startTime","type":"uint256","internalType":"uint256"},{"name":"duration","type":"uint256","internalType":"uint256"},{"name":"isActive","type":"bool","internalType":"bool"},{"name":"isComplete","type":"bool","internalType":"bool"},{"name":"winner","type":"address","internalType":"address"},{"name":"winningBid","type":"uint256","internalType":"uint256"},{"name":"totalBids","type":"uint256","internalType":"uint256"}],"stateMutability":"view"},{"type":"function","name":"authorizedOperators","inputs":[{"name":"","type":"address","internalType":"address"}],"outputs":[{"name":"","type":"bool","internalType":"bool"}],"stateMutability":"view"},{"type":"function","name":"avsDirectory","inputs":[],"outputs":[{"name":"","type":"address","internalType":"contract IAVSDirectory"}],"stateMutability":"view"},{"type":"function","name":"beforeAddLiquidity","inputs":[{"name":"sender","type":"address","internalType":"address"},{"name":"key","type":"tuple","internalType":"struct PoolKey","components":[{"name":"currency0","type":"address","internalType":"Currency"},{"name":"currency1","type":"address","internalType":"Currency"},{"name":"fee","type":"uint24","internalType":"uint24"},{"name":"tickSpacing","type":"int24","internalType":"int24"},{"name":"hooks","type":"address","internalType":"contract IHooks"}]},{"name":"params","type":"tuple","internalType":"struct ModifyLiquidityParams","components":[{"name":"tickLower","type":"int24","internalType":"int24"},{"name":"tickUpper","type":"int24","internalType":"int24"},{"name":"liquidityDelta","type":"int256","internalType":"int256"},{"name":"salt","type":"bytes32","internalType":"bytes32"}]},{"name":"hookData","type":"bytes","internalType":"bytes"}],"outputs":[{"name":"","type":"bytes4","internalType":"bytes4"}],"stateMutability":"nonpayable"},{"type":"function","name":"beforeDonate","inputs":[{"name":"sender","type":"address","internalType":"address"},{"name":"key","type":"tuple","internalType":"struct PoolKey","components":[{"name":"currency0","type":"address","internalType":"Currency"},{"name":"currency1","type":"address","internalType":"Currency"},{"name":"fee","type":"uint24","internalType":"uint24"},{"name":"tickSpacing","type":"int24","internalType":"int24"},{"name":"hooks","type":"address","internalType":"contract IHooks"}]},{"name":"amount0","type":"uint256","internalType":"uint256"},{"name":"amount1","type":"uint256","internalType":"uint256"},{"name":"hookData","type":"bytes","internalType":"bytes"}],"outputs":[{"name":"","type":"bytes4","internalType":"bytes4"}],"stateMutability":"nonpayable"},{"type":"function","name":"beforeInitialize","inputs":[{"name":"sender","type":"address","internalType":"address"},{"name":"key","type":"tuple","internalType":"struct PoolKey","components":[{"name":"currency0","type":"address","internalType":"Currency"},{"name":"currency1","type":"address","internalType":"Currency"},{"name":"fee","type":"uint24","internalType":"uint24"},{"name":"tickSpacing","type":"int24","internalType":"int24"},{"name":"hooks","type":"address","internalType":"contract IHooks"}]},{"name":"sqrtPriceX96","type":"uint160","internalType":"uint160"}],"outputs":[{"name":"","type":"bytes4","internalType":"bytes4"}],"stateMutability":"nonpayable"},{"type":"function","name":"beforeRemoveLiquidity","inputs":[{"name":"sender","type":"address","internalType":"address"},{"name":"key","type":"tuple","internalType":"struct PoolKey","components":[{"name":"currency0","type":"address","internalType":"Currency"},{"name":"currency1","type":"address","internalType":"Currency"},{"name":"fee","type":"uint24","internalType":"uint24"},{"name":"tickSpacing","type":"int24","internalType":"int24"},{"name":"hooks","type":"address","internalType":"contract IHooks"}]},{"name":"params","type":"tuple","internalType":"struct ModifyLiquidityParams","components":[{"name":"tickLower","type":"int24","internalType":"int24"},{"name":"tickUpper","type":"int24","internalType":"int24"},{"name":"liquidityDelta","type":"int256","internalType":"int256"},{"name":"salt","type":"bytes32","internalType":"bytes32"}]},{"name":"hookData","type":"bytes","internalType":"bytes"}],"outputs":[{"name":"","type":"bytes4","internalType":"bytes4"}],"stateMutability":"nonpayable"},{"type":"function","name":"beforeSwap","inputs":[{"name":"sender","type":"address","internalType":"address"},{"name":"key","type":"tuple","internalType":"struct PoolKey","components":[{"name":"currency0","type":"address","internalType":"Currency"},{"name":"currency1","type":"address","internalType":"Currency"},{"name":"fee","type":"uint24","internalType":"uint24"},{"name":"tickSpacing","type":"int24","internalType":"int24"},{"name":"hooks","type":"address","internalType":"contract IHooks"}]},{"name":"params","type":"tuple","internalType":"struct SwapParams","components":[{"name":"zeroForOne","type":"bool","internalType":"bool"},{"name":"amountSpecified","type":"int256","internalType":"int256"},{"name":"sqrtPriceLimitX96","type":"uint160","internalType":"uint160"}]},{"name":"hookData","type":"bytes","internalType":"bytes"}],"outputs":[{"name":"","type":"bytes4","internalType":"bytes4"},{"name":"","type":"int256","internalType":"BeforeSwapDelta"},{"name":"","type":"uint24","internalType":"uint24"}],"stateMutability":"nonpayable"},{"type":"function","name":"claimRewards","inputs":[{"name":"poolId","type":"bytes32","internalType":"PoolId"}],"outputs":[],"stateMutability":"nonpayable"},{"type":"function","name":"feeRecipient","inputs":[],"outputs":[{"name":"","type":"address","internalType":"address"}],"stateMutability":"view"},{"type":"function","name":"getHookPermissions","inputs":[],"outputs":[{"name":"","type":"tuple","internalType":"struct Hooks.Permissions","components":[{"name":"beforeInitialize","type":"bool","internalType":"bool"},{"name":"afterInitialize","type":"bool","internalType":"bool"},{"name":"beforeAddLiquidity","type":"bool","internalType":"bool"},{"name":"afterAddLiquidity","type":"bool","internalType":"bool"},{"name":"beforeRemoveLiquidity","type":"bool","internalType":"bool"},{"name":"afterRemoveLiquidity","type":"bool","internalType":"bool"},{"name":"beforeSwap","type":"bool","internalType":"bool"},{"name":"afterSwap","type":"bool","internalType":"bool"},{"name":"beforeDonate","type":"bool","internalType":"bool"},{"name":"afterDonate","type":"bool","internalType":"bool"},{"name":"beforeSwapReturnDelta","type":"bool","internalType":"bool"},{"name":"afterSwapReturnDelta","type":"bool","internalType":"bool"},{"name":"afterAddLiquidityReturnDelta","type":"bool","internalType":"bool"},{"name":"afterRemoveLiquidityReturnDelta","type":"bool","internalType":"bool"}]}],"stateMutability":"pure"},{"type":"function","name":"lpLiquidity","inputs":[{"name":"","type":"bytes32","internalType":"PoolId"},{"name":"","type":"address","internalType":"address"}],"outputs":[{"name":"","type":"uint256","internalType":"uint256"}],"stateMutability":"view"},{"type":"function","name":"lpRewards","inputs":[{"name":"","type":"bytes32","internalType":"PoolId"},{"name":"","type":"address","internalType":"address"}],"outputs":[{"name":"","type":"uint256","internalType":"uint256"}],"stateMutability":"view"},{"type":"function","name":"lvrThreshold","inputs":[],"outputs":[{"name":"","type":"uint256","internalType":"uint256"}],"stateMutability":"view"},{"type":"function","name":"owner","inputs":[],"outputs":[{"name":"","type":"address","internalType":"address"}],"stateMutability":"view"},{"type":"function","name":"pause","inputs":[],"outputs":[],"stateMutability":"nonpayable"},{"type":"function","name":"paused","inputs":[],"outputs":[{"name":"","type":"bool","internalType":"bool"}],"stateMutability":"view"},{"type":"function","name":"poolManager","inputs":[],"outputs":[{"name":"","type":"address","internalType":"contract IPoolManager"}],"stateMutability":"view"},{"type":"function","name":"poolRewards","inputs":[{"name":"","type":"bytes32","internalType":"PoolId"}],"outputs":[{"name":"","type":"uint256","internalType":"uint256"}],"stateMutability":"view"},{"type":"function","name":"priceOracle","inputs":[],"outputs":[{"name":"","type":"address","internalType":"contract IPriceOracle"}],"stateMutability":"view"},{"type":"function","name":"renounceOwnership","inputs":[],"outputs":[],"stateMutability":"nonpayable"},{"type":"function","name":"setFeeRecipient","inputs":[{"name":"newFeeRecipient","type":"address","internalType":"address"}],"outputs":[],"stateMutability":"nonpayable"},{"type":"function","name":"setLVRThreshold","inputs":[{"name":"newThreshold","type":"uint256","internalType":"uint256"}],"outputs":[],"stateMutability":"nonpayable"},{"type":"function","name":"setOperatorAuthorization","inputs":[{"name":"operator","type":"address","internalType":"address"},{"name":"authorized","type":"bool","internalType":"bool"}],"outputs":[],"stateMutability":"nonpayable"},{"type":"function","name":"submitAuctionResult","inputs":[{"name":"auctionId","type":"bytes32","internalType":"bytes32"},{"name":"winner","type":"address","internalType":"address"},{"name":"winningBid","type":"uint256","internalType":"uint256"}],"outputs":[],"stateMutability":"nonpayable"},{"type":"function","name":"totalLiquidity","inputs":[{"name":"","type":"bytes32","internalType":"PoolId"}],"outputs":[{"name":"","type":"uint256","internalType":"uint256"}],"stateMutability":"view"},{"type":"function","name":"transferOwnership","inputs":[{"name":"newOwner","type":"address","internalType":"address"}],"outputs":[],"stateMutability":"nonpayable"},{"type":"function","name":"unpause","inputs":[],"outputs":[],"stateMutability":"nonpayable"},{"type":"event","name":"AuctionEnded","inputs":[{"name":"auctionId","type":"bytes32","indexed":true,"internalType":"bytes32"},{"name":"poolId","type":"bytes32","indexed":true,"internalType":"PoolId"},{"name":"winner","type":"address","indexed":true,"internalType":"address"},{"name":"winningBid","type":"uint256","indexed":false,"internalType":"uint256"}],"anonymous":false},{"type":"event","name":"AuctionStarted","inputs":[{"name":"auctionId","type":"bytes32","indexed":true,"internalType":"bytes32"},{"name":"poolId","type":"bytes32","indexed":true,"internalType":"PoolId"},{"name":"startTime","type":"uint256","indexed":false,"internalType":"uint256"},{"name":"duration","type":"uint256","indexed":false,"internalType":"uint256"}],"anonymous":false},{"type":"event","name":"LVRThresholdUpdated","inputs":[{"name":"oldThreshold","type":"uint256","indexed":false,"internalType":"uint256"},{"name":"newThreshold","type":"uint256","indexed":false,"internalType":"uint256"}],"anonymous":false},{"type":"event","name":"MEVDistributed","inputs":[{"name":"poolId","type":"bytes32","indexed":true,"internalType":"PoolId"},{"name":"totalAmount","type":"uint256","indexed":false,"internalType":"uint256"},{"name":"lpAmount","type":"uint256","indexed":false,"internalType":"uint256"},{"name":"avsAmount","type":"uint256","indexed":false,"internalType":"uint256"},{"name":"protocolAmount","type":"uint256","indexed":false,"internalType":"uint256"}],"anonymous":false},{"type":"event","name":"OperatorAuthorized","inputs":[{"name":"operator","type":"address","indexed":true,"internalType":"address"},{"name":"authorized","type":"bool","indexed":false,"internalType":"bool"}],"anonymous":false},{"type":"event","name":"OwnershipTransferred","inputs":[{"name":"previousOwner","type":"address","indexed":true,"internalType":"address"},{"name":"newOwner","type":"address","indexed":true,"internalType":"address"}],"anonymous":false},{"type":"event","name":"Paused","inputs":[{"name":"account","type":"address","indexed":false,"internalType":"address"}],"anonymous":false},{"type":"event","name":"RewardsClaimed","inputs":[{"name":"poolId","type":"bytes32","indexed":true,"internalType":"PoolId"},{"name":"lp","type":"address","indexed":true,"internalType":"address"},{"name":"amount","type":"uint256","indexed":false,"internalType":"uint256"}],"anonymous":false},{"type":"event","name":"Unpaused","inputs":[{"name":"account","type":"address","indexed":false,"internalType":"address"}],"anonymous":false},{"type":"error","name":"EnforcedPause","inputs":[]},{"type":"error","name":"ExpectedPause","inputs":[]},{"type":"error","name":"HookNotImplemented","inputs":[]},{"type":"error","name":"NotPoolManager","inputs":[]},{"type":"error","name":"OwnableInvalidOwner","inputs":[{"name":"owner","type":"address","internalType":"address"}]},{"type":"error","name":"OwnableUnauthorizedAccount","inputs":[{"name":"account","type":"address","internalType":"address"}]},{"type":"error","name":"ReentrancyGuardReentrantCall","inputs":[]}],"bytecode":{"object":"0x60e060405234801561000f575f80fd5b5060405161275138038061275183398101604081905261002e91610382565b6001600160a01b0385166080523385610046306100c2565b5060015f556001600160a01b03811661007857604051631e4fbdf760e01b81525f600482015260240160405180910390fd5b610081816101b8565b506001805460ff60a01b191690556001600160a01b0393841660a05291831660c052600980546001600160a01b0319169190931617909155600a55506103e9565b6101b5816101b0604080516101c0810182525f80825260208201819052918101829052606081018290526080810182905260a0810182905260c0810182905260e08101829052610100810182905261012081018290526101408101829052610160810182905261018081018290526101a081019190915250604080516101c0810182525f808252602082018190526001928201839052606082018190526080820183905260a0820181905260c0820183905260e0820192909252610100810182905261012081018290526101408101829052610160810182905261018081018290526101a081019190915290565b610209565b50565b600180546001600160a01b038381166001600160a01b0319831681179093556040519116919082907f8be0079c531659141344cd1fd0a4f28419497f9722a3daafe3b4186f6b6457e0905f90a35050565b805115156120008316151514158061022d5750602081015115156110008316151514155b806102445750604081015115156108008316151514155b8061025b5750606081015115156104008316151514155b806102725750608081015115156102008316151514155b80610289575060a081015115156101008316151514155b8061029f575060c0810151151560808316151514155b806102b5575060e0810151151560408316151514155b806102cc5750610100810151151560208316151514155b806102e35750610120810151151560108316151514155b806102fa5750610140810151151560088316151514155b806103115750610160810151151560048316151514155b806103285750610180810151151560028316151514155b8061033f57506101a0810151151560018316151514155b1561035557610355630732d7b560e51b83610359565b5050565b815f526001600160a01b03811660045260245ffd5b6001600160a01b03811681146101b5575f80fd5b5f805f805f60a08688031215610396575f80fd5b85516103a18161036e565b60208701519095506103b28161036e565b60408701519094506103c38161036e565b60608701519093506103d48161036e565b80925050608086015190509295509295909350565b60805160a05160c0516122e361046e5f395f8181610466015261174601525f61060001525f818161090601528181610bce01528181610c2f01528181610c9a01528181610d0301528181610d6c01528181610fbb01528181611022015281816111240152818161127001528181611362015281816114c7015261163601526122e35ff3fe6080604052600436106102b9575f3560e01c80637790ddc611610170578063c4e833ce116100d1578063dcd728b511610087578063e4d7d6dc11610062578063e4d7d6dc14610992578063e74b981b146109a7578063f2fde38b146109c6575f80fd5b8063dcd728b514610947578063e1b4af691461076f578063e1f1c4a71461097d575f80fd5b8063d40ea4d9116100b7578063d40ea4d9146108d6578063dc4c90d3146108f5578063dc98354e14610928575f80fd5b8063c4e833ce146107b9578063ce69cd20146108bc575f80fd5b8063af4cbe8011610126578063b47b2fb11161010c578063b47b2fb11461072d578063b6a8b0fa1461076f578063c0e8d3841461078e575f80fd5b8063af4cbe8014610703578063b26565c514610718575f80fd5b80638da5cb5b116101565780638da5cb5b146106c75780639f063efc14610622578063a99e4087146106e4575f80fd5b80637790ddc6146106945780638456cb59146106b3575f80fd5b8063446124561161021a5780635c975abb116101d05780636c2bbe7e116101b65780636c2bbe7e146106225780636fe7e6eb14610661578063715018a614610680575f80fd5b80635c975abb146105d15780636b3aa72e146105ef575f80fd5b80635498304c116102005780635498304c1461053157806354b7a8f71461055c578063575e24b414610587575f80fd5b806344612456146104dc5780634690484014610512575f80fd5b8063259982e51161026f5780632ae8c718116102555780632ae8c718146104a05780633f4ba83a146104b45780633fb35178146104c8575f80fd5b8063259982e5146104365780632630c12f14610455575f80fd5b80631e52301c1161029f5780631e52301c1461032a5780631edbc5be1461034b57806321d0ee70146103fe575f80fd5b8063181d989b146102c45780631a8a61f314610307575f80fd5b366102c057005b5f80fd5b3480156102cf575f80fd5b506102f26102de366004611c12565b60086020525f908152604090205460ff1681565b60405190151581526020015b60405180910390f35b348015610312575f80fd5b5061031c6103e881565b6040519081526020016102fe565b348015610335575f80fd5b50610349610344366004611c34565b6109e5565b005b348015610356575f80fd5b506103b8610365366004611c69565b600360208190525f918252604090912080546001820154600283015493830154600484015460059094015492949193919260ff808316936101008404909116926201000090046001600160a01b03169188565b604080519889526020890197909752958701949094529115156060860152151560808501526001600160a01b031660a084015260c083015260e0820152610100016102fe565b348015610409575f80fd5b5061041d610418366004611ceb565b610bc2565b6040516001600160e01b031990911681526020016102fe565b348015610441575f80fd5b5061041d610450366004611ceb565b610c23565b348015610460575f80fd5b506104887f000000000000000000000000000000000000000000000000000000000000000081565b6040516001600160a01b0390911681526020016102fe565b3480156104ab575f80fd5b5061031c60c881565b3480156104bf575f80fd5b50610349610c7a565b3480156104d3575f80fd5b5061031c600c81565b3480156104e7575f80fd5b5061031c6104f6366004611d62565b600560209081525f928352604080842090915290825290205481565b34801561051d575f80fd5b50600954610488906001600160a01b031681565b34801561053c575f80fd5b5061031c61054b366004611c69565b60026020525f908152604090205481565b348015610567575f80fd5b5061031c610576366004611c69565b60066020525f908152604090205481565b348015610592575f80fd5b506105a66105a1366004611da0565b610c8c565b604080516001600160e01b03199094168452602084019290925262ffffff16908201526060016102fe565b3480156105dc575f80fd5b50600154600160a01b900460ff166102f2565b3480156105fa575f80fd5b506104887f000000000000000000000000000000000000000000000000000000000000000081565b34801561062d575f80fd5b5061064161063c366004611dfa565b610cf6565b604080516001600160e01b031990931683526020830191909152016102fe565b34801561066c575f80fd5b5061041d61067b366004611e96565b610d60565b34801561068b575f80fd5b50610349610dbf565b34801561069f575f80fd5b506103496106ae366004611c69565b610dd0565b3480156106be575f80fd5b50610349610f38565b3480156106d2575f80fd5b506001546001600160a01b0316610488565b3480156106ef575f80fd5b506103496106fe366004611eed565b610f48565b34801561070e575f80fd5b5061031c600a5481565b348015610723575f80fd5b5061031c61213481565b348015610738575f80fd5b5061074c610747366004611f1d565b610fae565b604080516001600160e01b03199093168352600f9190910b6020830152016102fe565b34801561077a575f80fd5b5061041d610789366004611f9e565b611016565b348015610799575f80fd5b5061031c6107a8366004611c69565b60046020525f908152604090205481565b3480156107c4575f80fd5b506108af604080516101c0810182525f80825260208201819052918101829052606081018290526080810182905260a0810182905260c0810182905260e08101829052610100810182905261012081018290526101408101829052610160810182905261018081018290526101a081019190915250604080516101c0810182525f808252602082018190526001928201839052606082018190526080820183905260a0820181905260c0820183905260e0820192909252610100810182905261012081018290526101408101829052610160810182905261018081018290526101a081019190915290565b6040516102fe9190611ff8565b3480156108c7575f80fd5b5061031c66038d7ea4c6800081565b3480156108e1575f80fd5b506103496108f0366004611c69565b611079565b348015610900575f80fd5b506104887f000000000000000000000000000000000000000000000000000000000000000081565b348015610933575f80fd5b5061041d610942366004612119565b611118565b348015610952575f80fd5b5061031c610961366004611d62565b600760209081525f928352604080842090915290825290205481565b348015610988575f80fd5b5061031c61271081565b34801561099d575f80fd5b5061031c61012c81565b3480156109b2575f80fd5b506103496109c1366004611c12565b611175565b3480156109d1575f80fd5b506103496109e0366004611c12565b611202565b335f9081526008602052604090205460ff16610a485760405162461bcd60e51b815260206004820152601f60248201527f456967656e4c56523a20756e617574686f72697a6564206f70657261746f720060448201526064015b60405180910390fd5b5f8381526003602081905260409091200154839060ff16610aab5760405162461bcd60e51b815260206004820152601c60248201527f456967656e4c56523a2061756374696f6e206e6f7420616374697665000000006044820152606401610a3f565b610ab361123c565b5f84815260036020526040902060028101546001820154610ad49190612174565b421015610b235760405162461bcd60e51b815260206004820152601b60248201527f456967656e4c56523a2061756374696f6e206e6f7420656e64656400000000006044820152606401610a3f565b6003810180546004830185905560ff1961ff00196001600160a01b038816620100008102919091167fffffffffffffffffffff000000000000000000000000000000000000000000ff909316929092176101001716909155815460405185815287907f32f65ad10bfa4a0ee9db45ba15bf04a4005908f729d666edbc5e421b4519206c9060200160405180910390a450610bbc60015f55565b50505050565b5f336001600160a01b037f00000000000000000000000000000000000000000000000000000000000000001614610c0c5760405163570c108560e11b815260040160405180910390fd5b610c198686868686611264565b9695505050505050565b5f336001600160a01b037f00000000000000000000000000000000000000000000000000000000000000001614610c6d5760405163570c108560e11b815260040160405180910390fd5b610c198686868686611356565b610c82611437565b610c8a611464565b565b5f8080336001600160a01b037f00000000000000000000000000000000000000000000000000000000000000001614610cd85760405163570c108560e11b815260040160405180910390fd5b610ce588888888886114b9565b925092509250955095509592505050565b5f80336001600160a01b037f00000000000000000000000000000000000000000000000000000000000000001614610d415760405163570c108560e11b815260040160405180910390fd5b610d5089898989898989611553565b9150915097509795505050505050565b5f336001600160a01b037f00000000000000000000000000000000000000000000000000000000000000001614610daa5760405163570c108560e11b815260040160405180910390fd5b610db68585858561156e565b95945050505050565b610dc7611437565b610c8a5f611588565b610dd861123c565b5f81815260076020908152604080832033845290915290205480610e3e5760405162461bcd60e51b815260206004820152601f60248201527f456967656e4c56523a206e6f206c69717569646974792070726f7669646564006044820152606401610a3f565b5f828152600660209081526040808320546004909252822054909182610e648584612187565b610e6e919061219e565b90508015610f28575f85815260056020908152604080832033845290915281208054839290610e9e908490612174565b90915550505f8581526004602052604081208054839290610ec09084906121bd565b9091555050604051339082156108fc029083905f818181858888f19350505050158015610eef573d5f803e3d5ffd5b50604051818152339086907ffec539b3c42d74cd492c3ecf7966bf014b327beef98e935cdc3ec5e54a6901c79060200160405180910390a35b50505050610f3560015f55565b50565b610f40611437565b610c8a6115e6565b610f50611437565b6001600160a01b0382165f81815260086020908152604091829020805460ff191685151590811790915591519182527fc176fcf7d48a6aca0d96d3b3201f7add47c4af04ce9a51f5f4eb15d528c46e21910160405180910390a25050565b5f80336001600160a01b037f00000000000000000000000000000000000000000000000000000000000000001614610ff95760405163570c108560e11b815260040160405180910390fd5b611007888888888888611629565b91509150965096945050505050565b5f336001600160a01b037f000000000000000000000000000000000000000000000000000000000000000016146110605760405163570c108560e11b815260040160405180910390fd5b61106e87878787878761156e565b979650505050505050565b611081611437565b6103e88111156110d35760405162461bcd60e51b815260206004820152601c60248201527f456967656e4c56523a207468726573686f6c6420746f6f2068696768000000006044820152606401610a3f565b600a80549082905560408051828152602081018490527ff579147a7a27652efe56a2f791890638acfb4625388b7c67846205588b4009fb910160405180910390a15050565b5f336001600160a01b037f000000000000000000000000000000000000000000000000000000000000000016146111625760405163570c108560e11b815260040160405180910390fd5b61116d84848461156e565b949350505050565b61117d611437565b6001600160a01b0381166111d35760405162461bcd60e51b815260206004820152601960248201527f456967656e4c56523a20696e76616c69642061646472657373000000000000006044820152606401610a3f565b6009805473ffffffffffffffffffffffffffffffffffffffff19166001600160a01b0392909216919091179055565b61120a611437565b6001600160a01b03811661123357604051631e4fbdf760e01b81525f6004820152602401610a3f565b610f3581611588565b60025f540361125e57604051633ee5aeb560e01b815260040160405180910390fd5b60025f55565b5f336001600160a01b037f000000000000000000000000000000000000000000000000000000000000000016146112ae5760405163570c108560e11b815260040160405180910390fd5b5f6112c86112c1368890038801886121e2565b60a0902090565b90505f85604001351215611343575f6112e4604087013561227c565b5f8381526007602090815260408083206001600160a01b038d16845290915281208054929350839290919061131a9084906121bd565b90915550505f828152600660205260408120805483929061133c9084906121bd565b9091555050505b5063021d0ee760e41b9695505050505050565b5f336001600160a01b037f000000000000000000000000000000000000000000000000000000000000000016146113a05760405163570c108560e11b815260040160405180910390fd5b5f6113b36112c1368890038801886121e2565b90505f85604001351315611424575f8181526007602090815260408083206001600160a01b038b1684529091528082208054918801359290916113f7908490612174565b90915550505f8181526006602052604080822080549188013592909161141e908490612174565b90915550505b5063259982e560e01b9695505050505050565b6001546001600160a01b03163314610c8a5760405163118cdaa760e01b8152336004820152602401610a3f565b61146c6116e4565b6001805460ff60a01b191690557f5db9ee0a495bf2e6ff9c91a7834c1ba4fdd244a5e8aa4e537bd38aeae4b073aa335b6040516001600160a01b03909116815260200160405180910390a1565b5f8080336001600160a01b037f000000000000000000000000000000000000000000000000000000000000000016146115055760405163570c108560e11b815260040160405180910390fd5b61150d61170e565b5f6115206112c1368a90038a018a6121e2565b905061152c8888611739565b1561153a5761153a81611874565b506315d7892d60e21b985f985088975095505050505050565b5f80604051630a85dc2960e01b815260040160405180910390fd5b5f604051630a85dc2960e01b815260040160405180910390fd5b600180546001600160a01b0383811673ffffffffffffffffffffffffffffffffffffffff19831681179093556040519116919082907f8be0079c531659141344cd1fd0a4f28419497f9722a3daafe3b4186f6b6457e0905f90a35050565b6115ee61170e565b6001805460ff60a01b1916600160a01b1790557f62e78cea01bee320cd4e420270b5ea74000d11b0c9f74754ebdbfc544b05a25861149c3390565b5f80336001600160a01b037f000000000000000000000000000000000000000000000000000000000000000016146116745760405163570c108560e11b815260040160405180910390fd5b5f6116876112c1368a90038a018a6121e2565b5f8181526002602052604090205490915080158015906116bd57505f8181526003602081905260409091200154610100900460ff165b156116cc576116cc8282611a2f565b5063b47b2fb160e01b995f9950975050505050505050565b600154600160a01b900460ff16610c8a57604051638dfc202b60e01b815260040160405180910390fd5b600154600160a01b900460ff1615610c8a5760405163d93c066560e01b815260040160405180910390fd5b5f670de0b6b3a7640000817f00000000000000000000000000000000000000000000000000000000000000006001600160a01b031663ac41865a6117806020880188611c12565b6117906040890160208a01611c12565b6040516001600160e01b031960e085901b1681526001600160a01b03928316600482015291166024820152604401602060405180830381865afa1580156117d9573d5f803e3d5ffd5b505050506040513d601f19601f820116820180604052508101906117fd9190612296565b90505f81831161182e578261271061181582856121bd565b61181f9190612187565b611829919061219e565b611850565b8161271061183c82866121bd565b6118469190612187565b611850919061219e565b9050600a548110158015611868575061186885611b9d565b93505050505b92915050565b604080516020810183905242918101919091524360608201525f9060800160408051601f1981840301815291815281516020928301205f8581526002909352912054909150156119065760405162461bcd60e51b815260206004820181905260248201527f456967656e4c56523a2061756374696f6e20616c7265616479206163746976656044820152606401610a3f565b604080516101008082018352848252426020808401828152600c8587018181526001606088018181525f60808a0181815260a08b0182815260c08c0183815260e08d018481528f85526003808c528f86209e518f559951968e019690965595516002808e01919091559351978c0180549251915161ffff1990931698151561ff00191698909817901515909a02999099177fffffffffffffffffffff0000000000000000000000000000000000000000ffff16620100006001600160a01b03909a1699909902989098179094559051600488015551600590960195909555878452815291849020859055835190815290810191909152839183917f8d50f1936786e8fcaf1a432bed2207696b5cc11646e7107f3e439f44546d8482910160405180910390a35050565b5f81815260036020526040902060048101548015611b8a575f612710611a5761213484612187565b611a61919061219e565b90505f612710611a736103e885612187565b611a7d919061219e565b90505f612710611a8f61012c86612187565b611a99919061219e565b90508260045f8981526020019081526020015f205f828254611abb9190612174565b90915550611acb90508784611bc8565b8115611afd57604051339083156108fc029084905f818181858888f19350505050158015611afb573d5f803e3d5ffd5b505b8015611b3c576009546040516001600160a01b039091169082156108fc029083905f818181858888f19350505050158015611b3a573d5f803e3d5ffd5b505b60408051858152602081018590529081018390526060810182905287907f9f28cf522c1dd60442bfdecae6dfd5abc02b942618ef4f1e2fb7f3efdc8b4f459060800160405180910390a25050505b5050505f90815260026020526040812055565b5f670de0b6b3a76400008260200135138061186e575050670de0b6b3a763ffff196020909101351290565b5f8281526004602052604081208054839290611be5908490612174565b90915550505050565b6001600160a01b0381168114610f35575f80fd5b8035611c0d81611bee565b919050565b5f60208284031215611c22575f80fd5b8135611c2d81611bee565b9392505050565b5f805f60608486031215611c46575f80fd5b833592506020840135611c5881611bee565b929592945050506040919091013590565b5f60208284031215611c79575f80fd5b5035919050565b5f60a08284031215611c90575f80fd5b50919050565b5f60808284031215611c90575f80fd5b5f8083601f840112611cb6575f80fd5b50813567ffffffffffffffff811115611ccd575f80fd5b602083019150836020828501011115611ce4575f80fd5b9250929050565b5f805f805f6101608688031215611d00575f80fd5b8535611d0b81611bee565b9450611d1a8760208801611c80565b9350611d298760c08801611c96565b925061014086013567ffffffffffffffff811115611d45575f80fd5b611d5188828901611ca6565b969995985093965092949392505050565b5f8060408385031215611d73575f80fd5b823591506020830135611d8581611bee565b809150509250929050565b5f60608284031215611c90575f80fd5b5f805f805f6101408688031215611db5575f80fd5b8535611dc081611bee565b9450611dcf8760208801611c80565b9350611dde8760c08801611d90565b925061012086013567ffffffffffffffff811115611d45575f80fd5b5f805f805f805f6101a0888a031215611e11575f80fd5b8735611e1c81611bee565b9650611e2b8960208a01611c80565b9550611e3a8960c08a01611c96565b94506101408801359350610160880135925061018088013567ffffffffffffffff811115611e66575f80fd5b611e728a828b01611ca6565b989b979a50959850939692959293505050565b8035600281900b8114611c0d575f80fd5b5f805f806101008587031215611eaa575f80fd5b8435611eb581611bee565b9350611ec48660208701611c80565b925060c0850135611ed481611bee565b9150611ee260e08601611e85565b905092959194509250565b5f8060408385031215611efe575f80fd5b8235611f0981611bee565b915060208301358015158114611d85575f80fd5b5f805f805f806101608789031215611f33575f80fd5b8635611f3e81611bee565b9550611f4d8860208901611c80565b9450611f5c8860c08901611d90565b9350610120870135925061014087013567ffffffffffffffff811115611f80575f80fd5b611f8c89828a01611ca6565b979a9699509497509295939492505050565b5f805f805f806101208789031215611fb4575f80fd5b8635611fbf81611bee565b9550611fce8860208901611c80565b945060c0870135935060e0870135925061010087013567ffffffffffffffff811115611f80575f80fd5b8151151581526101c081016020830151612016602084018215159052565b50604083015161202a604084018215159052565b50606083015161203e606084018215159052565b506080830151612052608084018215159052565b5060a083015161206660a084018215159052565b5060c083015161207a60c084018215159052565b5060e083015161208e60e084018215159052565b506101008301516120a461010084018215159052565b506101208301516120ba61012084018215159052565b506101408301516120d061014084018215159052565b506101608301516120e661016084018215159052565b506101808301516120fc61018084018215159052565b506101a08301516121126101a084018215159052565b5092915050565b5f805f60e0848603121561212b575f80fd5b833561213681611bee565b92506121458560208601611c80565b915060c084013561215581611bee565b809150509250925092565b634e487b7160e01b5f52601160045260245ffd5b8082018082111561186e5761186e612160565b808202811582820484141761186e5761186e612160565b5f826121b857634e487b7160e01b5f52601260045260245ffd5b500490565b8181038181111561186e5761186e612160565b803562ffffff81168114611c0d575f80fd5b5f60a08284031280156121f3575f80fd5b5060405160a0810167ffffffffffffffff8111828210171561222357634e487b7160e01b5f52604160045260245ffd5b60405261222f83611c02565b815261223d60208401611c02565b602082015261224e604084016121d0565b604082015261225f60608401611e85565b606082015261227060808401611c02565b60808201529392505050565b5f600160ff1b820161229057612290612160565b505f0390565b5f602082840312156122a6575f80fd5b505191905056fea2646970667358221220740263ee6fb36174b0c1dd50d4a4403a3cd13f4951c898fd8f02f5dc24df37cb64736f6c634300081a0033","linkReferences":{}},"methodIdentifiers":{"AVS_REWARD_PERCENTAGE()":"1a8a61f3","BASIS_POINTS()":"e1f1c4a7","GAS_COMPENSATION_PERCENTAGE()":"2ae8c718","LP_REWARD_PERCENTAGE()":"b26565c5","MAX_AUCTION_DURATION()":"3fb35178","MIN_BID()":"ce69cd20","PROTOCOL_FEE_PERCENTAGE()":"e4d7d6dc","activeAuctions(bytes32)":"5498304c","afterAddLiquidity(address,(address,address,uint24,int24,address),(int24,int24,int256,bytes32),int256,int256,bytes)":"9f063efc","afterDonate(address,(address,address,uint24,int24,address),uint256,uint256,bytes)":"e1b4af69","afterInitialize(address,(address,address,uint24,int24,address),uint160,int24)":"6fe7e6eb","afterRemoveLiquidity(address,(address,address,uint24,int24,address),(int24,int24,int256,bytes32),int256,int256,bytes)":"6c2bbe7e","afterSwap(address,(address,address,uint24,int24,address),(bool,int256,uint160),int256,bytes)":"b47b2fb1","auctions(bytes32)":"1edbc5be","authorizedOperators(address)":"181d989b","avsDirectory()":"6b3aa72e","beforeAddLiquidity(address,(address,address,uint24,int24,address),(int24,int24,int256,bytes32),bytes)":"259982e5","beforeDonate(address,(address,address,uint24,int24,address),uint256,uint256,bytes)":"b6a8b0fa","beforeInitialize(address,(address,address,uint24,int24,address),uint160)":"dc98354e","beforeRemoveLiquidity(address,(address,address,uint24,int24,address),(int24,int24,int256,bytes32),bytes)":"21d0ee70","beforeSwap(address,(address,address,uint24,int24,address),(bool,int256,uint160),bytes)":"575e24b4","claimRewards(bytes32)":"7790ddc6","feeRecipient()":"46904840","getHookPermissions()":"c4e833ce","lpLiquidity(bytes32,address)":"dcd728b5","lpRewards(bytes32,address)":"44612456","lvrThreshold()":"af4cbe80","owner()":"8da5cb5b","pause()":"8456cb59","paused()":"5c975abb","poolManager()":"dc4c90d3","poolRewards(bytes32)":"c0e8d384","priceOracle()":"2630c12f","renounceOwnership()":"715018a6","setFeeRecipient(address)":"e74b981b","setLVRThreshold(uint256)":"d40ea4d9","setOperatorAuthorization(address,bool)":"a99e4087","submitAuctionResult(bytes32,address,uint256)":"1e52301c","totalLiquidity(bytes32)":"54b7a8f7","transferOwnership(address)":"f2fde38b","unpause()":"3f4ba83a"},"id":55}