{"abi":[{"type":"constructor","inputs":[{"name":"_avsDirectory","type":"address","internalType":"contract IAVSDirectory"}],"stateMutability":"nonpayable"},{"type":"receive","stateMutability":"payable"},{"type":"function","name":"CHALLENGE_WINDOW","inputs":[],"outputs":[{"name":"","type":"uint256","internalType":"uint256"}],"stateMutability":"view"},{"type":"function","name":"MINIMUM_QUORUM_SIZE","inputs":[],"outputs":[{"name":"","type":"uint256","internalType":"uint256"}],"stateMutability":"view"},{"type":"function","name":"MINIMUM_STAKE","inputs":[],"outputs":[{"name":"","type":"uint256","internalType":"uint256"}],"stateMutability":"view"},{"type":"function","name":"TASK_RESPONSE_WINDOW","inputs":[],"outputs":[{"name":"","type":"uint256","internalType":"uint256"}],"stateMutability":"view"},{"type":"function","name":"addStake","inputs":[],"outputs":[],"stateMutability":"payable"},{"type":"function","name":"allTaskHashes","inputs":[{"name":"","type":"uint32","internalType":"uint32"}],"outputs":[{"name":"","type":"bytes32","internalType":"bytes32"}],"stateMutability":"view"},{"type":"function","name":"allTaskResponses","inputs":[{"name":"","type":"uint32","internalType":"uint32"}],"outputs":[{"name":"","type":"bytes32","internalType":"bytes32"}],"stateMutability":"view"},{"type":"function","name":"auctionTasks","inputs":[{"name":"","type":"uint32","internalType":"uint32"}],"outputs":[{"name":"auctionId","type":"bytes32","internalType":"bytes32"},{"name":"poolId","type":"bytes32","internalType":"bytes32"},{"name":"taskCreatedBlock","type":"uint32","internalType":"uint32"},{"name":"deadline","type":"uint256","internalType":"uint256"},{"name":"completed","type":"bool","internalType":"bool"}],"stateMutability":"view"},{"type":"function","name":"avsDirectory","inputs":[],"outputs":[{"name":"","type":"address","internalType":"contract IAVSDirectory"}],"stateMutability":"view"},{"type":"function","name":"challengeTask","inputs":[{"name":"taskIndex","type":"uint32","internalType":"uint32"}],"outputs":[],"stateMutability":"payable"},{"type":"function","name":"createAuctionTask","inputs":[{"name":"auctionId","type":"bytes32","internalType":"bytes32"},{"name":"poolId","type":"bytes32","internalType":"bytes32"}],"outputs":[{"name":"","type":"uint32","internalType":"uint32"}],"stateMutability":"nonpayable"},{"type":"function","name":"deregisterOperator","inputs":[],"outputs":[],"stateMutability":"nonpayable"},{"type":"function","name":"fundRewardPool","inputs":[],"outputs":[],"stateMutability":"payable"},{"type":"function","name":"getOperatorCount","inputs":[],"outputs":[{"name":"","type":"uint256","internalType":"uint256"}],"stateMutability":"view"},{"type":"function","name":"getTask","inputs":[{"name":"taskIndex","type":"uint32","internalType":"uint32"}],"outputs":[{"name":"","type":"tuple","internalType":"struct EigenLVRAVSServiceManager.AuctionTask","components":[{"name":"auctionId","type":"bytes32","internalType":"bytes32"},{"name":"poolId","type":"bytes32","internalType":"bytes32"},{"name":"taskCreatedBlock","type":"uint32","internalType":"uint32"},{"name":"deadline","type":"uint256","internalType":"uint256"},{"name":"completed","type":"bool","internalType":"bool"}]}],"stateMutability":"view"},{"type":"function","name":"getTaskResponse","inputs":[{"name":"taskIndex","type":"uint32","internalType":"uint32"},{"name":"operator","type":"address","internalType":"address"}],"outputs":[{"name":"","type":"tuple","internalType":"struct EigenLVRAVSServiceManager.TaskResponse","components":[{"name":"operator","type":"address","internalType":"address"},{"name":"auctionId","type":"bytes32","internalType":"bytes32"},{"name":"winner","type":"address","internalType":"address"},{"name":"winningBid","type":"uint256","internalType":"uint256"},{"name":"signature","type":"bytes","internalType":"bytes"},{"name":"timestamp","type":"uint256","internalType":"uint256"}]}],"stateMutability":"view"},{"type":"function","name":"hasQuorum","inputs":[],"outputs":[{"name":"","type":"bool","internalType":"bool"}],"stateMutability":"view"},{"type":"function","name":"latestTaskNum","inputs":[],"outputs":[{"name":"","type":"uint32","internalType":"uint32"}],"stateMutability":"view"},{"type":"function","name":"operatorRegistered","inputs":[{"name":"","type":"address","internalType":"address"}],"outputs":[{"name":"","type":"bool","internalType":"bool"}],"stateMutability":"view"},{"type":"function","name":"operatorResponded","inputs":[{"name":"","type":"uint32","internalType":"uint32"},{"name":"","type":"address","internalType":"address"}],"outputs":[{"name":"","type":"bool","internalType":"bool"}],"stateMutability":"view"},{"type":"function","name":"operatorStakes","inputs":[{"name":"","type":"address","internalType":"address"}],"outputs":[{"name":"","type":"uint256","internalType":"uint256"}],"stateMutability":"view"},{"type":"function","name":"owner","inputs":[],"outputs":[{"name":"","type":"address","internalType":"address"}],"stateMutability":"view"},{"type":"function","name":"registerOperator","inputs":[{"name":"operatorSignature","type":"bytes","internalType":"bytes"}],"outputs":[],"stateMutability":"payable"},{"type":"function","name":"registeredOperators","inputs":[{"name":"","type":"uint256","internalType":"uint256"}],"outputs":[{"name":"","type":"address","internalType":"address"}],"stateMutability":"view"},{"type":"function","name":"renounceOwnership","inputs":[],"outputs":[],"stateMutability":"nonpayable"},{"type":"function","name":"respondToTask","inputs":[{"name":"taskIndex","type":"uint32","internalType":"uint32"},{"name":"winner","type":"address","internalType":"address"},{"name":"winningBid","type":"uint256","internalType":"uint256"},{"name":"signature","type":"bytes","internalType":"bytes"}],"outputs":[],"stateMutability":"nonpayable"},{"type":"function","name":"rewardPool","inputs":[],"outputs":[{"name":"","type":"uint256","internalType":"uint256"}],"stateMutability":"view"},{"type":"function","name":"slashOperator","inputs":[{"name":"operator","type":"address","internalType":"address"},{"name":"amount","type":"uint256","internalType":"uint256"}],"outputs":[],"stateMutability":"nonpayable"},{"type":"function","name":"taskChallenged","inputs":[{"name":"","type":"uint32","internalType":"uint32"}],"outputs":[{"name":"","type":"bool","internalType":"bool"}],"stateMutability":"view"},{"type":"function","name":"taskResponses","inputs":[{"name":"","type":"uint32","internalType":"uint32"},{"name":"","type":"address","internalType":"address"}],"outputs":[{"name":"operator","type":"address","internalType":"address"},{"name":"auctionId","type":"bytes32","internalType":"bytes32"},{"name":"winner","type":"address","internalType":"address"},{"name":"winningBid","type":"uint256","internalType":"uint256"},{"name":"signature","type":"bytes","internalType":"bytes"},{"name":"timestamp","type":"uint256","internalType":"uint256"}],"stateMutability":"view"},{"type":"function","name":"transferOwnership","inputs":[{"name":"newOwner","type":"address","internalType":"address"}],"outputs":[],"stateMutability":"nonpayable"},{"type":"function","name":"withdraw","inputs":[],"outputs":[],"stateMutability":"nonpayable"},{"type":"event","name":"NewTaskCreated","inputs":[{"name":"taskIndex","type":"uint32","indexed":true,"internalType":"uint32"},{"name":"task","type":"tuple","indexed":false,"internalType":"struct EigenLVRAVSServiceManager.AuctionTask","components":[{"name":"auctionId","type":"bytes32","internalType":"bytes32"},{"name":"poolId","type":"bytes32","internalType":"bytes32"},{"name":"taskCreatedBlock","type":"uint32","internalType":"uint32"},{"name":"deadline","type":"uint256","internalType":"uint256"},{"name":"completed","type":"bool","internalType":"bool"}]}],"anonymous":false},{"type":"event","name":"OperatorDeregistered","inputs":[{"name":"operator","type":"address","indexed":true,"internalType":"address"}],"anonymous":false},{"type":"event","name":"OperatorRegistered","inputs":[{"name":"operator","type":"address","indexed":true,"internalType":"address"},{"name":"stake","type":"uint256","indexed":false,"internalType":"uint256"}],"anonymous":false},{"type":"event","name":"OwnershipTransferred","inputs":[{"name":"previousOwner","type":"address","indexed":true,"internalType":"address"},{"name":"newOwner","type":"address","indexed":true,"internalType":"address"}],"anonymous":false},{"type":"event","name":"RewardsDistributed","inputs":[{"name":"taskIndex","type":"uint32","indexed":true,"internalType":"uint32"},{"name":"totalReward","type":"uint256","indexed":false,"internalType":"uint256"}],"anonymous":false},{"type":"event","name":"StakeSlashed","inputs":[{"name":"operator","type":"address","indexed":true,"internalType":"address"},{"name":"amount","type":"uint256","indexed":false,"internalType":"uint256"}],"anonymous":false},{"type":"event","name":"TaskChallenged","inputs":[{"name":"taskIndex","type":"uint32","indexed":true,"internalType":"uint32"},{"name":"challenger","type":"address","indexed":true,"internalType":"address"}],"anonymous":false},{"type":"event","name":"TaskCompleted","inputs":[{"name":"taskIndex","type":"uint32","indexed":true,"internalType":"uint32"},{"name":"winner","type":"address","indexed":false,"internalType":"address"},{"name":"winningBid","type":"uint256","indexed":false,"internalType":"uint256"}],"anonymous":false},{"type":"event","name":"TaskResponded","inputs":[{"name":"taskIndex","type":"uint32","indexed":true,"internalType":"uint32"},{"name":"operator","type":"address","indexed":true,"internalType":"address"},{"name":"response","type":"tuple","indexed":false,"internalType":"struct EigenLVRAVSServiceManager.TaskResponse","components":[{"name":"operator","type":"address","internalType":"address"},{"name":"auctionId","type":"bytes32","internalType":"bytes32"},{"name":"winner","type":"address","internalType":"address"},{"name":"winningBid","type":"uint256","internalType":"uint256"},{"name":"signature","type":"bytes","internalType":"bytes"},{"name":"timestamp","type":"uint256","internalType":"uint256"}]}],"anonymous":false},{"type":"error","name":"OwnableInvalidOwner","inputs":[{"name":"owner","type":"address","internalType":"address"}]},{"type":"error","name":"OwnableUnauthorizedAccount","inputs":[{"name":"account","type":"address","internalType":"address"}]},{"type":"error","name":"ReentrancyGuardReentrantCall","inputs":[]}],"bytecode":{"object":"0x60a0346100da57601f611e6638819003918201601f19168301916001600160401b038311848410176100de578084926020946040528339810103126100da57516001600160a01b03811681036100da5733156100c7575f8054336001600160a01b0319821681178355604051939290916001600160a01b0316907f8be0079c531659141344cd1fd0a4f28419497f9722a3daafe3b4186f6b6457e09080a360018055608052611d7390816100f3823960805181818161107e015281816112d3015261150b0152f35b631e4fbdf760e01b5f525f60045260245ffd5b5f80fd5b634e487b7160e01b5f52604160045260245ffdfe608080604052600436101561002b575b50361561001a575f80fd5b61002634600a54611c3b565b600a55005b5f905f3560e01c90816308dbbb031461197e5750806309f50cba146119125780631a4a7c61146118f55780631c9856ae146118bd57806320828339146118a65780632c29e7ae146117fa5780632cb223d5146117c55780632d89f6fc146117905780633ccfd60b1461174b57806344cb80871461167557806357342d74146115cf5780635a627dbc14611591578063645aa4261461155757806366666aa91461153a5780636b3aa72e146114f6578063715018a61461149f578063783a7a2d14611484578063815b4d1b146114635780638231b54c14611272578063857dc1901461104a5780638b00ce7c146110265780638da5cb5b14610fff5780639fa38d0114610fa9578063a551c1b814610f65578063c2dc0add1461069b578063c6a5554a146105e7578063d62aad29146105c9578063d90c0ce314610412578063eba79c8514610276578063ec7fbb3114610237578063f2fde38b146101b15763f82d45500361000f57346101ae57806003193601126101ae57602060405160038152f35b80fd5b50346101ae5760203660031901126101ae576101cb6119b2565b6101d3611ce9565b6001600160a01b031680156102235781546001600160a01b03198116821783556001600160a01b03167f8be0079c531659141344cd1fd0a4f28419497f9722a3daafe3b4186f6b6457e08380a380f35b631e4fbdf760e01b82526004829052602482fd5b50346101ae5760203660031901126101ae5760209060ff906040906001600160a01b036102626119b2565b168152600584522054166040519015158152f35b50346101ae5760403660031901126101ae57610290611ce9565b6003600754106103d45760025463ffffffff81169063ffffffff82146103c05763ffffffff60018301169063ffffffff191617600255603c42018042116103c0577f7279332b2f4a0b778531b676dc645918c32e1cbc01c9de6ff19f790d715e81646103b583926020956040519161030783611a46565b600435835260048884016024358152604085019263ffffffff43168452606086019081526080860193858552898652600b8c5260408620928751845551600184015563ffffffff6002840191511663ffffffff19825416179055516003820155019051151560ff80198354169116179055604080518881019061039c8161038e8785611ba5565b03601f198101835282611a62565b5190209186815260038952205560405191829182611ba5565b0390a2604051908152f35b634e487b7160e01b83526011600452602483fd5b60405162461bcd60e51b8152602060048201526016602482015275496e73756666696369656e74206f70657261746f727360501b6044820152606490fd5b5060203660031901126101ae5761042761199f565b67016345785d8a000034106105845763ffffffff16808252600b60205260ff6004604084200154161561054a57808252600960205260ff60408320541661051057808252600b602052600360408320015462093a8081018091116103c05742116104cb57808252600960205260408220805460ff1916600117905533907fb9eca752de3cf587860bd00067853ffd45519029b68708e5b84933e15208e97b8380a380f35b60405162461bcd60e51b815260206004820152601860248201527f4368616c6c656e67652077696e646f77206578706972656400000000000000006044820152606490fd5b60405162461bcd60e51b8152602060048201526012602482015271105b1c9958591e4818da185b1b195b99d95960721b6044820152606490fd5b60405162461bcd60e51b815260206004820152601260248201527115185cdac81b9bdd0818dbdb5c1b195d195960721b6044820152606490fd5b60405162461bcd60e51b815260206004820152601c60248201527f496e73756666696369656e74206368616c6c656e6765207374616b65000000006044820152606490fd5b50346101ae57806003193601126101ae57602060405162093a808152f35b50346101ae5760403660031901126101ae576106016119b2565b6024359061060d611ce9565b60018060a01b031690818352600660205261062e8160408520541015611ca8565b81835260066020526040832080549082820391821161068757916020917f83f5ea8bea7627d95274e94dd7e9e3d7e82cb55feab513ed49e325232dcc61e0935561067a81600a54611c3b565b600a55604051908152a280f35b634e487b7160e01b85526011600452602485fd5b50346101ae5760803660031901126101ae576106b561199f565b6106bd6119c8565b60643567ffffffffffffffff8111610f61576106dd903690600401611be1565b909133855260056020526106f760ff604087205416611c5c565b63ffffffff80600254169416938411610f2757838552600b60205260ff600460408720015416610ee957838552600b60205260036040862001544211610ead57838552600860209081526040808720335f908152925290205460ff16610e7457838552600b6020526040852054916040519361077285611a16565b33855260208501938452604085019260018060a01b031683526060850190604435825267ffffffffffffffff8311610e5c578790604051936107be6020601f19601f8401160186611a62565b8085523681830111610e7057806020928387013784010152608085019182524260a08601908152868852600c60209081526040808a20335f90815292529020865181546001600160a01b039182166001600160a01b031991821617835596516001830155945160028201805491909616961695909517909355516003840155518051600484019167ffffffffffffffff8211610e5c5761085e83546119de565b601f8111610e17575b50602090601f8311600114610db157600594939291899183610da6575b50508160011b915f199060031b1c19161790555b5191015581835260086020526040832060018060a01b0333165f5260205260405f20600160ff19825416179055817f106910acb32a1035268785fd636452fcf658cb0c178ea2d6e4a099f6d62bf5d5604051806108f6339582611b48565b0390a381829183918485600754905b818110610b9457505060038210159182610b5d575b5050610924578380f35b808452600b60209081526040808620600401805460ff1916600117905580516001600160a01b038616928101928352908101849052610966816060810161038e565b51902081855260046020526040852055807fc815840ac035db87ae38235aaaa14f907ea2d2818de9305b7cb45a5b8dc38684604051806109bc86888360209093929193604081019460018060a01b031681520152565b0390a26103e882028281046103e81483151715610687576127109004926007548015610b4957840492855b600754811015610b115786856109fc83611c0f565b60018060a01b0391549060031b1c1686835260086020526040832060018060a01b0382165f5260205260ff60405f205416610a3d575b5050506001016109e7565b868352600c6020526040832060018060a01b0382165f5260205260405f2085604051610a6881611a16565b82546001600160a01b03908116825260018401546020830152600284015416604082019081526003840154606083019081529390919060a090600590610ab060048201611a84565b60808501520154910152516001600160a01b038981169116149182610b06575b505015610a32578280928192828215610afd575bf115610af25786855f610a32565b6040513d88823e3d90fd5b506108fc610ae4565b51149050855f610ad0565b505050917fc56d73bb8b4157087ba179df76c0ad8563818a3e2071d048b5aedfc37e22addb9150602090604051908152a25f80808380f35b634e487b7160e01b86526012600452602486fd5b8091925060011b9080820460021490151715610b80576003900411155f8061091a565b634e487b7160e01b86526011600452602486fd5b610b9d81611c0f565b60018060a01b0391549060031b1c1685895260086020526040892060018060a01b0382165f5260205260ff60405f205416610bdc575b50600101610905565b93610be690611d2f565b93858952600c602052604089209060018060a01b03165f5260205260405f20604051610c1181611a16565b81546001600160a01b03908116825260018301546020830152600283015416604082019081526003830154606083019081529290919060a090600590610c5960048201611a84565b60808501520154910152898a5b858110610c9c5750858111610c7d575b5050610bd3565b905191516001600160a01b039092169850909650925060015f80610c76565b610ca581611c0f565b60018060a01b0391549060031b1c16898d52600860205260408d2060018060a01b0382165f5260205260ff60405f205416610ce4575b50600101610c66565b898d52600c60205260408d209060018060a01b03165f5260205260405f20604051610d0e81611a16565b81546001600160a01b03908116825260018301546020830152600283015416604082019081526003830154606083019081529290919060a090600590610d5660048201611a84565b60808501520154910152845190516001600160a01b039081169116149081610d99575b50610d85575b5f610cdb565b90610d91600191611d2f565b919050610d7f565b905084519051145f610d79565b015190505f80610884565b8389528189209190601f1984168a5b818110610dff575091600193918560059897969410610de7575b505050811b019055610898565b01515f1960f88460031b161c191690555f8080610dda565b92936020600181928786015181550195019301610dc0565b83895260208920601f840160051c81019160208510610e52575b601f0160051c01905b818110610e475750610867565b898155600101610e3a565b9091508190610e31565b634e487b7160e01b88526041600452602488fd5b8280fd5b60405162461bcd60e51b8152602060048201526011602482015270105b1c9958591e481c995cdc1bdb991959607a1b6044820152606490fd5b60405162461bcd60e51b815260206004820152601460248201527315185cdac8191958591b1a5b99481c185cdcd95960621b6044820152606490fd5b60405162461bcd60e51b815260206004820152601660248201527515185cdac8185b1c9958591e4818dbdb5c1b195d195960521b6044820152606490fd5b60405162461bcd60e51b8152602060048201526012602482015271092dcecc2d8d2c840e8c2e6d640d2dcc8caf60731b6044820152606490fd5b8380fd5b50346101ae5760203660031901126101ae57600435906007548210156101ae576020610f9083611c0f565b905460405160039290921b1c6001600160a01b03168152f35b50346101ae5760403660031901126101ae576040610fc561199f565b9163ffffffff610fd36119c8565b931681526008602052209060018060a01b03165f52602052602060ff60405f2054166040519015158152f35b50346101ae57806003193601126101ae57546040516001600160a01b039091168152602090f35b50346101ae57806003193601126101ae57602063ffffffff60025416604051908152f35b50346101ae57806003193601126101ae57338152600560205261107360ff604083205416611c5c565b61107b611d0f565b807f00000000000000000000000000000000000000000000000000000000000000006001600160a01b0316803b1561126f578180916024604051809481936351b27a6d60e11b83523360048401525af180156112645761124f575b505033815260066020526040812054338252600660205281604081205533825260056020526040822060ff198154169055815b6007548381831015611242575061111f82611c0f565b905460039190911b1c6001600160a01b031633146111405750600101611109565b5f19810190811161122e579061117361115b61119793611c0f565b905460039190911b1c6001600160a01b031691611c0f565b81546001600160a01b0393841660039290921b91821b9390911b1916919091179055565b600754801561121a578280809381935f19016111b281611c0f565b81549060018060a01b039060031b1b191690556007555b818115611211575b3390f11561120557337f6dd4ca66565fb3dee8076c654634c6c4ad949022d809d0394308617d6791218d8280a26001805580f35b604051903d90823e3d90fd5b506108fc6111d1565b634e487b7160e01b83526031600452602483fd5b634e487b7160e01b84526011600452602484fd5b80938193508192506111c9565b8161125991611a62565b6101ae57805f6110d6565b6040513d84823e3d90fd5b50fd5b5060203660031901126114255760043567ffffffffffffffff81116114255761129f903690600401611be1565b906112a8611d0f565b335f52600560205260ff60405f205416611429576112d16801bc16d674ec800000341015611ca8565b7f00000000000000000000000000000000000000000000000000000000000000006001600160a01b031690813b15611425575f91839183606460405180978196829563023c8f8d60e01b845233600485015260406024850152816044850152848401378181018301849052601f01601f191681010301925af1801561141a57611407575b50338152600560205260408120600160ff198254161790553381526006602052346040822055600754680100000000000000008110156113f3576113a28160016113c09301600755611c0f565b81546001600160a01b0360039290921b91821b19163390911b179055565b6040513481527fbc11617e575d658c74e921c8df22f8e48566072fa78145a6cfe18420bf8d0c4e60203392a26001805580f35b634e487b7160e01b82526041600452602482fd5b61141391505f90611a62565b5f80611355565b6040513d5f823e3d90fd5b5f80fd5b60405162461bcd60e51b8152602060048201526012602482015271105b1c9958591e481c9959da5cdd195c995960721b6044820152606490fd5b34611425575f36600319011261142557602060036007541015604051908152f35b34611425575f366003190112611425576020604051603c8152f35b34611425575f366003190112611425576114b7611ce9565b5f80546001600160a01b0319811682556001600160a01b03167f8be0079c531659141344cd1fd0a4f28419497f9722a3daafe3b4186f6b6457e08280a3005b34611425575f366003190112611425576040517f00000000000000000000000000000000000000000000000000000000000000006001600160a01b03168152602090f35b34611425575f366003190112611425576020600a54604051908152f35b346114255760203660031901126114255763ffffffff61157561199f565b165f526009602052602060ff60405f2054166040519015158152f35b5f36600319011261142557335f5260056020526115b460ff60405f205416611c5c565b335f52600660205260405f206115cb348254611c3b565b9055005b346114255760203660031901126114255763ffffffff6115ed61199f565b5f60806040516115fc81611a46565b8281528260208201528260408201528260608201520152165f52600b60205261167160405f2060ff60046040519261163384611a46565b805484526001810154602085015263ffffffff6002820154166040850152600381015460608501520154161515608082015260405191829182611ba5565b0390f35b346114255760403660031901126114255761168e61199f565b63ffffffff61169b6119c8565b915f60a06040516116ab81611a16565b828152826020820152826040820152826060820152606060808201520152165f52600c60205260405f209060018060a01b03165f5260205261167160405f206005604051916116f983611a16565b80546001600160a01b0390811684526001820154602085015260028201541660408401526003810154606084015261173360048201611a84565b6080840152015460a082015260405191829182611b48565b34611425575f36600319011261142557611763611ce9565b5f805481908190819047906001600160a01b0316828215611787575bf11561141a57005b506108fc61177f565b346114255760203660031901126114255763ffffffff6117ae61199f565b165f526003602052602060405f2054604051908152f35b346114255760203660031901126114255763ffffffff6117e361199f565b165f526004602052602060405f2054604051908152f35b346114255760403660031901126114255761181361199f565b63ffffffff6118206119c8565b91165f908152600c602090815260408083206001600160a01b0394851684529091529020805460018201546002830154600384015491949283169392169161189c91600561187060048401611a84565b92015493604051968796875260208701526040860152606085015260c0608085015260c0840190611b24565b9060a08301520390f35b5f3660031901126114255761002634600a54611c3b565b34611425576020366003190112611425576001600160a01b036118de6119b2565b165f526006602052602060405f2054604051908152f35b34611425575f366003190112611425576020600754604051908152f35b346114255760203660031901126114255763ffffffff61193061199f565b165f52600b60205260a060405f2080549060018101549063ffffffff60028201541660ff60046003840154930154169260405194855260208501526040840152606083015215156080820152f35b34611425575f36600319011261142557806801bc16d674ec80000060209252f35b6004359063ffffffff8216820361142557565b600435906001600160a01b038216820361142557565b602435906001600160a01b038216820361142557565b90600182811c92168015611a0c575b60208310146119f857565b634e487b7160e01b5f52602260045260245ffd5b91607f16916119ed565b60c0810190811067ffffffffffffffff821117611a3257604052565b634e487b7160e01b5f52604160045260245ffd5b60a0810190811067ffffffffffffffff821117611a3257604052565b90601f8019910116810190811067ffffffffffffffff821117611a3257604052565b9060405191825f825492611a97846119de565b8084529360018116908115611b025750600114611abe575b50611abc92500383611a62565b565b90505f9291925260205f20905f915b818310611ae6575050906020611abc928201015f611aaf565b6020919350806001915483858901015201910190918492611acd565b905060209250611abc94915060ff191682840152151560051b8201015f611aaf565b805180835260209291819084018484015e5f828201840152601f01601f1916010190565b6020815260018060a01b0382511660208201526020820151604082015260018060a01b0360408301511660608201526060820151608082015260c060a0611b9c6080850151838386015260e0850190611b24565b93015191015290565b91909160808060a0830194805184526020810151602085015263ffffffff60408201511660408501526060810151606085015201511515910152565b9181601f840112156114255782359167ffffffffffffffff8311611425576020838186019501011161142557565b600754811015611c275760075f5260205f2001905f90565b634e487b7160e01b5f52603260045260245ffd5b91908201809211611c4857565b634e487b7160e01b5f52601160045260245ffd5b15611c6357565b60405162461bcd60e51b815260206004820152601960248201527f4e6f7420612072656769737465726564206f70657261746f72000000000000006044820152606490fd5b15611caf57565b60405162461bcd60e51b8152602060048201526012602482015271496e73756666696369656e74207374616b6560701b6044820152606490fd5b5f546001600160a01b03163303611cfc57565b63118cdaa760e01b5f523360045260245ffd5b600260015414611d20576002600155565b633ee5aeb560e01b5f5260045ffd5b5f198114611c48576001019056fea26469706673582212202fd7694ba143b5c8b96e2448dbf021590f7d7532d8bf9d175997de8198c0443264736f6c634300081a0033","linkReferences":{}},"methodIdentifiers":{"CHALLENGE_WINDOW()":"d62aad29","MINIMUM_QUORUM_SIZE()":"f82d4550","MINIMUM_STAKE()":"08dbbb03","TASK_RESPONSE_WINDOW()":"783a7a2d","addStake()":"5a627dbc","allTaskHashes(uint32)":"2d89f6fc","allTaskResponses(uint32)":"2cb223d5","auctionTasks(uint32)":"09f50cba","avsDirectory()":"6b3aa72e","challengeTask(uint32)":"d90c0ce3","createAuctionTask(bytes32,bytes32)":"eba79c85","deregisterOperator()":"857dc190","fundRewardPool()":"20828339","getOperatorCount()":"1a4a7c61","getTask(uint32)":"57342d74","getTaskResponse(uint32,address)":"44cb8087","hasQuorum()":"815b4d1b","latestTaskNum()":"8b00ce7c","operatorRegistered(address)":"ec7fbb31","operatorResponded(uint32,address)":"9fa38d01","operatorStakes(address)":"1c9856ae","owner()":"8da5cb5b","registerOperator(bytes)":"8231b54c","registeredOperators(uint256)":"a551c1b8","renounceOwnership()":"715018a6","respondToTask(uint32,address,uint256,bytes)":"c2dc0add","rewardPool()":"66666aa9","slashOperator(address,uint256)":"c6a5554a","taskChallenged(uint32)":"645aa426","taskResponses(uint32,address)":"2c29e7ae","transferOwnership(address)":"f2fde38b","withdraw()":"3ccfd60b"},"id":57}