{"abi":[{"type":"constructor","inputs":[{"name":"_poolManager","type":"address","internalType":"contract IPoolManager"},{"name":"_avsDirectory","type":"address","internalType":"contract IAVSDirectory"},{"name":"_priceOracle","type":"address","internalType":"contract IPriceOracle"},{"name":"_feeRecipient","type":"address","internalType":"address"},{"name":"_lvrThreshold","type":"uint256","internalType":"uint256"}],"stateMutability":"nonpayable"},{"type":"receive","stateMutability":"payable"},{"type":"function","name":"AVS_REWARD_PERCENTAGE","inputs":[],"outputs":[{"name":"","type":"uint256","internalType":"uint256"}],"stateMutability":"view"},{"type":"function","name":"BASIS_POINTS","inputs":[],"outputs":[{"name":"","type":"uint256","internalType":"uint256"}],"stateMutability":"view"},{"type":"function","name":"GAS_COMPENSATION_PERCENTAGE","inputs":[],"outputs":[{"name":"","type":"uint256","internalType":"uint256"}],"stateMutability":"view"},{"type":"function","name":"LP_REWARD_PERCENTAGE","inputs":[],"outputs":[{"name":"","type":"uint256","internalType":"uint256"}],"stateMutability":"view"},{"type":"function","name":"MAX_AUCTION_DURATION","inputs":[],"outputs":[{"name":"","type":"uint256","internalType":"uint256"}],"stateMutability":"view"},{"type":"function","name":"MIN_BID","inputs":[],"outputs":[{"name":"","type":"uint256","internalType":"uint256"}],"stateMutability":"view"},{"type":"function","name":"PROTOCOL_FEE_PERCENTAGE","inputs":[],"outputs":[{"name":"","type":"uint256","internalType":"uint256"}],"stateMutability":"view"},{"type":"function","name":"activeAuctions","inputs":[{"name":"","type":"bytes32","internalType":"PoolId"}],"outputs":[{"name":"","type":"bytes32","internalType":"bytes32"}],"stateMutability":"view"},{"type":"function","name":"afterAddLiquidity","inputs":[{"name":"sender","type":"address","internalType":"address"},{"name":"key","type":"tuple","internalType":"struct PoolKey","components":[{"name":"currency0","type":"address","internalType":"Currency"},{"name":"currency1","type":"address","internalType":"Currency"},{"name":"fee","type":"uint24","internalType":"uint24"},{"name":"tickSpacing","type":"int24","internalType":"int24"},{"name":"hooks","type":"address","internalType":"contract IHooks"}]},{"name":"params","type":"tuple","internalType":"struct ModifyLiquidityParams","components":[{"name":"tickLower","type":"int24","internalType":"int24"},{"name":"tickUpper","type":"int24","internalType":"int24"},{"name":"liquidityDelta","type":"int256","internalType":"int256"},{"name":"salt","type":"bytes32","internalType":"bytes32"}]},{"name":"delta","type":"int256","internalType":"BalanceDelta"},{"name":"feesAccrued","type":"int256","internalType":"BalanceDelta"},{"name":"hookData","type":"bytes","internalType":"bytes"}],"outputs":[{"name":"","type":"bytes4","internalType":"bytes4"},{"name":"","type":"int256","internalType":"BalanceDelta"}],"stateMutability":"nonpayable"},{"type":"function","name":"afterDonate","inputs":[{"name":"sender","type":"address","internalType":"address"},{"name":"key","type":"tuple","internalType":"struct PoolKey","components":[{"name":"currency0","type":"address","internalType":"Currency"},{"name":"currency1","type":"address","internalType":"Currency"},{"name":"fee","type":"uint24","internalType":"uint24"},{"name":"tickSpacing","type":"int24","internalType":"int24"},{"name":"hooks","type":"address","internalType":"contract IHooks"}]},{"name":"amount0","type":"uint256","internalType":"uint256"},{"name":"amount1","type":"uint256","internalType":"uint256"},{"name":"hookData","type":"bytes","internalType":"bytes"}],"outputs":[{"name":"","type":"bytes4","internalType":"bytes4"}],"stateMutability":"nonpayable"},{"type":"function","name":"afterInitialize","inputs":[{"name":"sender","type":"address","internalType":"address"},{"name":"key","type":"tuple","internalType":"struct PoolKey","components":[{"name":"currency0","type":"address","internalType":"Currency"},{"name":"currency1","type":"address","internalType":"Currency"},{"name":"fee","type":"uint24","internalType":"uint24"},{"name":"tickSpacing","type":"int24","internalType":"int24"},{"name":"hooks","type":"address","internalType":"contract IHooks"}]},{"name":"sqrtPriceX96","type":"uint160","internalType":"uint160"},{"name":"tick","type":"int24","internalType":"int24"}],"outputs":[{"name":"","type":"bytes4","internalType":"bytes4"}],"stateMutability":"nonpayable"},{"type":"function","name":"afterRemoveLiquidity","inputs":[{"name":"sender","type":"address","internalType":"address"},{"name":"key","type":"tuple","internalType":"struct PoolKey","components":[{"name":"currency0","type":"address","internalType":"Currency"},{"name":"currency1","type":"address","internalType":"Currency"},{"name":"fee","type":"uint24","internalType":"uint24"},{"name":"tickSpacing","type":"int24","internalType":"int24"},{"name":"hooks","type":"address","internalType":"contract IHooks"}]},{"name":"params","type":"tuple","internalType":"struct ModifyLiquidityParams","components":[{"name":"tickLower","type":"int24","internalType":"int24"},{"name":"tickUpper","type":"int24","internalType":"int24"},{"name":"liquidityDelta","type":"int256","internalType":"int256"},{"name":"salt","type":"bytes32","internalType":"bytes32"}]},{"name":"delta","type":"int256","internalType":"BalanceDelta"},{"name":"feesAccrued","type":"int256","internalType":"BalanceDelta"},{"name":"hookData","type":"bytes","internalType":"bytes"}],"outputs":[{"name":"","type":"bytes4","internalType":"bytes4"},{"name":"","type":"int256","internalType":"BalanceDelta"}],"stateMutability":"nonpayable"},{"type":"function","name":"afterSwap","inputs":[{"name":"sender","type":"address","internalType":"address"},{"name":"key","type":"tuple","internalType":"struct PoolKey","components":[{"name":"currency0","type":"address","internalType":"Currency"},{"name":"currency1","type":"address","internalType":"Currency"},{"name":"fee","type":"uint24","internalType":"uint24"},{"name":"tickSpacing","type":"int24","internalType":"int24"},{"name":"hooks","type":"address","internalType":"contract IHooks"}]},{"name":"params","type":"tuple","internalType":"struct SwapParams","components":[{"name":"zeroForOne","type":"bool","internalType":"bool"},{"name":"amountSpecified","type":"int256","internalType":"int256"},{"name":"sqrtPriceLimitX96","type":"uint160","internalType":"uint160"}]},{"name":"delta","type":"int256","internalType":"BalanceDelta"},{"name":"hookData","type":"bytes","internalType":"bytes"}],"outputs":[{"name":"","type":"bytes4","internalType":"bytes4"},{"name":"","type":"int128","internalType":"int128"}],"stateMutability":"nonpayable"},{"type":"function","name":"auctions","inputs":[{"name":"","type":"bytes32","internalType":"bytes32"}],"outputs":[{"name":"poolId","type":"bytes32","internalType":"PoolId"},{"name":"startTime","type":"uint256","internalType":"uint256"},{"name":"duration","type":"uint256","internalType":"uint256"},{"name":"isActive","type":"bool","internalType":"bool"},{"name":"isComplete","type":"bool","internalType":"bool"},{"name":"winner","type":"address","internalType":"address"},{"name":"winningBid","type":"uint256","internalType":"uint256"},{"name":"totalBids","type":"uint256","internalType":"uint256"}],"stateMutability":"view"},{"type":"function","name":"authorizedOperators","inputs":[{"name":"","type":"address","internalType":"address"}],"outputs":[{"name":"","type":"bool","internalType":"bool"}],"stateMutability":"view"},{"type":"function","name":"avsDirectory","inputs":[],"outputs":[{"name":"","type":"address","internalType":"contract IAVSDirectory"}],"stateMutability":"view"},{"type":"function","name":"beforeAddLiquidity","inputs":[{"name":"sender","type":"address","internalType":"address"},{"name":"key","type":"tuple","internalType":"struct PoolKey","components":[{"name":"currency0","type":"address","internalType":"Currency"},{"name":"currency1","type":"address","internalType":"Currency"},{"name":"fee","type":"uint24","internalType":"uint24"},{"name":"tickSpacing","type":"int24","internalType":"int24"},{"name":"hooks","type":"address","internalType":"contract IHooks"}]},{"name":"params","type":"tuple","internalType":"struct ModifyLiquidityParams","components":[{"name":"tickLower","type":"int24","internalType":"int24"},{"name":"tickUpper","type":"int24","internalType":"int24"},{"name":"liquidityDelta","type":"int256","internalType":"int256"},{"name":"salt","type":"bytes32","internalType":"bytes32"}]},{"name":"hookData","type":"bytes","internalType":"bytes"}],"outputs":[{"name":"","type":"bytes4","internalType":"bytes4"}],"stateMutability":"nonpayable"},{"type":"function","name":"beforeDonate","inputs":[{"name":"sender","type":"address","internalType":"address"},{"name":"key","type":"tuple","internalType":"struct PoolKey","components":[{"name":"currency0","type":"address","internalType":"Currency"},{"name":"currency1","type":"address","internalType":"Currency"},{"name":"fee","type":"uint24","internalType":"uint24"},{"name":"tickSpacing","type":"int24","internalType":"int24"},{"name":"hooks","type":"address","internalType":"contract IHooks"}]},{"name":"amount0","type":"uint256","internalType":"uint256"},{"name":"amount1","type":"uint256","internalType":"uint256"},{"name":"hookData","type":"bytes","internalType":"bytes"}],"outputs":[{"name":"","type":"bytes4","internalType":"bytes4"}],"stateMutability":"nonpayable"},{"type":"function","name":"beforeInitialize","inputs":[{"name":"sender","type":"address","internalType":"address"},{"name":"key","type":"tuple","internalType":"struct PoolKey","components":[{"name":"currency0","type":"address","internalType":"Currency"},{"name":"currency1","type":"address","internalType":"Currency"},{"name":"fee","type":"uint24","internalType":"uint24"},{"name":"tickSpacing","type":"int24","internalType":"int24"},{"name":"hooks","type":"address","internalType":"contract IHooks"}]},{"name":"sqrtPriceX96","type":"uint160","internalType":"uint160"}],"outputs":[{"name":"","type":"bytes4","internalType":"bytes4"}],"stateMutability":"nonpayable"},{"type":"function","name":"beforeRemoveLiquidity","inputs":[{"name":"sender","type":"address","internalType":"address"},{"name":"key","type":"tuple","internalType":"struct PoolKey","components":[{"name":"currency0","type":"address","internalType":"Currency"},{"name":"currency1","type":"address","internalType":"Currency"},{"name":"fee","type":"uint24","internalType":"uint24"},{"name":"tickSpacing","type":"int24","internalType":"int24"},{"name":"hooks","type":"address","internalType":"contract IHooks"}]},{"name":"params","type":"tuple","internalType":"struct ModifyLiquidityParams","components":[{"name":"tickLower","type":"int24","internalType":"int24"},{"name":"tickUpper","type":"int24","internalType":"int24"},{"name":"liquidityDelta","type":"int256","internalType":"int256"},{"name":"salt","type":"bytes32","internalType":"bytes32"}]},{"name":"hookData","type":"bytes","internalType":"bytes"}],"outputs":[{"name":"","type":"bytes4","internalType":"bytes4"}],"stateMutability":"nonpayable"},{"type":"function","name":"beforeSwap","inputs":[{"name":"sender","type":"address","internalType":"address"},{"name":"key","type":"tuple","internalType":"struct PoolKey","components":[{"name":"currency0","type":"address","internalType":"Currency"},{"name":"currency1","type":"address","internalType":"Currency"},{"name":"fee","type":"uint24","internalType":"uint24"},{"name":"tickSpacing","type":"int24","internalType":"int24"},{"name":"hooks","type":"address","internalType":"contract IHooks"}]},{"name":"params","type":"tuple","internalType":"struct SwapParams","components":[{"name":"zeroForOne","type":"bool","internalType":"bool"},{"name":"amountSpecified","type":"int256","internalType":"int256"},{"name":"sqrtPriceLimitX96","type":"uint160","internalType":"uint160"}]},{"name":"hookData","type":"bytes","internalType":"bytes"}],"outputs":[{"name":"","type":"bytes4","internalType":"bytes4"},{"name":"","type":"int256","internalType":"BeforeSwapDelta"},{"name":"","type":"uint24","internalType":"uint24"}],"stateMutability":"nonpayable"},{"type":"function","name":"claimRewards","inputs":[{"name":"poolId","type":"bytes32","internalType":"PoolId"}],"outputs":[],"stateMutability":"nonpayable"},{"type":"function","name":"feeRecipient","inputs":[],"outputs":[{"name":"","type":"address","internalType":"address"}],"stateMutability":"view"},{"type":"function","name":"getHookPermissions","inputs":[],"outputs":[{"name":"","type":"tuple","internalType":"struct Hooks.Permissions","components":[{"name":"beforeInitialize","type":"bool","internalType":"bool"},{"name":"afterInitialize","type":"bool","internalType":"bool"},{"name":"beforeAddLiquidity","type":"bool","internalType":"bool"},{"name":"afterAddLiquidity","type":"bool","internalType":"bool"},{"name":"beforeRemoveLiquidity","type":"bool","internalType":"bool"},{"name":"afterRemoveLiquidity","type":"bool","internalType":"bool"},{"name":"beforeSwap","type":"bool","internalType":"bool"},{"name":"afterSwap","type":"bool","internalType":"bool"},{"name":"beforeDonate","type":"bool","internalType":"bool"},{"name":"afterDonate","type":"bool","internalType":"bool"},{"name":"beforeSwapReturnDelta","type":"bool","internalType":"bool"},{"name":"afterSwapReturnDelta","type":"bool","internalType":"bool"},{"name":"afterAddLiquidityReturnDelta","type":"bool","internalType":"bool"},{"name":"afterRemoveLiquidityReturnDelta","type":"bool","internalType":"bool"}]}],"stateMutability":"pure"},{"type":"function","name":"lpLiquidity","inputs":[{"name":"","type":"bytes32","internalType":"PoolId"},{"name":"","type":"address","internalType":"address"}],"outputs":[{"name":"","type":"uint256","internalType":"uint256"}],"stateMutability":"view"},{"type":"function","name":"lpRewards","inputs":[{"name":"","type":"bytes32","internalType":"PoolId"},{"name":"","type":"address","internalType":"address"}],"outputs":[{"name":"","type":"uint256","internalType":"uint256"}],"stateMutability":"view"},{"type":"function","name":"lvrThreshold","inputs":[],"outputs":[{"name":"","type":"uint256","internalType":"uint256"}],"stateMutability":"view"},{"type":"function","name":"mockPoolPrices","inputs":[{"name":"","type":"bytes32","internalType":"bytes32"}],"outputs":[{"name":"","type":"uint256","internalType":"uint256"}],"stateMutability":"view"},{"type":"function","name":"owner","inputs":[],"outputs":[{"name":"","type":"address","internalType":"address"}],"stateMutability":"view"},{"type":"function","name":"pause","inputs":[],"outputs":[],"stateMutability":"nonpayable"},{"type":"function","name":"paused","inputs":[],"outputs":[{"name":"","type":"bool","internalType":"bool"}],"stateMutability":"view"},{"type":"function","name":"poolManager","inputs":[],"outputs":[{"name":"","type":"address","internalType":"contract IPoolManager"}],"stateMutability":"view"},{"type":"function","name":"poolRewards","inputs":[{"name":"","type":"bytes32","internalType":"PoolId"}],"outputs":[{"name":"","type":"uint256","internalType":"uint256"}],"stateMutability":"view"},{"type":"function","name":"priceOracle","inputs":[],"outputs":[{"name":"","type":"address","internalType":"contract IPriceOracle"}],"stateMutability":"view"},{"type":"function","name":"renounceOwnership","inputs":[],"outputs":[],"stateMutability":"nonpayable"},{"type":"function","name":"setFeeRecipient","inputs":[{"name":"newFeeRecipient","type":"address","internalType":"address"}],"outputs":[],"stateMutability":"nonpayable"},{"type":"function","name":"setLVRThreshold","inputs":[{"name":"newThreshold","type":"uint256","internalType":"uint256"}],"outputs":[],"stateMutability":"nonpayable"},{"type":"function","name":"setMockPoolPrice","inputs":[{"name":"key","type":"tuple","internalType":"struct PoolKey","components":[{"name":"currency0","type":"address","internalType":"Currency"},{"name":"currency1","type":"address","internalType":"Currency"},{"name":"fee","type":"uint24","internalType":"uint24"},{"name":"tickSpacing","type":"int24","internalType":"int24"},{"name":"hooks","type":"address","internalType":"contract IHooks"}]},{"name":"price","type":"uint256","internalType":"uint256"}],"outputs":[],"stateMutability":"nonpayable"},{"type":"function","name":"setOperatorAuthorization","inputs":[{"name":"operator","type":"address","internalType":"address"},{"name":"authorized","type":"bool","internalType":"bool"}],"outputs":[],"stateMutability":"nonpayable"},{"type":"function","name":"submitAuctionResult","inputs":[{"name":"auctionId","type":"bytes32","internalType":"bytes32"},{"name":"winner","type":"address","internalType":"address"},{"name":"winningBid","type":"uint256","internalType":"uint256"}],"outputs":[],"stateMutability":"nonpayable"},{"type":"function","name":"testAfterSwap","inputs":[{"name":"sender","type":"address","internalType":"address"},{"name":"key","type":"tuple","internalType":"struct PoolKey","components":[{"name":"currency0","type":"address","internalType":"Currency"},{"name":"currency1","type":"address","internalType":"Currency"},{"name":"fee","type":"uint24","internalType":"uint24"},{"name":"tickSpacing","type":"int24","internalType":"int24"},{"name":"hooks","type":"address","internalType":"contract IHooks"}]},{"name":"params","type":"tuple","internalType":"struct SwapParams","components":[{"name":"zeroForOne","type":"bool","internalType":"bool"},{"name":"amountSpecified","type":"int256","internalType":"int256"},{"name":"sqrtPriceLimitX96","type":"uint160","internalType":"uint160"}]},{"name":"delta","type":"int256","internalType":"BalanceDelta"},{"name":"hookData","type":"bytes","internalType":"bytes"}],"outputs":[{"name":"","type":"bytes4","internalType":"bytes4"},{"name":"","type":"int128","internalType":"int128"}],"stateMutability":"nonpayable"},{"type":"function","name":"testBeforeAddLiquidity","inputs":[{"name":"sender","type":"address","internalType":"address"},{"name":"key","type":"tuple","internalType":"struct PoolKey","components":[{"name":"currency0","type":"address","internalType":"Currency"},{"name":"currency1","type":"address","internalType":"Currency"},{"name":"fee","type":"uint24","internalType":"uint24"},{"name":"tickSpacing","type":"int24","internalType":"int24"},{"name":"hooks","type":"address","internalType":"contract IHooks"}]},{"name":"params","type":"tuple","internalType":"struct ModifyLiquidityParams","components":[{"name":"tickLower","type":"int24","internalType":"int24"},{"name":"tickUpper","type":"int24","internalType":"int24"},{"name":"liquidityDelta","type":"int256","internalType":"int256"},{"name":"salt","type":"bytes32","internalType":"bytes32"}]},{"name":"hookData","type":"bytes","internalType":"bytes"}],"outputs":[{"name":"","type":"bytes4","internalType":"bytes4"}],"stateMutability":"nonpayable"},{"type":"function","name":"testBeforeRemoveLiquidity","inputs":[{"name":"sender","type":"address","internalType":"address"},{"name":"key","type":"tuple","internalType":"struct PoolKey","components":[{"name":"currency0","type":"address","internalType":"Currency"},{"name":"currency1","type":"address","internalType":"Currency"},{"name":"fee","type":"uint24","internalType":"uint24"},{"name":"tickSpacing","type":"int24","internalType":"int24"},{"name":"hooks","type":"address","internalType":"contract IHooks"}]},{"name":"params","type":"tuple","internalType":"struct ModifyLiquidityParams","components":[{"name":"tickLower","type":"int24","internalType":"int24"},{"name":"tickUpper","type":"int24","internalType":"int24"},{"name":"liquidityDelta","type":"int256","internalType":"int256"},{"name":"salt","type":"bytes32","internalType":"bytes32"}]},{"name":"hookData","type":"bytes","internalType":"bytes"}],"outputs":[{"name":"","type":"bytes4","internalType":"bytes4"}],"stateMutability":"nonpayable"},{"type":"function","name":"testBeforeSwap","inputs":[{"name":"sender","type":"address","internalType":"address"},{"name":"key","type":"tuple","internalType":"struct PoolKey","components":[{"name":"currency0","type":"address","internalType":"Currency"},{"name":"currency1","type":"address","internalType":"Currency"},{"name":"fee","type":"uint24","internalType":"uint24"},{"name":"tickSpacing","type":"int24","internalType":"int24"},{"name":"hooks","type":"address","internalType":"contract IHooks"}]},{"name":"params","type":"tuple","internalType":"struct SwapParams","components":[{"name":"zeroForOne","type":"bool","internalType":"bool"},{"name":"amountSpecified","type":"int256","internalType":"int256"},{"name":"sqrtPriceLimitX96","type":"uint160","internalType":"uint160"}]},{"name":"hookData","type":"bytes","internalType":"bytes"}],"outputs":[{"name":"","type":"bytes4","internalType":"bytes4"},{"name":"","type":"int256","internalType":"BeforeSwapDelta"},{"name":"","type":"uint24","internalType":"uint24"}],"stateMutability":"nonpayable"},{"type":"function","name":"totalLiquidity","inputs":[{"name":"","type":"bytes32","internalType":"PoolId"}],"outputs":[{"name":"","type":"uint256","internalType":"uint256"}],"stateMutability":"view"},{"type":"function","name":"transferOwnership","inputs":[{"name":"newOwner","type":"address","internalType":"address"}],"outputs":[],"stateMutability":"nonpayable"},{"type":"function","name":"unpause","inputs":[],"outputs":[],"stateMutability":"nonpayable"},{"type":"event","name":"AuctionEnded","inputs":[{"name":"auctionId","type":"bytes32","indexed":true,"internalType":"bytes32"},{"name":"poolId","type":"bytes32","indexed":true,"internalType":"PoolId"},{"name":"winner","type":"address","indexed":true,"internalType":"address"},{"name":"winningBid","type":"uint256","indexed":false,"internalType":"uint256"}],"anonymous":false},{"type":"event","name":"AuctionStarted","inputs":[{"name":"auctionId","type":"bytes32","indexed":true,"internalType":"bytes32"},{"name":"poolId","type":"bytes32","indexed":true,"internalType":"PoolId"},{"name":"startTime","type":"uint256","indexed":false,"internalType":"uint256"},{"name":"duration","type":"uint256","indexed":false,"internalType":"uint256"}],"anonymous":false},{"type":"event","name":"LVRThresholdUpdated","inputs":[{"name":"oldThreshold","type":"uint256","indexed":false,"internalType":"uint256"},{"name":"newThreshold","type":"uint256","indexed":false,"internalType":"uint256"}],"anonymous":false},{"type":"event","name":"MEVDistributed","inputs":[{"name":"poolId","type":"bytes32","indexed":true,"internalType":"PoolId"},{"name":"totalAmount","type":"uint256","indexed":false,"internalType":"uint256"},{"name":"lpAmount","type":"uint256","indexed":false,"internalType":"uint256"},{"name":"avsAmount","type":"uint256","indexed":false,"internalType":"uint256"},{"name":"protocolAmount","type":"uint256","indexed":false,"internalType":"uint256"}],"anonymous":false},{"type":"event","name":"OperatorAuthorized","inputs":[{"name":"operator","type":"address","indexed":true,"internalType":"address"},{"name":"authorized","type":"bool","indexed":false,"internalType":"bool"}],"anonymous":false},{"type":"event","name":"OwnershipTransferred","inputs":[{"name":"previousOwner","type":"address","indexed":true,"internalType":"address"},{"name":"newOwner","type":"address","indexed":true,"internalType":"address"}],"anonymous":false},{"type":"event","name":"Paused","inputs":[{"name":"account","type":"address","indexed":false,"internalType":"address"}],"anonymous":false},{"type":"event","name":"RewardsClaimed","inputs":[{"name":"poolId","type":"bytes32","indexed":true,"internalType":"PoolId"},{"name":"lp","type":"address","indexed":true,"internalType":"address"},{"name":"amount","type":"uint256","indexed":false,"internalType":"uint256"}],"anonymous":false},{"type":"event","name":"Unpaused","inputs":[{"name":"account","type":"address","indexed":false,"internalType":"address"}],"anonymous":false},{"type":"error","name":"EnforcedPause","inputs":[]},{"type":"error","name":"ExpectedPause","inputs":[]},{"type":"error","name":"HookNotImplemented","inputs":[]},{"type":"error","name":"NotPoolManager","inputs":[]},{"type":"error","name":"OwnableInvalidOwner","inputs":[{"name":"owner","type":"address","internalType":"address"}]},{"type":"error","name":"OwnableUnauthorizedAccount","inputs":[{"name":"account","type":"address","internalType":"address"}]},{"type":"error","name":"ReentrancyGuardReentrantCall","inputs":[]}],"bytecode":{"object":"0x60e03461018857601f611f6638819003918201601f19168301916001600160401b0383118484101761018c5780849260a0946040528339810103126101885780516001600160a01b0381168103610188576020820151916001600160a01b03831683036101885760408101516001600160a01b03811681036101885760608201516001600160a01b038116929083900361018857608001519260805260015f553315610175576001546040519490336001600160a01b0382167f8be0079c531659141344cd1fd0a4f28419497f9722a3daafe3b4186f6b6457e05f80a36001600160a81b0319163360ff60a01b19161760015560a05260c052600980546001600160a01b031916919091179055600a55611dc590816101a1823960805181818161041f015281816104e50152818161053701528181610b6401528181610e260152818161120b015281816114a4015261155f015260a051816111a1015260c0518181816106d4015281816113ba0152611d1f0152f35b631e4fbdf760e01b5f525f60045260245ffd5b5f80fd5b634e487b7160e01b5f52604160045260245ffdfe608080604052600436101561001c575b50361561001a575f80fd5b005b5f3560e01c908163181d989b146117f7575080631a8a61f3146117db5780631e52301c146116235780631edbc5be1461159c57806321d0ee701461154a578063259982e51461148f5780632619b98a146113e95780632630c12f146113a55780632ae8c7181461138a5780633f4ba83a1461131c5780633fb351781461130157806344612456146112bd57806346904840146112955780635498304c1461126b57806354b7a8f714611241578063575e24b4146111f55780635c975abb146111d05780636b3aa72e1461118c5780636c2bbe7e14610e135780636fac21871461116c5780636fe7e6eb14611134578063715018a6146110d95780637790ddc614610f7e57806383b83aca14610ef25780638456cb5914610e915780638da5cb5b14610e695780639f063efc14610e13578063a99e408714610d8d578063af4cbe8014610d70578063b26565c514610d54578063b47b2fb114610b4e578063b6a8b0fa1461040c578063c0e8d38414610b24578063c4e833ce146109bc578063c8dc556814610654578063ce69cd2014610633578063d40ea4d914610590578063d5eab68d14610566578063dc4c90d314610522578063dc98354e146104b4578063dcd728b514610470578063e1b4af691461040c578063e1f1c4a7146103f0578063e4d7d6dc146103d4578063e74b981b14610343578063f2fde38b146102bd5763f6afbb631461022d575f61000f565b346102b95761024f60a060406102423661189e565b5050939194903690611b88565b20910135915f831361026e575b60405163259982e560e01b8152602090f35b815f52600760205260405f209060018060a01b03165f5260205260405f20610297838254611aae565b90555f5260066020526102af60405f20918254611aae565b90555f808061025c565b5f80fd5b346102b95760203660031901126102b9576102d6611830565b6102de611c18565b6001600160a01b0316801561033057600180546001600160a01b0319811683179091556001600160a01b03167f8be0079c531659141344cd1fd0a4f28419497f9722a3daafe3b4186f6b6457e05f80a3005b631e4fbdf760e01b5f525f60045260245ffd5b346102b95760203660031901126102b95761035c611830565b610364611c18565b6001600160a01b0316801561038f576bffffffffffffffffffffffff60a01b60095416176009555f80f35b60405162461bcd60e51b815260206004820152601960248201527f456967656e4c56523a20696e76616c69642061646472657373000000000000006044820152606490fd5b346102b9575f3660031901126102b957602060405161012c8152f35b346102b9575f3660031901126102b95760206040516127108152f35b346102b95761041a36611a56565b5050507f00000000000000000000000000000000000000000000000000000000000000006001600160a01b03163303925061046191505057630a85dc2960e01b5f5260045ffd5b63570c108560e11b5f5260045ffd5b346102b95760403660031901126102b957610489611846565b6004355f52600760205260405f209060018060a01b03165f52602052602060405f2054604051908152f35b346102b95760e03660031901126102b9576104cd611830565b5060a03660231901126102b9576104e2611a30565b507f00000000000000000000000000000000000000000000000000000000000000006001600160a01b0316330361046157630a85dc2960e01b5f5260045ffd5b346102b9575f3660031901126102b9576040517f00000000000000000000000000000000000000000000000000000000000000006001600160a01b03168152602090f35b346102b95760203660031901126102b9576004355f52600b602052602060405f2054604051908152f35b346102b95760203660031901126102b9576004356105ac611c18565b6103e881116105ee5760407ff579147a7a27652efe56a2f791890638acfb4625388b7c67846205588b4009fb91600a549080600a5582519182526020820152a1005b60405162461bcd60e51b815260206004820152601c60248201527f456967656e4c56523a207468726573686f6c6420746f6f2068696768000000006044820152606490fd5b346102b9575f3660031901126102b957602060405166038d7ea4c680008152f35b346102b95761066236611902565b505090915061066f611c3f565b6106d060a061067e3685611b88565b2092602061068b82611c5d565b916106a08261069983611abb565b9201611abb565b604051635620c32d60e11b81526001600160a01b0392831660048201529116602482015292839081906044820190565b03817f00000000000000000000000000000000000000000000000000000000000000006001600160a01b03165afa9182156109b1575f9261097d575b508181111561094e578161071f91611b5d565b90612710820291808304612710149015171561093a5761073e91611b3f565b600a5411159081610907575b50610779575b6040518061077581905f604060608401936315d7892d60e21b81528260208201520152565b0390f35b60405160208101908282524260408201524360608201526060815261079f608082611b1d565b519020815f52600260205260405f20546108c3576040516107bf81611acf565b82815260056020820142815260408301600c81526108756060850160018152608086015f815261085060a08801915f835260c08901955f875260e08a01975f89528b5f52600360205260405f209a518b555160018b01555160028a015561083960038a0194511515859060ff801983541691151516179055565b51835461ff00191690151560081b61ff0016178355565b51815462010000600160b01b03191660109190911b62010000600160b01b0316179055565b51600484015551910155815f5260026020528060405f20557f8d50f1936786e8fcaf1a432bed2207696b5cc11646e7107f3e439f44546d848260408051428152600c6020820152a380610750565b606460405162461bcd60e51b815260206004820152602060248201527f456967656e4c56523a2061756374696f6e20616c7265616479206163746976656044820152fd5b602091500135670de0b6b3a76400008113908115610927575b508261074a565b670de0b6b3a763ffff1913905082610920565b634e487b7160e01b5f52601160045260245ffd5b908161095991611b5d565b90612710820291808304612710149015171561093a5761097891611b3f565b61073e565b9091506020813d6020116109a9575b8161099960209383611b1d565b810103126102b95751908461070c565b3d915061098c565b6040513d5f823e3d90fd5b346102b9575f3660031901126102b9575f6101a06040516109dc81611b00565b8281528260208201528260408201528260608201528260808201528260a08201528260c08201528260e0820152826101008201528261012082015282610140820152826101608201528261018082015201526101c06020604051610a3f81611b00565b5f8152818101905f82526040810160018152606082015f8152608083016001815260a084015f815260c085016001815260e0860190600182526101008701925f84526101208801945f86526101408901965f88526101608a01985f8a526101a06101808c019b5f8d52019b5f8d526040519d8e915f835251151591015251151560408d015251151560608c015251151560808b015251151560a08a015251151560c089015251151560e08801525115156101008701525115156101208601525115156101408501525115156101608401525115156101808301525115156101a0820152f35b346102b95760203660031901126102b9576004355f526004602052602060405f2054604051908152f35b346102b957610b5c366119cc565b5092935050507f00000000000000000000000000000000000000000000000000000000000000006001600160a01b03163303905061046157610ba160a0913690611b88565b20805f52600260205260405f205480151580610d38575b610bd3575b6040805163b47b2fb160e01b81525f6020820152f35b5f526003602052600460405f20015480158015610c01575b50505f5260026020525f60408120558080610bbd565b61213482028281046121341482171561093a576127109004916103e881028181046103e81483171561093a57612710900461012c82029282840461012c14171561093a5761271085930493835f52600460205260405f20610c63828254611aae565b9055835f52600460205260405f20610c7c828254611aae565b905581158015610d0e575b5084158015610cd7575b5093608092917f9f28cf522c1dd60442bfdecae6dfd5abc02b942618ef4f1e2fb7f3efdc8b4f459495604051938452602084015260408301526060820152a28180610beb565b5f8080939594965087819360018060a01b0360095416908390610d05575bf1156109b1579091849286610c91565b506108fc610cf5565b829194505f90610d2f575b5f80809381933390f1156109b157849286610c87565b506108fc610d19565b50805f52600360205260ff600360405f20015460081c16610bb8565b346102b9575f3660031901126102b95760206040516121348152f35b346102b9575f3660031901126102b9576020600a54604051908152f35b346102b95760403660031901126102b957610da6611830565b60243590811515908183036102b9577fc176fcf7d48a6aca0d96d3b3201f7add47c4af04ce9a51f5f4eb15d528c46e2191610e0a602092610de5611c18565b60018060a01b031694855f526008845260405f209060ff801983541691151516179055565b604051908152a2005b346102b957610e2136611962565b5050507f00000000000000000000000000000000000000000000000000000000000000006001600160a01b0316330393506104619250505057630a85dc2960e01b5f5260045ffd5b346102b9575f3660031901126102b9576001546040516001600160a01b039091168152602090f35b346102b9575f3660031901126102b957610ea9611c18565b610eb1611c3f565b6001805460ff60a01b1916600160a01b1790556040513381527f62e78cea01bee320cd4e420270b5ea74000d11b0c9f74754ebdbfc544b05a25890602090a1005b346102b957610f0760a060406102423661189e565b209101355f8112610f25575b60405163021d0ee760e41b8152602090f35b600160ff1b811461093a575f0391815f52600760205260405f209060018060a01b03165f5260205260405f20610f5c838254611b5d565b90555f526006602052610f7460405f20918254611b5d565b9055808080610f13565b346102b95760203660031901126102b957600435610f9a611b6a565b5f818152600760209081526040808320338452909152902054801561109457815f52600660205260405f2054825f52600460205260405f205482810292818404149015171561093a57610fec91611b3f565b9081158015610ffc575b60015f55005b8290825f52600560205260405f2060018060a01b0333165f5260205260405f20611027838254611aae565b9055825f52600460205260405f20611040838254611b5d565b90555f9061108b575b5f80809381933390f1156109b1576040519182527ffec539b3c42d74cd492c3ecf7966bf014b327beef98e935cdc3ec5e54a6901c760203393a3808080610ff6565b506108fc611049565b60405162461bcd60e51b815260206004820152601f60248201527f456967656e4c56523a206e6f206c69717569646974792070726f7669646564006044820152606490fd5b346102b9575f3660031901126102b9576110f1611c18565b600180546001600160a01b031981169091555f906001600160a01b03167f8be0079c531659141344cd1fd0a4f28419497f9722a3daafe3b4186f6b6457e08280a3005b346102b9576101003660031901126102b95761114e611830565b5060a03660231901126102b957611163611a30565b506104e2611a46565b346102b95760a0610ba161117f366119cc565b5050505090503690611b88565b346102b9575f3660031901126102b9576040517f00000000000000000000000000000000000000000000000000000000000000006001600160a01b03168152602090f35b346102b9575f3660031901126102b957602060ff60015460a01c166040519015158152f35b346102b95761120336611902565b5091925090507f00000000000000000000000000000000000000000000000000000000000000006001600160a01b031633036104615761066f611c3f565b346102b95760203660031901126102b9576004355f526006602052602060405f2054604051908152f35b346102b95760203660031901126102b9576004355f526002602052602060405f2054604051908152f35b346102b9575f3660031901126102b9576009546040516001600160a01b039091168152602090f35b346102b95760403660031901126102b9576112d6611846565b6004355f52600560205260405f209060018060a01b03165f52602052602060405f2054604051908152f35b346102b9575f3660031901126102b9576020604051600c8152f35b346102b9575f3660031901126102b957611334611c18565b60015460ff8160a01c161561137b5760ff60a01b19166001556040513381527f5db9ee0a495bf2e6ff9c91a7834c1ba4fdd244a5e8aa4e537bd38aeae4b073aa90602090a1005b638dfc202b60e01b5f5260045ffd5b346102b9575f3660031901126102b957602060405160c88152f35b346102b9575f3660031901126102b9576040517f00000000000000000000000000000000000000000000000000000000000000006001600160a01b03168152602090f35b346102b957366003190160c081126102b95760a0136102b9576004356001600160a01b03811681036102b9576024356001600160a01b03811681036102b9576044359062ffffff821682036102b957604080516001600160a01b0394851660208201908152949092169082015262ffffff909116606082015261147981608081015b03601f198101835282611b1d565b5190205f52600b60205260a43560405f20555f80f35b346102b95761149d3661189e565b50909190507f00000000000000000000000000000000000000000000000000000000000000006001600160a01b031633036104615760a06114e16040923690611b88565b20910135915f83136114ff5760405163259982e560e01b8152602090f35b815f52600760205260405f209060018060a01b03165f5260205260405f20611528838254611aae565b90555f52600660205261154060405f20918254611aae565b905580808061025c565b346102b9576115583661189e565b50909190507f00000000000000000000000000000000000000000000000000000000000000006001600160a01b031633036104615760a0610f076040923690611b88565b346102b95760203660031901126102b9576004355f52600360205261010060405f20805490600181015490600281015460038201549060056004840154930154936040519586526020860152604085015260ff81161515606085015260ff8160081c161515608085015260018060a01b039060101c1660a084015260c083015260e0820152f35b346102b95760603660031901126102b95760043561163f611846565b60443591335f52600860205260ff60405f2054161561179657805f52600360205260ff600360405f200154161561175157611678611b6a565b805f52600360205260405f206116976001820154600283015490611aae565b421061170c57600381018054600483018690556101006001600160b01b031990911662010000600160b01b03601087901b1617179055546040519384526001600160a01b03909216927f32f65ad10bfa4a0ee9db45ba15bf04a4005908f729d666edbc5e421b4519206c90602090a460015f55005b60405162461bcd60e51b815260206004820152601b60248201527f456967656e4c56523a2061756374696f6e206e6f7420656e64656400000000006044820152606490fd5b60405162461bcd60e51b815260206004820152601c60248201527f456967656e4c56523a2061756374696f6e206e6f7420616374697665000000006044820152606490fd5b60405162461bcd60e51b815260206004820152601f60248201527f456967656e4c56523a20756e617574686f72697a6564206f70657261746f72006044820152606490fd5b346102b9575f3660031901126102b95760206040516103e88152f35b346102b95760203660031901126102b9576020906001600160a01b0361181b611830565b165f526008825260ff60405f20541615158152f35b600435906001600160a01b03821682036102b957565b602435906001600160a01b03821682036102b957565b35906001600160a01b03821682036102b957565b9181601f840112156102b95782359167ffffffffffffffff83116102b957602083818601950101116102b957565b906101606003198301126102b9576004356001600160a01b03811681036102b9579160a06023198201126102b957602491608060c3198301126102b95760c491610144359067ffffffffffffffff82116102b9576118fe91600401611870565b9091565b906101406003198301126102b9576004356001600160a01b03811681036102b9579160a06023198201126102b957602491606060c3198301126102b95760c491610124359067ffffffffffffffff82116102b9576118fe91600401611870565b906101a06003198301126102b9576004356001600160a01b03811681036102b9579160a06023198201126102b957602491608060c3198301126102b95760c49161014435916101643591610184359067ffffffffffffffff82116102b9576118fe91600401611870565b6101606003198201126102b9576004356001600160a01b03811681036102b9579160a06023198301126102b957602491606060c3198201126102b95760c4916101243591610144359067ffffffffffffffff82116102b9576118fe91600401611870565b60c435906001600160a01b03821682036102b957565b60e435908160020b82036102b957565b6101206003198201126102b9576004356001600160a01b03811681036102b9579160a06023198301126102b95760249160c4359160e43591610104359067ffffffffffffffff82116102b9576118fe91600401611870565b9190820180921161093a57565b356001600160a01b03811681036102b95790565b610100810190811067ffffffffffffffff821117611aec57604052565b634e487b7160e01b5f52604160045260245ffd5b6101c0810190811067ffffffffffffffff821117611aec57604052565b90601f8019910116810190811067ffffffffffffffff821117611aec57604052565b8115611b49570490565b634e487b7160e01b5f52601260045260245ffd5b9190820391821161093a57565b60025f5414611b795760025f55565b633ee5aeb560e01b5f5260045ffd5b91908260a09103126102b95760405160a0810181811067ffffffffffffffff821117611aec576040528092611bbc8161185c565b8252611bca6020820161185c565b6020830152604081013562ffffff811681036102b95760408301526060810135908160020b82036102b957606083019190915260800135906001600160a01b03821682036102b95760800152565b6001546001600160a01b03163303611c2c57565b63118cdaa760e01b5f523360045260245ffd5b60ff60015460a01c16611c4e57565b63d93c066560e01b5f5260045ffd5b611c6681611abb565b906020810191611c7583611abb565b60408301359062ffffff821682036102b957604080516001600160a01b0394851660208201908152949092169082015262ffffff9091166060820152611cbe816080810161146b565b5190205f52600b60205260405f205480611d895750611d1b91611ceb611ce5602093611abb565b91611abb565b604051635620c32d60e11b81526001600160a01b0392831660048201529116602482015291829081906044820190565b03817f00000000000000000000000000000000000000000000000000000000000000006001600160a01b03165afa9081156109b1575f91611d5a575090565b90506020813d602011611d81575b81611d7560209383611b1d565b810103126102b9575190565b3d9150611d68565b9150509056fea264697066735822122002a97ade2fafac4d8854ad537aaa28145481ea9c2fcf96b85d48e616b762742e64736f6c634300081a0033","linkReferences":{}},"methodIdentifiers":{"AVS_REWARD_PERCENTAGE()":"1a8a61f3","BASIS_POINTS()":"e1f1c4a7","GAS_COMPENSATION_PERCENTAGE()":"2ae8c718","LP_REWARD_PERCENTAGE()":"b26565c5","MAX_AUCTION_DURATION()":"3fb35178","MIN_BID()":"ce69cd20","PROTOCOL_FEE_PERCENTAGE()":"e4d7d6dc","activeAuctions(bytes32)":"5498304c","afterAddLiquidity(address,(address,address,uint24,int24,address),(int24,int24,int256,bytes32),int256,int256,bytes)":"9f063efc","afterDonate(address,(address,address,uint24,int24,address),uint256,uint256,bytes)":"e1b4af69","afterInitialize(address,(address,address,uint24,int24,address),uint160,int24)":"6fe7e6eb","afterRemoveLiquidity(address,(address,address,uint24,int24,address),(int24,int24,int256,bytes32),int256,int256,bytes)":"6c2bbe7e","afterSwap(address,(address,address,uint24,int24,address),(bool,int256,uint160),int256,bytes)":"b47b2fb1","auctions(bytes32)":"1edbc5be","authorizedOperators(address)":"181d989b","avsDirectory()":"6b3aa72e","beforeAddLiquidity(address,(address,address,uint24,int24,address),(int24,int24,int256,bytes32),bytes)":"259982e5","beforeDonate(address,(address,address,uint24,int24,address),uint256,uint256,bytes)":"b6a8b0fa","beforeInitialize(address,(address,address,uint24,int24,address),uint160)":"dc98354e","beforeRemoveLiquidity(address,(address,address,uint24,int24,address),(int24,int24,int256,bytes32),bytes)":"21d0ee70","beforeSwap(address,(address,address,uint24,int24,address),(bool,int256,uint160),bytes)":"575e24b4","claimRewards(bytes32)":"7790ddc6","feeRecipient()":"46904840","getHookPermissions()":"c4e833ce","lpLiquidity(bytes32,address)":"dcd728b5","lpRewards(bytes32,address)":"44612456","lvrThreshold()":"af4cbe80","mockPoolPrices(bytes32)":"d5eab68d","owner()":"8da5cb5b","pause()":"8456cb59","paused()":"5c975abb","poolManager()":"dc4c90d3","poolRewards(bytes32)":"c0e8d384","priceOracle()":"2630c12f","renounceOwnership()":"715018a6","setFeeRecipient(address)":"e74b981b","setLVRThreshold(uint256)":"d40ea4d9","setMockPoolPrice((address,address,uint24,int24,address),uint256)":"2619b98a","setOperatorAuthorization(address,bool)":"a99e4087","submitAuctionResult(bytes32,address,uint256)":"1e52301c","testAfterSwap(address,(address,address,uint24,int24,address),(bool,int256,uint160),int256,bytes)":"6fac2187","testBeforeAddLiquidity(address,(address,address,uint24,int24,address),(int24,int24,int256,bytes32),bytes)":"f6afbb63","testBeforeRemoveLiquidity(address,(address,address,uint24,int24,address),(int24,int24,int256,bytes32),bytes)":"83b83aca","testBeforeSwap(address,(address,address,uint24,int24,address),(bool,int256,uint160),bytes)":"c8dc5568","totalLiquidity(bytes32)":"54b7a8f7","transferOwnership(address)":"f2fde38b","unpause()":"3f4ba83a"},"id":49}