{"abi":[{"type":"constructor","inputs":[{"name":"_poolManager","type":"address","internalType":"contract IPoolManager"},{"name":"_avsDirectory","type":"address","internalType":"contract IAVSDirectory"},{"name":"_priceOracle","type":"address","internalType":"contract IPriceOracle"},{"name":"_feeRecipient","type":"address","internalType":"address"},{"name":"_lvrThreshold","type":"uint256","internalType":"uint256"}],"stateMutability":"nonpayable"},{"type":"receive","stateMutability":"payable"},{"type":"function","name":"AVS_REWARD_PERCENTAGE","inputs":[],"outputs":[{"name":"","type":"uint256","internalType":"uint256"}],"stateMutability":"view"},{"type":"function","name":"BASIS_POINTS","inputs":[],"outputs":[{"name":"","type":"uint256","internalType":"uint256"}],"stateMutability":"view"},{"type":"function","name":"GAS_COMPENSATION_PERCENTAGE","inputs":[],"outputs":[{"name":"","type":"uint256","internalType":"uint256"}],"stateMutability":"view"},{"type":"function","name":"LP_REWARD_PERCENTAGE","inputs":[],"outputs":[{"name":"","type":"uint256","internalType":"uint256"}],"stateMutability":"view"},{"type":"function","name":"MAX_AUCTION_DURATION","inputs":[],"outputs":[{"name":"","type":"uint256","internalType":"uint256"}],"stateMutability":"view"},{"type":"function","name":"MIN_BID","inputs":[],"outputs":[{"name":"","type":"uint256","internalType":"uint256"}],"stateMutability":"view"},{"type":"function","name":"PROTOCOL_FEE_PERCENTAGE","inputs":[],"outputs":[{"name":"","type":"uint256","internalType":"uint256"}],"stateMutability":"view"},{"type":"function","name":"activeAuctions","inputs":[{"name":"","type":"bytes32","internalType":"PoolId"}],"outputs":[{"name":"","type":"bytes32","internalType":"bytes32"}],"stateMutability":"view"},{"type":"function","name":"afterAddLiquidity","inputs":[{"name":"sender","type":"address","internalType":"address"},{"name":"key","type":"tuple","internalType":"struct PoolKey","components":[{"name":"currency0","type":"address","internalType":"Currency"},{"name":"currency1","type":"address","internalType":"Currency"},{"name":"fee","type":"uint24","internalType":"uint24"},{"name":"tickSpacing","type":"int24","internalType":"int24"},{"name":"hooks","type":"address","internalType":"contract IHooks"}]},{"name":"params","type":"tuple","internalType":"struct ModifyLiquidityParams","components":[{"name":"tickLower","type":"int24","internalType":"int24"},{"name":"tickUpper","type":"int24","internalType":"int24"},{"name":"liquidityDelta","type":"int256","internalType":"int256"},{"name":"salt","type":"bytes32","internalType":"bytes32"}]},{"name":"delta","type":"int256","internalType":"BalanceDelta"},{"name":"feesAccrued","type":"int256","internalType":"BalanceDelta"},{"name":"hookData","type":"bytes","internalType":"bytes"}],"outputs":[{"name":"","type":"bytes4","internalType":"bytes4"},{"name":"","type":"int256","internalType":"BalanceDelta"}],"stateMutability":"nonpayable"},{"type":"function","name":"afterDonate","inputs":[{"name":"sender","type":"address","internalType":"address"},{"name":"key","type":"tuple","internalType":"struct PoolKey","components":[{"name":"currency0","type":"address","internalType":"Currency"},{"name":"currency1","type":"address","internalType":"Currency"},{"name":"fee","type":"uint24","internalType":"uint24"},{"name":"tickSpacing","type":"int24","internalType":"int24"},{"name":"hooks","type":"address","internalType":"contract IHooks"}]},{"name":"amount0","type":"uint256","internalType":"uint256"},{"name":"amount1","type":"uint256","internalType":"uint256"},{"name":"hookData","type":"bytes","internalType":"bytes"}],"outputs":[{"name":"","type":"bytes4","internalType":"bytes4"}],"stateMutability":"nonpayable"},{"type":"function","name":"afterInitialize","inputs":[{"name":"sender","type":"address","internalType":"address"},{"name":"key","type":"tuple","internalType":"struct PoolKey","components":[{"name":"currency0","type":"address","internalType":"Currency"},{"name":"currency1","type":"address","internalType":"Currency"},{"name":"fee","type":"uint24","internalType":"uint24"},{"name":"tickSpacing","type":"int24","internalType":"int24"},{"name":"hooks","type":"address","internalType":"contract IHooks"}]},{"name":"sqrtPriceX96","type":"uint160","internalType":"uint160"},{"name":"tick","type":"int24","internalType":"int24"}],"outputs":[{"name":"","type":"bytes4","internalType":"bytes4"}],"stateMutability":"nonpayable"},{"type":"function","name":"afterRemoveLiquidity","inputs":[{"name":"sender","type":"address","internalType":"address"},{"name":"key","type":"tuple","internalType":"struct PoolKey","components":[{"name":"currency0","type":"address","internalType":"Currency"},{"name":"currency1","type":"address","internalType":"Currency"},{"name":"fee","type":"uint24","internalType":"uint24"},{"name":"tickSpacing","type":"int24","internalType":"int24"},{"name":"hooks","type":"address","internalType":"contract IHooks"}]},{"name":"params","type":"tuple","internalType":"struct ModifyLiquidityParams","components":[{"name":"tickLower","type":"int24","internalType":"int24"},{"name":"tickUpper","type":"int24","internalType":"int24"},{"name":"liquidityDelta","type":"int256","internalType":"int256"},{"name":"salt","type":"bytes32","internalType":"bytes32"}]},{"name":"delta","type":"int256","internalType":"BalanceDelta"},{"name":"feesAccrued","type":"int256","internalType":"BalanceDelta"},{"name":"hookData","type":"bytes","internalType":"bytes"}],"outputs":[{"name":"","type":"bytes4","internalType":"bytes4"},{"name":"","type":"int256","internalType":"BalanceDelta"}],"stateMutability":"nonpayable"},{"type":"function","name":"afterSwap","inputs":[{"name":"sender","type":"address","internalType":"address"},{"name":"key","type":"tuple","internalType":"struct PoolKey","components":[{"name":"currency0","type":"address","internalType":"Currency"},{"name":"currency1","type":"address","internalType":"Currency"},{"name":"fee","type":"uint24","internalType":"uint24"},{"name":"tickSpacing","type":"int24","internalType":"int24"},{"name":"hooks","type":"address","internalType":"contract IHooks"}]},{"name":"params","type":"tuple","internalType":"struct SwapParams","components":[{"name":"zeroForOne","type":"bool","internalType":"bool"},{"name":"amountSpecified","type":"int256","internalType":"int256"},{"name":"sqrtPriceLimitX96","type":"uint160","internalType":"uint160"}]},{"name":"delta","type":"int256","internalType":"BalanceDelta"},{"name":"hookData","type":"bytes","internalType":"bytes"}],"outputs":[{"name":"","type":"bytes4","internalType":"bytes4"},{"name":"","type":"int128","internalType":"int128"}],"stateMutability":"nonpayable"},{"type":"function","name":"auctions","inputs":[{"name":"","type":"bytes32","internalType":"bytes32"}],"outputs":[{"name":"poolId","type":"bytes32","internalType":"PoolId"},{"name":"startTime","type":"uint256","internalType":"uint256"},{"name":"duration","type":"uint256","internalType":"uint256"},{"name":"isActive","type":"bool","internalType":"bool"},{"name":"isComplete","type":"bool","internalType":"bool"},{"name":"winner","type":"address","internalType":"address"},{"name":"winningBid","type":"uint256","internalType":"uint256"},{"name":"totalBids","type":"uint256","internalType":"uint256"}],"stateMutability":"view"},{"type":"function","name":"authorizedOperators","inputs":[{"name":"","type":"address","internalType":"address"}],"outputs":[{"name":"","type":"bool","internalType":"bool"}],"stateMutability":"view"},{"type":"function","name":"avsDirectory","inputs":[],"outputs":[{"name":"","type":"address","internalType":"contract IAVSDirectory"}],"stateMutability":"view"},{"type":"function","name":"beforeAddLiquidity","inputs":[{"name":"sender","type":"address","internalType":"address"},{"name":"key","type":"tuple","internalType":"struct PoolKey","components":[{"name":"currency0","type":"address","internalType":"Currency"},{"name":"currency1","type":"address","internalType":"Currency"},{"name":"fee","type":"uint24","internalType":"uint24"},{"name":"tickSpacing","type":"int24","internalType":"int24"},{"name":"hooks","type":"address","internalType":"contract IHooks"}]},{"name":"params","type":"tuple","internalType":"struct ModifyLiquidityParams","components":[{"name":"tickLower","type":"int24","internalType":"int24"},{"name":"tickUpper","type":"int24","internalType":"int24"},{"name":"liquidityDelta","type":"int256","internalType":"int256"},{"name":"salt","type":"bytes32","internalType":"bytes32"}]},{"name":"hookData","type":"bytes","internalType":"bytes"}],"outputs":[{"name":"","type":"bytes4","internalType":"bytes4"}],"stateMutability":"nonpayable"},{"type":"function","name":"beforeDonate","inputs":[{"name":"sender","type":"address","internalType":"address"},{"name":"key","type":"tuple","internalType":"struct PoolKey","components":[{"name":"currency0","type":"address","internalType":"Currency"},{"name":"currency1","type":"address","internalType":"Currency"},{"name":"fee","type":"uint24","internalType":"uint24"},{"name":"tickSpacing","type":"int24","internalType":"int24"},{"name":"hooks","type":"address","internalType":"contract IHooks"}]},{"name":"amount0","type":"uint256","internalType":"uint256"},{"name":"amount1","type":"uint256","internalType":"uint256"},{"name":"hookData","type":"bytes","internalType":"bytes"}],"outputs":[{"name":"","type":"bytes4","internalType":"bytes4"}],"stateMutability":"nonpayable"},{"type":"function","name":"beforeInitialize","inputs":[{"name":"sender","type":"address","internalType":"address"},{"name":"key","type":"tuple","internalType":"struct PoolKey","components":[{"name":"currency0","type":"address","internalType":"Currency"},{"name":"currency1","type":"address","internalType":"Currency"},{"name":"fee","type":"uint24","internalType":"uint24"},{"name":"tickSpacing","type":"int24","internalType":"int24"},{"name":"hooks","type":"address","internalType":"contract IHooks"}]},{"name":"sqrtPriceX96","type":"uint160","internalType":"uint160"}],"outputs":[{"name":"","type":"bytes4","internalType":"bytes4"}],"stateMutability":"nonpayable"},{"type":"function","name":"beforeRemoveLiquidity","inputs":[{"name":"sender","type":"address","internalType":"address"},{"name":"key","type":"tuple","internalType":"struct PoolKey","components":[{"name":"currency0","type":"address","internalType":"Currency"},{"name":"currency1","type":"address","internalType":"Currency"},{"name":"fee","type":"uint24","internalType":"uint24"},{"name":"tickSpacing","type":"int24","internalType":"int24"},{"name":"hooks","type":"address","internalType":"contract IHooks"}]},{"name":"params","type":"tuple","internalType":"struct ModifyLiquidityParams","components":[{"name":"tickLower","type":"int24","internalType":"int24"},{"name":"tickUpper","type":"int24","internalType":"int24"},{"name":"liquidityDelta","type":"int256","internalType":"int256"},{"name":"salt","type":"bytes32","internalType":"bytes32"}]},{"name":"hookData","type":"bytes","internalType":"bytes"}],"outputs":[{"name":"","type":"bytes4","internalType":"bytes4"}],"stateMutability":"nonpayable"},{"type":"function","name":"beforeSwap","inputs":[{"name":"sender","type":"address","internalType":"address"},{"name":"key","type":"tuple","internalType":"struct PoolKey","components":[{"name":"currency0","type":"address","internalType":"Currency"},{"name":"currency1","type":"address","internalType":"Currency"},{"name":"fee","type":"uint24","internalType":"uint24"},{"name":"tickSpacing","type":"int24","internalType":"int24"},{"name":"hooks","type":"address","internalType":"contract IHooks"}]},{"name":"params","type":"tuple","internalType":"struct SwapParams","components":[{"name":"zeroForOne","type":"bool","internalType":"bool"},{"name":"amountSpecified","type":"int256","internalType":"int256"},{"name":"sqrtPriceLimitX96","type":"uint160","internalType":"uint160"}]},{"name":"hookData","type":"bytes","internalType":"bytes"}],"outputs":[{"name":"","type":"bytes4","internalType":"bytes4"},{"name":"","type":"int256","internalType":"BeforeSwapDelta"},{"name":"","type":"uint24","internalType":"uint24"}],"stateMutability":"nonpayable"},{"type":"function","name":"claimRewards","inputs":[{"name":"poolId","type":"bytes32","internalType":"PoolId"}],"outputs":[],"stateMutability":"nonpayable"},{"type":"function","name":"feeRecipient","inputs":[],"outputs":[{"name":"","type":"address","internalType":"address"}],"stateMutability":"view"},{"type":"function","name":"getHookPermissions","inputs":[],"outputs":[{"name":"","type":"tuple","internalType":"struct Hooks.Permissions","components":[{"name":"beforeInitialize","type":"bool","internalType":"bool"},{"name":"afterInitialize","type":"bool","internalType":"bool"},{"name":"beforeAddLiquidity","type":"bool","internalType":"bool"},{"name":"afterAddLiquidity","type":"bool","internalType":"bool"},{"name":"beforeRemoveLiquidity","type":"bool","internalType":"bool"},{"name":"afterRemoveLiquidity","type":"bool","internalType":"bool"},{"name":"beforeSwap","type":"bool","internalType":"bool"},{"name":"afterSwap","type":"bool","internalType":"bool"},{"name":"beforeDonate","type":"bool","internalType":"bool"},{"name":"afterDonate","type":"bool","internalType":"bool"},{"name":"beforeSwapReturnDelta","type":"bool","internalType":"bool"},{"name":"afterSwapReturnDelta","type":"bool","internalType":"bool"},{"name":"afterAddLiquidityReturnDelta","type":"bool","internalType":"bool"},{"name":"afterRemoveLiquidityReturnDelta","type":"bool","internalType":"bool"}]}],"stateMutability":"pure"},{"type":"function","name":"lpLiquidity","inputs":[{"name":"","type":"bytes32","internalType":"PoolId"},{"name":"","type":"address","internalType":"address"}],"outputs":[{"name":"","type":"uint256","internalType":"uint256"}],"stateMutability":"view"},{"type":"function","name":"lpRewards","inputs":[{"name":"","type":"bytes32","internalType":"PoolId"},{"name":"","type":"address","internalType":"address"}],"outputs":[{"name":"","type":"uint256","internalType":"uint256"}],"stateMutability":"view"},{"type":"function","name":"lvrThreshold","inputs":[],"outputs":[{"name":"","type":"uint256","internalType":"uint256"}],"stateMutability":"view"},{"type":"function","name":"mockPoolPrices","inputs":[{"name":"","type":"bytes32","internalType":"bytes32"}],"outputs":[{"name":"","type":"uint256","internalType":"uint256"}],"stateMutability":"view"},{"type":"function","name":"owner","inputs":[],"outputs":[{"name":"","type":"address","internalType":"address"}],"stateMutability":"view"},{"type":"function","name":"pause","inputs":[],"outputs":[],"stateMutability":"nonpayable"},{"type":"function","name":"paused","inputs":[],"outputs":[{"name":"","type":"bool","internalType":"bool"}],"stateMutability":"view"},{"type":"function","name":"poolManager","inputs":[],"outputs":[{"name":"","type":"address","internalType":"contract IPoolManager"}],"stateMutability":"view"},{"type":"function","name":"poolRewards","inputs":[{"name":"","type":"bytes32","internalType":"PoolId"}],"outputs":[{"name":"","type":"uint256","internalType":"uint256"}],"stateMutability":"view"},{"type":"function","name":"priceOracle","inputs":[],"outputs":[{"name":"","type":"address","internalType":"contract IPriceOracle"}],"stateMutability":"view"},{"type":"function","name":"renounceOwnership","inputs":[],"outputs":[],"stateMutability":"nonpayable"},{"type":"function","name":"setFeeRecipient","inputs":[{"name":"newFeeRecipient","type":"address","internalType":"address"}],"outputs":[],"stateMutability":"nonpayable"},{"type":"function","name":"setLVRThreshold","inputs":[{"name":"newThreshold","type":"uint256","internalType":"uint256"}],"outputs":[],"stateMutability":"nonpayable"},{"type":"function","name":"setMockPoolPrice","inputs":[{"name":"key","type":"tuple","internalType":"struct PoolKey","components":[{"name":"currency0","type":"address","internalType":"Currency"},{"name":"currency1","type":"address","internalType":"Currency"},{"name":"fee","type":"uint24","internalType":"uint24"},{"name":"tickSpacing","type":"int24","internalType":"int24"},{"name":"hooks","type":"address","internalType":"contract IHooks"}]},{"name":"price","type":"uint256","internalType":"uint256"}],"outputs":[],"stateMutability":"nonpayable"},{"type":"function","name":"setOperatorAuthorization","inputs":[{"name":"operator","type":"address","internalType":"address"},{"name":"authorized","type":"bool","internalType":"bool"}],"outputs":[],"stateMutability":"nonpayable"},{"type":"function","name":"submitAuctionResult","inputs":[{"name":"auctionId","type":"bytes32","internalType":"bytes32"},{"name":"winner","type":"address","internalType":"address"},{"name":"winningBid","type":"uint256","internalType":"uint256"}],"outputs":[],"stateMutability":"nonpayable"},{"type":"function","name":"testAfterSwap","inputs":[{"name":"sender","type":"address","internalType":"address"},{"name":"key","type":"tuple","internalType":"struct PoolKey","components":[{"name":"currency0","type":"address","internalType":"Currency"},{"name":"currency1","type":"address","internalType":"Currency"},{"name":"fee","type":"uint24","internalType":"uint24"},{"name":"tickSpacing","type":"int24","internalType":"int24"},{"name":"hooks","type":"address","internalType":"contract IHooks"}]},{"name":"params","type":"tuple","internalType":"struct SwapParams","components":[{"name":"zeroForOne","type":"bool","internalType":"bool"},{"name":"amountSpecified","type":"int256","internalType":"int256"},{"name":"sqrtPriceLimitX96","type":"uint160","internalType":"uint160"}]},{"name":"delta","type":"int256","internalType":"BalanceDelta"},{"name":"hookData","type":"bytes","internalType":"bytes"}],"outputs":[{"name":"","type":"bytes4","internalType":"bytes4"},{"name":"","type":"int128","internalType":"int128"}],"stateMutability":"nonpayable"},{"type":"function","name":"testBeforeAddLiquidity","inputs":[{"name":"sender","type":"address","internalType":"address"},{"name":"key","type":"tuple","internalType":"struct PoolKey","components":[{"name":"currency0","type":"address","internalType":"Currency"},{"name":"currency1","type":"address","internalType":"Currency"},{"name":"fee","type":"uint24","internalType":"uint24"},{"name":"tickSpacing","type":"int24","internalType":"int24"},{"name":"hooks","type":"address","internalType":"contract IHooks"}]},{"name":"params","type":"tuple","internalType":"struct ModifyLiquidityParams","components":[{"name":"tickLower","type":"int24","internalType":"int24"},{"name":"tickUpper","type":"int24","internalType":"int24"},{"name":"liquidityDelta","type":"int256","internalType":"int256"},{"name":"salt","type":"bytes32","internalType":"bytes32"}]},{"name":"hookData","type":"bytes","internalType":"bytes"}],"outputs":[{"name":"","type":"bytes4","internalType":"bytes4"}],"stateMutability":"nonpayable"},{"type":"function","name":"testBeforeRemoveLiquidity","inputs":[{"name":"sender","type":"address","internalType":"address"},{"name":"key","type":"tuple","internalType":"struct PoolKey","components":[{"name":"currency0","type":"address","internalType":"Currency"},{"name":"currency1","type":"address","internalType":"Currency"},{"name":"fee","type":"uint24","internalType":"uint24"},{"name":"tickSpacing","type":"int24","internalType":"int24"},{"name":"hooks","type":"address","internalType":"contract IHooks"}]},{"name":"params","type":"tuple","internalType":"struct ModifyLiquidityParams","components":[{"name":"tickLower","type":"int24","internalType":"int24"},{"name":"tickUpper","type":"int24","internalType":"int24"},{"name":"liquidityDelta","type":"int256","internalType":"int256"},{"name":"salt","type":"bytes32","internalType":"bytes32"}]},{"name":"hookData","type":"bytes","internalType":"bytes"}],"outputs":[{"name":"","type":"bytes4","internalType":"bytes4"}],"stateMutability":"nonpayable"},{"type":"function","name":"testBeforeSwap","inputs":[{"name":"sender","type":"address","internalType":"address"},{"name":"key","type":"tuple","internalType":"struct PoolKey","components":[{"name":"currency0","type":"address","internalType":"Currency"},{"name":"currency1","type":"address","internalType":"Currency"},{"name":"fee","type":"uint24","internalType":"uint24"},{"name":"tickSpacing","type":"int24","internalType":"int24"},{"name":"hooks","type":"address","internalType":"contract IHooks"}]},{"name":"params","type":"tuple","internalType":"struct SwapParams","components":[{"name":"zeroForOne","type":"bool","internalType":"bool"},{"name":"amountSpecified","type":"int256","internalType":"int256"},{"name":"sqrtPriceLimitX96","type":"uint160","internalType":"uint160"}]},{"name":"hookData","type":"bytes","internalType":"bytes"}],"outputs":[{"name":"","type":"bytes4","internalType":"bytes4"},{"name":"","type":"int256","internalType":"BeforeSwapDelta"},{"name":"","type":"uint24","internalType":"uint24"}],"stateMutability":"nonpayable"},{"type":"function","name":"testClaimRewards","inputs":[{"name":"poolId","type":"bytes32","internalType":"PoolId"}],"outputs":[],"stateMutability":"nonpayable"},{"type":"function","name":"testCreateAuction","inputs":[{"name":"poolId","type":"bytes32","internalType":"PoolId"},{"name":"auctionId","type":"bytes32","internalType":"bytes32"},{"name":"startTime","type":"uint256","internalType":"uint256"},{"name":"duration","type":"uint256","internalType":"uint256"},{"name":"isActive","type":"bool","internalType":"bool"},{"name":"isComplete","type":"bool","internalType":"bool"}],"outputs":[],"stateMutability":"nonpayable"},{"type":"function","name":"testSetActiveAuction","inputs":[{"name":"poolId","type":"bytes32","internalType":"PoolId"},{"name":"auctionId","type":"bytes32","internalType":"bytes32"}],"outputs":[],"stateMutability":"nonpayable"},{"type":"function","name":"testSetLpLiquidity","inputs":[{"name":"poolId","type":"bytes32","internalType":"PoolId"},{"name":"lp","type":"address","internalType":"address"},{"name":"amount","type":"uint256","internalType":"uint256"}],"outputs":[],"stateMutability":"nonpayable"},{"type":"function","name":"testSetPoolRewards","inputs":[{"name":"poolId","type":"bytes32","internalType":"PoolId"},{"name":"amount","type":"uint256","internalType":"uint256"}],"outputs":[],"stateMutability":"nonpayable"},{"type":"function","name":"testSetTotalLiquidity","inputs":[{"name":"poolId","type":"bytes32","internalType":"PoolId"},{"name":"amount","type":"uint256","internalType":"uint256"}],"outputs":[],"stateMutability":"nonpayable"},{"type":"function","name":"testSubmitAuctionResult","inputs":[{"name":"auctionId","type":"bytes32","internalType":"bytes32"},{"name":"winner","type":"address","internalType":"address"},{"name":"winningBid","type":"uint256","internalType":"uint256"}],"outputs":[],"stateMutability":"nonpayable"},{"type":"function","name":"totalLiquidity","inputs":[{"name":"","type":"bytes32","internalType":"PoolId"}],"outputs":[{"name":"","type":"uint256","internalType":"uint256"}],"stateMutability":"view"},{"type":"function","name":"transferOwnership","inputs":[{"name":"newOwner","type":"address","internalType":"address"}],"outputs":[],"stateMutability":"nonpayable"},{"type":"function","name":"unpause","inputs":[],"outputs":[],"stateMutability":"nonpayable"},{"type":"event","name":"AuctionEnded","inputs":[{"name":"auctionId","type":"bytes32","indexed":true,"internalType":"bytes32"},{"name":"poolId","type":"bytes32","indexed":true,"internalType":"PoolId"},{"name":"winner","type":"address","indexed":true,"internalType":"address"},{"name":"winningBid","type":"uint256","indexed":false,"internalType":"uint256"}],"anonymous":false},{"type":"event","name":"AuctionStarted","inputs":[{"name":"auctionId","type":"bytes32","indexed":true,"internalType":"bytes32"},{"name":"poolId","type":"bytes32","indexed":true,"internalType":"PoolId"},{"name":"startTime","type":"uint256","indexed":false,"internalType":"uint256"},{"name":"duration","type":"uint256","indexed":false,"internalType":"uint256"}],"anonymous":false},{"type":"event","name":"LVRThresholdUpdated","inputs":[{"name":"oldThreshold","type":"uint256","indexed":false,"internalType":"uint256"},{"name":"newThreshold","type":"uint256","indexed":false,"internalType":"uint256"}],"anonymous":false},{"type":"event","name":"MEVDistributed","inputs":[{"name":"poolId","type":"bytes32","indexed":true,"internalType":"PoolId"},{"name":"totalAmount","type":"uint256","indexed":false,"internalType":"uint256"},{"name":"lpAmount","type":"uint256","indexed":false,"internalType":"uint256"},{"name":"avsAmount","type":"uint256","indexed":false,"internalType":"uint256"},{"name":"protocolAmount","type":"uint256","indexed":false,"internalType":"uint256"}],"anonymous":false},{"type":"event","name":"OperatorAuthorized","inputs":[{"name":"operator","type":"address","indexed":true,"internalType":"address"},{"name":"authorized","type":"bool","indexed":false,"internalType":"bool"}],"anonymous":false},{"type":"event","name":"OwnershipTransferred","inputs":[{"name":"previousOwner","type":"address","indexed":true,"internalType":"address"},{"name":"newOwner","type":"address","indexed":true,"internalType":"address"}],"anonymous":false},{"type":"event","name":"Paused","inputs":[{"name":"account","type":"address","indexed":false,"internalType":"address"}],"anonymous":false},{"type":"event","name":"RewardsClaimed","inputs":[{"name":"poolId","type":"bytes32","indexed":true,"internalType":"PoolId"},{"name":"lp","type":"address","indexed":true,"internalType":"address"},{"name":"amount","type":"uint256","indexed":false,"internalType":"uint256"}],"anonymous":false},{"type":"event","name":"Unpaused","inputs":[{"name":"account","type":"address","indexed":false,"internalType":"address"}],"anonymous":false},{"type":"error","name":"EnforcedPause","inputs":[]},{"type":"error","name":"ExpectedPause","inputs":[]},{"type":"error","name":"HookNotImplemented","inputs":[]},{"type":"error","name":"NotPoolManager","inputs":[]},{"type":"error","name":"OwnableInvalidOwner","inputs":[{"name":"owner","type":"address","internalType":"address"}]},{"type":"error","name":"OwnableUnauthorizedAccount","inputs":[{"name":"account","type":"address","internalType":"address"}]},{"type":"error","name":"ReentrancyGuardReentrantCall","inputs":[]}],"bytecode":{"object":"0x60e03461019d57601f61280d38819003918201601f19168301916001600160401b038311848410176101a15780849260a09460405283398101031261019d5780516001600160a01b038116810361019d576020820151916001600160a01b038316830361019d5760408101516001600160a01b038116810361019d5760608201516001600160a01b038116929083900361019d57608001519260805260015f55331561018a576001546040519490336001600160a01b0382167f8be0079c531659141344cd1fd0a4f28419497f9722a3daafe3b4186f6b6457e05f80a36001600160a81b0319163360ff60a01b19161760015560a05260c052600980546001600160a01b031916919091179055600a5561265790816101b68239608051818181610470015281816105350152818161058501528181610c1f01528181610f380152818161145b0152818161168c0152818161174e01528181611c910152611d4c015260a051816116e4015260c051818181610727015281816117a401528181611ba701526125b10152f35b631e4fbdf760e01b5f525f60045260245ffd5b5f80fd5b634e487b7160e01b5f52604160045260245ffdfe608080604052600436101561001c575b50361561001a575f80fd5b005b5f905f3560e01c908163181d989b14612049575080631a8a61f31461202d5780631e52301c14611e865780631edbc5be14611dff57806321d0ee7014611d37578063259982e514611c7c5780632619b98a14611bd65780632630c12f14611b925780632ae8c71814611b775780633f4ba83a14611b095780633fb3517814611aee5780634461245614611aaa57806344a32bff14611a8b5780634690484014611a635780634b2328e814611a3c5780635498304c14611a1257806354b7a8f7146119e8578063575e24b4146117385780635c975abb146117135780636b3aa72e146116cf5780636c2bbe7e146116795780636fac2187146114a75780636fe7e6eb14611420578063715018a6146113c5578063726b0114146113815780637790ddc6146112125780637f98978c146111a5578063835c1a521461118657806383b83aca146110d65780638456cb5914611073578063872edadc14610fa15780638da5cb5b14610f785780639f063efc14610f21578063a99e408714610e95578063af4cbe8014610e77578063b26565c514610e5a578063b47b2fb114610c08578063b6a8b0fa14610459578063ba65162014610ba7578063c0e8d38414610b7d578063c4e833ce14610a12578063c8dc5568146106a5578063ce69cd2014610683578063d40ea4d9146105de578063d5eab68d146105b4578063dc4c90d31461056f578063dc98354e14610500578063dcd728b5146104bb578063e1b4af6914610459578063e1f1c4a71461043c578063e4d7d6dc1461041f578063e74b981b1461038e578063f2fde38b146103055763f6afbb630361000f57346103025760a0610298604061028b3661211a565b505094919390369061241a565b20920135928084136102b7575b60405163259982e560e01b8152602090f35b826040926102f794835260076020528383209060018060a01b03165f52602052825f206102e5868254612340565b90558152600660205220918254612340565b90555f8080806102a5565b80fd5b50346103025760203660031901126103025761031f612082565b6103276124aa565b6001600160a01b0316801561037a57600180546001600160a01b0319811683179091556001600160a01b03167f8be0079c531659141344cd1fd0a4f28419497f9722a3daafe3b4186f6b6457e08380a380f35b631e4fbdf760e01b82526004829052602482fd5b5034610302576020366003190112610302576103a8612082565b6103b06124aa565b6001600160a01b031680156103da576bffffffffffffffffffffffff60a01b600954161760095580f35b60405162461bcd60e51b815260206004820152601960248201527f456967656e4c56523a20696e76616c69642061646472657373000000000000006044820152606490fd5b5034610302578060031936011261030257602060405161012c8152f35b503461030257806003193601126103025760206040516127108152f35b50346103025760049061046b366122e8565b5050507f00000000000000000000000000000000000000000000000000000000000000006001600160a01b0316330392506104af91505057630a85dc2960e01b8152fd5b63570c108560e11b8152fd5b50346103025760403660031901126103025760406104d7612098565b9160043581526007602052209060018060a01b03165f52602052602060405f2054604051908152f35b50346103025760e03660031901126103025761051a612082565b5060a0366023190112610302576004906105326122c2565b507f00000000000000000000000000000000000000000000000000000000000000006001600160a01b031633036104af57630a85dc2960e01b8152fd5b50346103025780600319360112610302576040517f00000000000000000000000000000000000000000000000000000000000000006001600160a01b03168152602090f35b50346103025760203660031901126103025760406020916004358152600b83522054604051908152f35b5034610302576020366003190112610302576004356105fb6124aa565b6103e8811161063e5760407ff579147a7a27652efe56a2f791890638acfb4625388b7c67846205588b4009fb91600a549080600a5582519182526020820152a180f35b60405162461bcd60e51b815260206004820152601c60248201527f456967656e4c56523a207468726573686f6c6420746f6f2068696768000000006044820152606490fd5b5034610302578060031936011261030257602060405166038d7ea4c680008152f35b5034610302576106b436612194565b5050909291506106c26124d1565b61072360a06106d1368661241a565b209360206106de826124ef565b916106f3826106ec8361234d565b920161234d565b604051635620c32d60e11b81526001600160a01b0392831660048201529116602482015292839081906044820190565b03817f00000000000000000000000000000000000000000000000000000000000000006001600160a01b03165afa918215610a075784926109cf575b50818111156109a05781610772916123ef565b612710810290808204612710149015171561098c5790610791916123d1565b600a5411159081610959575b506107cc575b604051806107c881905f604060608401936315d7892d60e21b81528260208201520152565b0390f35b6040516020810190838252426040820152436060820152606081526107f26080826123af565b51902090828152600260205260408120546109155760408291815161081681612361565b858152600560208201428152848301600c81526108ca6060850160018152608086018781526108a560a088019189835260c08901958a875260e08a01978b89528d8c5260036020528c8c209a518b555160018b01555160028a015561088e60038a0194511515859060ff801983541691151516179055565b51835461ff00191690151560081b61ff0016178355565b51815462010000600160b01b03191660109190911b62010000600160b01b0316179055565b51600484015551910155848152600260205220557f8d50f1936786e8fcaf1a432bed2207696b5cc11646e7107f3e439f44546d848260408051428152600c6020820152a35f806107a3565b606460405162461bcd60e51b815260206004820152602060248201527f456967656e4c56523a2061756374696f6e20616c7265616479206163746976656044820152fd5b602091500135670de0b6b3a76400008113908115610979575b505f61079d565b670de0b6b3a763ffff191390505f610972565b634e487b7160e01b84526011600452602484fd5b90816109ab916123ef565b612710810290808204612710149015171561098c57906109ca916123d1565b610791565b9091506020813d6020116109ff575b816109eb602093836123af565b810103126109fb5751905f61075f565b5f80fd5b3d91506109de565b6040513d86823e3d90fd5b5034610302578060031936011261030257806101c0916101a0604051610a3781612392565b8281528260208201528260408201528260608201528260808201528260a08201528260c08201528260e08201528261010082015282610120820152826101408201528261016082015282610180820152015260405190610a9682612392565b8082526020820191818352604081016001815260608201838152608083016001815260a0840185815260c085016001815260e0860190600182526101008701928884526101208801948986526101408901968a88526101608a01988b8a526101a06101808c019b8d8d52019b808d5260206040519e8f92835251151591015251151560408d015251151560608c015251151560808b015251151560a08a015251151560c089015251151560e08801525115156101008701525115156101208601525115156101408501525115156101608401525115156101808301525115156101a0820152f35b50346103025760203660031901126103025760406020916004358152600483522054604051908152f35b503461030257602036600319011261030257303b156103025780604051633bc86ee360e11b81526004356004820152818160248183305af18015610bfd57610bec5750f35b81610bf6916123af565b6103025780f35b6040513d84823e3d90fd5b503461030257610c173661225e565b5092935050507f00000000000000000000000000000000000000000000000000000000000000006001600160a01b031633039050610e4b57610c5c60a091369061241a565b208082526002602052604082205480151580610e2f575b610c8e575b6040805163b47b2fb160e01b81525f6020820152f35b8252600360205260046040832001548015908115610cbd575b50508152600260205260408120555f8080610c78565b612134810281810461213414831715610e1b576127109004916103e882028281046103e814821715610e075761271090049061012c83029083820461012c141715610e0757906127108593920493838752600460205260408720610d22828254612340565b9055838752600460205260408720610d3b828254612340565b90558682158015610dda575b5085158015610d98575b505093608092917f9f28cf522c1dd60442bfdecae6dfd5abc02b942618ef4f1e2fb7f3efdc8b4f459495604051938452602084015260408301526060820152a25f80610ca7565b8180939594965087819260018060a01b0360095416908390610dd1575bf115610dc65790918492865f610d51565b6040513d87823e3d90fd5b506108fc610db5565b90919450828291610dfd575b8280929181923390f115610dc6578492865f610d47565b6108fc9150610de6565b634e487b7160e01b86526011600452602486fd5b634e487b7160e01b85526011600452602485fd5b50808352600360205260ff600360408520015460081c16610c73565b63570c108560e11b8252600482fd5b503461030257806003193601126103025760206040516121348152f35b50346103025780600319360112610302576020600a54604051908152f35b503461030257604036600319011261030257610eaf612082565b6024359081151590818303610f1d577fc176fcf7d48a6aca0d96d3b3201f7add47c4af04ce9a51f5f4eb15d528c46e2191610f13602092610eee6124aa565b60018060a01b03169485875260088452604087209060ff801983541691151516179055565b604051908152a280f35b8380fd5b503461030257600490610f33366121f4565b5050507f00000000000000000000000000000000000000000000000000000000000000006001600160a01b0316330393506104af9250505057630a85dc2960e01b8152fd5b50346103025780600319360112610302576001546040516001600160a01b039091168152602090f35b50346103025760c03660031901126103025760843580151580910361106f5760a4359081151580920361106b5760059060405192610fde84612361565b600435845261105e602085019260443584526040860192606435845260608701918252608087019081526108a560a088019189835260c08901958a875260e08a01978b89526024358c52600360205260408c209a518b555160018b01555160028a015561088e60038a0194511515859060ff801983541691151516179055565b5160048401555191015580f35b8280fd5b5080fd5b503461030257806003193601126103025761108c6124aa565b6110946124d1565b6001805460ff60a01b1916600160a01b1790556040513381527f62e78cea01bee320cd4e420270b5ea74000d11b0c9f74754ebdbfc544b05a25890602090a180f35b5034610302576110fa9060a060406110ed3661211a565b505093919590369061241a565b20910135828112611118575b60405163021d0ee760e41b8152602090f35b600160ff1b811461117257916040916111679382039481835260076020528383209060018060a01b03165f52602052825f206111558682546123ef565b905581526006602052209182546123ef565b90555f808080611106565b634e487b7160e01b83526011600452602483fd5b5034610302576111953661217e565b9082526004602052604082205580f35b50346109fb576111b4366120c2565b90303b156109fb576040516307948c0760e21b815260048101939093526001600160a01b0316602483015260448201525f8160648183305af18015611207576111fb575080f35b61001a91505f906123af565b6040513d5f823e3d90fd5b346109fb5760203660031901126109fb5760043561122e6123fc565b5f818152600760209081526040808320338452909152902054801561133c57815f52600660205260405f2054825f52600460205260405f205482810292818404149015171561132857611280916123d1565b9081158015611290575b60015f55005b8290825f52600560205260405f2060018060a01b0333165f5260205260405f206112bb838254612340565b9055825f52600460205260405f206112d48382546123ef565b90555f9061131f575b5f80809381933390f115611207576040519182527ffec539b3c42d74cd492c3ecf7966bf014b327beef98e935cdc3ec5e54a6901c760203393a380808061128a565b506108fc6112dd565b634e487b7160e01b5f52601160045260245ffd5b60405162461bcd60e51b815260206004820152601f60248201527f456967656e4c56523a206e6f206c69717569646974792070726f7669646564006044820152606490fd5b346109fb5760603660031901126109fb5761139a612098565b6004355f9081526007602090815260408083206001600160a01b039094168352929052206044359055005b346109fb575f3660031901126109fb576113dd6124aa565b600180546001600160a01b031981169091555f906001600160a01b03167f8be0079c531659141344cd1fd0a4f28419497f9722a3daafe3b4186f6b6457e08280a3005b346109fb576101003660031901126109fb5761143a612082565b5060a03660231901126109fb5761144f6122c2565b506114586122d8565b507f00000000000000000000000000000000000000000000000000000000000000006001600160a01b0316330361149857630a85dc2960e01b5f5260045ffd5b63570c108560e11b5f5260045ffd5b346109fb5760a06114c76114ba3661225e565b505050509050369061241a565b20805f52600260205260405f20548015158061165d575b6114f8576040805163b47b2fb160e01b81525f6020820152f35b5f526003602052600460405f20015480158015611526575b50505f5260026020525f60408120558080610c78565b612134820282810461213414821715611328576127109004916103e881028181046103e81483171561132857612710900461012c82029282840461012c1417156113285761271085930493835f52600460205260405f20611588828254612340565b9055835f52600460205260405f206115a1828254612340565b905581158015611633575b50841580156115fc575b5093608092917f9f28cf522c1dd60442bfdecae6dfd5abc02b942618ef4f1e2fb7f3efdc8b4f459495604051938452602084015260408301526060820152a28180611510565b5f8080939594965087819360018060a01b036009541690839061162a575bf1156112075790918492866115b6565b506108fc61161a565b829194505f90611654575b5f80809381933390f115611207578492866115ac565b506108fc61163e565b50805f52600360205260ff600360405f20015460081c166114de565b346109fb57611687366121f4565b5050507f00000000000000000000000000000000000000000000000000000000000000006001600160a01b0316330393506114989250505057630a85dc2960e01b5f5260045ffd5b346109fb575f3660031901126109fb576040517f00000000000000000000000000000000000000000000000000000000000000006001600160a01b03168152602090f35b346109fb575f3660031901126109fb57602060ff60015460a01c166040519015158152f35b346109fb5761174636612194565b5091925090507f00000000000000000000000000000000000000000000000000000000000000006001600160a01b03163303611498576117846124d1565b6117a060a0611793368561241a565b209260206106de826124ef565b03817f00000000000000000000000000000000000000000000000000000000000000006001600160a01b03165afa918215611207575f926119b4575b508181111561198557816117ef916123ef565b9061271082029180830461271014901517156113285761180e916123d1565b600a5411159081611952575b5061184457604051806107c881905f604060608401936315d7892d60e21b81528260208201520152565b60405160208101908282524260408201524360608201526060815261186a6080826123af565b519020815f52600260205260405f20546109155760405161188a81612361565b82815260056020820142815260408301600c81526119046060850160018152608086015f81526108a560a08801915f835260c08901955f875260e08a01975f89528b5f52600360205260405f209a518b555160018b01555160028a015561088e60038a0194511515859060ff801983541691151516179055565b51600484015551910155815f5260026020528060405f20557f8d50f1936786e8fcaf1a432bed2207696b5cc11646e7107f3e439f44546d848260408051428152600c6020820152a3806107a3565b602091500135670de0b6b3a76400008113908115611972575b508261181a565b670de0b6b3a763ffff191390508261196b565b9081611990916123ef565b906127108202918083046127101490151715611328576119af916123d1565b61180e565b9091506020813d6020116119e0575b816119d0602093836123af565b810103126109fb575190846117dc565b3d91506119c3565b346109fb5760203660031901126109fb576004355f526006602052602060405f2054604051908152f35b346109fb5760203660031901126109fb576004355f526002602052602060405f2054604051908152f35b346109fb5760403660031901126109fb576004355f52600260205260243560405f20555f80f35b346109fb575f3660031901126109fb576009546040516001600160a01b039091168152602090f35b346109fb57611a993661217e565b905f52600660205260405f20555f80f35b346109fb5760403660031901126109fb57611ac3612098565b6004355f52600560205260405f209060018060a01b03165f52602052602060405f2054604051908152f35b346109fb575f3660031901126109fb576020604051600c8152f35b346109fb575f3660031901126109fb57611b216124aa565b60015460ff8160a01c1615611b685760ff60a01b19166001556040513381527f5db9ee0a495bf2e6ff9c91a7834c1ba4fdd244a5e8aa4e537bd38aeae4b073aa90602090a1005b638dfc202b60e01b5f5260045ffd5b346109fb575f3660031901126109fb57602060405160c88152f35b346109fb575f3660031901126109fb576040517f00000000000000000000000000000000000000000000000000000000000000006001600160a01b03168152602090f35b346109fb57366003190160c081126109fb5760a0136109fb576004356001600160a01b03811681036109fb576024356001600160a01b03811681036109fb576044359062ffffff821682036109fb57604080516001600160a01b0394851660208201908152949092169082015262ffffff9091166060820152611c6681608081015b03601f1981018352826123af565b5190205f52600b60205260a43560405f20555f80f35b346109fb57611c8a3661211a565b50909190507f00000000000000000000000000000000000000000000000000000000000000006001600160a01b031633036114985760a0611cce604092369061241a565b20910135915f8313611cec5760405163259982e560e01b8152602090f35b815f52600760205260405f209060018060a01b03165f5260205260405f20611d15838254612340565b90555f526006602052611d2d60405f20918254612340565b90558080806102a5565b346109fb57611d453661211a565b50909190507f00000000000000000000000000000000000000000000000000000000000000006001600160a01b031633036114985760a0611d89604092369061241a565b209101355f8112611da65760405163021d0ee760e41b8152602090f35b600160ff1b8114611328575f0391815f52600760205260405f209060018060a01b03165f5260205260405f20611ddd8382546123ef565b90555f526006602052611df560405f209182546123ef565b9055808080611106565b346109fb5760203660031901126109fb576004355f52600360205261010060405f20805490600181015490600281015460038201549060056004840154930154936040519586526020860152604085015260ff81161515606085015260ff8160081c161515608085015260018060a01b039060101c1660a084015260c083015260e0820152f35b346109fb57611e94366120c2565b91335f52600860205260ff60405f20541615611fe857805f52600360205260ff600360405f2001541615611fa357611eca6123fc565b805f52600360205260405f20611ee96001820154600283015490612340565b4210611f5e57600381018054600483018690556101006001600160b01b031990911662010000600160b01b03601087901b1617179055546040519384526001600160a01b03909216927f32f65ad10bfa4a0ee9db45ba15bf04a4005908f729d666edbc5e421b4519206c90602090a460015f55005b60405162461bcd60e51b815260206004820152601b60248201527f456967656e4c56523a2061756374696f6e206e6f7420656e64656400000000006044820152606490fd5b60405162461bcd60e51b815260206004820152601c60248201527f456967656e4c56523a2061756374696f6e206e6f7420616374697665000000006044820152606490fd5b60405162461bcd60e51b815260206004820152601f60248201527f456967656e4c56523a20756e617574686f72697a6564206f70657261746f72006044820152606490fd5b346109fb575f3660031901126109fb5760206040516103e88152f35b346109fb5760203660031901126109fb576020906001600160a01b0361206d612082565b165f526008825260ff60405f20541615158152f35b600435906001600160a01b03821682036109fb57565b602435906001600160a01b03821682036109fb57565b35906001600160a01b03821682036109fb57565b60609060031901126109fb57600435906024356001600160a01b03811681036109fb579060443590565b9181601f840112156109fb5782359167ffffffffffffffff83116109fb57602083818601950101116109fb57565b906101606003198301126109fb576004356001600160a01b03811681036109fb579160a06023198201126109fb57602491608060c3198301126109fb5760c491610144359067ffffffffffffffff82116109fb5761217a916004016120ec565b9091565b60409060031901126109fb576004359060243590565b906101406003198301126109fb576004356001600160a01b03811681036109fb579160a06023198201126109fb57602491606060c3198301126109fb5760c491610124359067ffffffffffffffff82116109fb5761217a916004016120ec565b906101a06003198301126109fb576004356001600160a01b03811681036109fb579160a06023198201126109fb57602491608060c3198301126109fb5760c49161014435916101643591610184359067ffffffffffffffff82116109fb5761217a916004016120ec565b6101606003198201126109fb576004356001600160a01b03811681036109fb579160a06023198301126109fb57602491606060c3198201126109fb5760c4916101243591610144359067ffffffffffffffff82116109fb5761217a916004016120ec565b60c435906001600160a01b03821682036109fb57565b60e435908160020b82036109fb57565b6101206003198201126109fb576004356001600160a01b03811681036109fb579160a06023198301126109fb5760249160c4359160e43591610104359067ffffffffffffffff82116109fb5761217a916004016120ec565b9190820180921161132857565b356001600160a01b03811681036109fb5790565b610100810190811067ffffffffffffffff82111761237e57604052565b634e487b7160e01b5f52604160045260245ffd5b6101c0810190811067ffffffffffffffff82111761237e57604052565b90601f8019910116810190811067ffffffffffffffff82111761237e57604052565b81156123db570490565b634e487b7160e01b5f52601260045260245ffd5b9190820391821161132857565b60025f541461240b5760025f55565b633ee5aeb560e01b5f5260045ffd5b91908260a09103126109fb5760405160a0810181811067ffffffffffffffff82111761237e57604052809261244e816120ae565b825261245c602082016120ae565b6020830152604081013562ffffff811681036109fb5760408301526060810135908160020b82036109fb57606083019190915260800135906001600160a01b03821682036109fb5760800152565b6001546001600160a01b031633036124be57565b63118cdaa760e01b5f523360045260245ffd5b60ff60015460a01c166124e057565b63d93c066560e01b5f5260045ffd5b6124f88161234d565b9060208101916125078361234d565b60408301359062ffffff821682036109fb57604080516001600160a01b0394851660208201908152949092169082015262ffffff90911660608201526125508160808101611c58565b5190205f52600b60205260405f20548061261b57506125ad9161257d61257760209361234d565b9161234d565b604051635620c32d60e11b81526001600160a01b0392831660048201529116602482015291829081906044820190565b03817f00000000000000000000000000000000000000000000000000000000000000006001600160a01b03165afa908115611207575f916125ec575090565b90506020813d602011612613575b81612607602093836123af565b810103126109fb575190565b3d91506125fa565b9150509056fea2646970667358221220120be75cd6c84605161e95b88a0ec7b745ac6dfbf5f0a30c162ca63a18c281ad64736f6c634300081a0033","linkReferences":{}},"methodIdentifiers":{"AVS_REWARD_PERCENTAGE()":"1a8a61f3","BASIS_POINTS()":"e1f1c4a7","GAS_COMPENSATION_PERCENTAGE()":"2ae8c718","LP_REWARD_PERCENTAGE()":"b26565c5","MAX_AUCTION_DURATION()":"3fb35178","MIN_BID()":"ce69cd20","PROTOCOL_FEE_PERCENTAGE()":"e4d7d6dc","activeAuctions(bytes32)":"5498304c","afterAddLiquidity(address,(address,address,uint24,int24,address),(int24,int24,int256,bytes32),int256,int256,bytes)":"9f063efc","afterDonate(address,(address,address,uint24,int24,address),uint256,uint256,bytes)":"e1b4af69","afterInitialize(address,(address,address,uint24,int24,address),uint160,int24)":"6fe7e6eb","afterRemoveLiquidity(address,(address,address,uint24,int24,address),(int24,int24,int256,bytes32),int256,int256,bytes)":"6c2bbe7e","afterSwap(address,(address,address,uint24,int24,address),(bool,int256,uint160),int256,bytes)":"b47b2fb1","auctions(bytes32)":"1edbc5be","authorizedOperators(address)":"181d989b","avsDirectory()":"6b3aa72e","beforeAddLiquidity(address,(address,address,uint24,int24,address),(int24,int24,int256,bytes32),bytes)":"259982e5","beforeDonate(address,(address,address,uint24,int24,address),uint256,uint256,bytes)":"b6a8b0fa","beforeInitialize(address,(address,address,uint24,int24,address),uint160)":"dc98354e","beforeRemoveLiquidity(address,(address,address,uint24,int24,address),(int24,int24,int256,bytes32),bytes)":"21d0ee70","beforeSwap(address,(address,address,uint24,int24,address),(bool,int256,uint160),bytes)":"575e24b4","claimRewards(bytes32)":"7790ddc6","feeRecipient()":"46904840","getHookPermissions()":"c4e833ce","lpLiquidity(bytes32,address)":"dcd728b5","lpRewards(bytes32,address)":"44612456","lvrThreshold()":"af4cbe80","mockPoolPrices(bytes32)":"d5eab68d","owner()":"8da5cb5b","pause()":"8456cb59","paused()":"5c975abb","poolManager()":"dc4c90d3","poolRewards(bytes32)":"c0e8d384","priceOracle()":"2630c12f","renounceOwnership()":"715018a6","setFeeRecipient(address)":"e74b981b","setLVRThreshold(uint256)":"d40ea4d9","setMockPoolPrice((address,address,uint24,int24,address),uint256)":"2619b98a","setOperatorAuthorization(address,bool)":"a99e4087","submitAuctionResult(bytes32,address,uint256)":"1e52301c","testAfterSwap(address,(address,address,uint24,int24,address),(bool,int256,uint160),int256,bytes)":"6fac2187","testBeforeAddLiquidity(address,(address,address,uint24,int24,address),(int24,int24,int256,bytes32),bytes)":"f6afbb63","testBeforeRemoveLiquidity(address,(address,address,uint24,int24,address),(int24,int24,int256,bytes32),bytes)":"83b83aca","testBeforeSwap(address,(address,address,uint24,int24,address),(bool,int256,uint160),bytes)":"c8dc5568","testClaimRewards(bytes32)":"ba651620","testCreateAuction(bytes32,bytes32,uint256,uint256,bool,bool)":"872edadc","testSetActiveAuction(bytes32,bytes32)":"4b2328e8","testSetLpLiquidity(bytes32,address,uint256)":"726b0114","testSetPoolRewards(bytes32,uint256)":"835c1a52","testSetTotalLiquidity(bytes32,uint256)":"44a32bff","testSubmitAuctionResult(bytes32,address,uint256)":"7f98978c","totalLiquidity(bytes32)":"54b7a8f7","transferOwnership(address)":"f2fde38b","unpause()":"3f4ba83a"},"id":53}