{"abi":[{"type":"constructor","inputs":[{"name":"_poolManager","type":"address","internalType":"contract IPoolManager"},{"name":"_avsDirectory","type":"address","internalType":"contract IAVSDirectory"},{"name":"_priceOracle","type":"address","internalType":"contract IPriceOracle"},{"name":"_feeRecipient","type":"address","internalType":"address"},{"name":"_lvrThreshold","type":"uint256","internalType":"uint256"}],"stateMutability":"nonpayable"},{"type":"receive","stateMutability":"payable"},{"type":"function","name":"AVS_REWARD_PERCENTAGE","inputs":[],"outputs":[{"name":"","type":"uint256","internalType":"uint256"}],"stateMutability":"view"},{"type":"function","name":"BASIS_POINTS","inputs":[],"outputs":[{"name":"","type":"uint256","internalType":"uint256"}],"stateMutability":"view"},{"type":"function","name":"GAS_COMPENSATION_PERCENTAGE","inputs":[],"outputs":[{"name":"","type":"uint256","internalType":"uint256"}],"stateMutability":"view"},{"type":"function","name":"LP_REWARD_PERCENTAGE","inputs":[],"outputs":[{"name":"","type":"uint256","internalType":"uint256"}],"stateMutability":"view"},{"type":"function","name":"MAX_AUCTION_DURATION","inputs":[],"outputs":[{"name":"","type":"uint256","internalType":"uint256"}],"stateMutability":"view"},{"type":"function","name":"MIN_BID","inputs":[],"outputs":[{"name":"","type":"uint256","internalType":"uint256"}],"stateMutability":"view"},{"type":"function","name":"PROTOCOL_FEE_PERCENTAGE","inputs":[],"outputs":[{"name":"","type":"uint256","internalType":"uint256"}],"stateMutability":"view"},{"type":"function","name":"activeAuctions","inputs":[{"name":"","type":"bytes32","internalType":"PoolId"}],"outputs":[{"name":"","type":"bytes32","internalType":"bytes32"}],"stateMutability":"view"},{"type":"function","name":"afterAddLiquidity","inputs":[{"name":"sender","type":"address","internalType":"address"},{"name":"key","type":"tuple","internalType":"struct PoolKey","components":[{"name":"currency0","type":"address","internalType":"Currency"},{"name":"currency1","type":"address","internalType":"Currency"},{"name":"fee","type":"uint24","internalType":"uint24"},{"name":"tickSpacing","type":"int24","internalType":"int24"},{"name":"hooks","type":"address","internalType":"contract IHooks"}]},{"name":"params","type":"tuple","internalType":"struct ModifyLiquidityParams","components":[{"name":"tickLower","type":"int24","internalType":"int24"},{"name":"tickUpper","type":"int24","internalType":"int24"},{"name":"liquidityDelta","type":"int256","internalType":"int256"},{"name":"salt","type":"bytes32","internalType":"bytes32"}]},{"name":"delta","type":"int256","internalType":"BalanceDelta"},{"name":"feesAccrued","type":"int256","internalType":"BalanceDelta"},{"name":"hookData","type":"bytes","internalType":"bytes"}],"outputs":[{"name":"","type":"bytes4","internalType":"bytes4"},{"name":"","type":"int256","internalType":"BalanceDelta"}],"stateMutability":"nonpayable"},{"type":"function","name":"afterDonate","inputs":[{"name":"sender","type":"address","internalType":"address"},{"name":"key","type":"tuple","internalType":"struct PoolKey","components":[{"name":"currency0","type":"address","internalType":"Currency"},{"name":"currency1","type":"address","internalType":"Currency"},{"name":"fee","type":"uint24","internalType":"uint24"},{"name":"tickSpacing","type":"int24","internalType":"int24"},{"name":"hooks","type":"address","internalType":"contract IHooks"}]},{"name":"amount0","type":"uint256","internalType":"uint256"},{"name":"amount1","type":"uint256","internalType":"uint256"},{"name":"hookData","type":"bytes","internalType":"bytes"}],"outputs":[{"name":"","type":"bytes4","internalType":"bytes4"}],"stateMutability":"nonpayable"},{"type":"function","name":"afterInitialize","inputs":[{"name":"sender","type":"address","internalType":"address"},{"name":"key","type":"tuple","internalType":"struct PoolKey","components":[{"name":"currency0","type":"address","internalType":"Currency"},{"name":"currency1","type":"address","internalType":"Currency"},{"name":"fee","type":"uint24","internalType":"uint24"},{"name":"tickSpacing","type":"int24","internalType":"int24"},{"name":"hooks","type":"address","internalType":"contract IHooks"}]},{"name":"sqrtPriceX96","type":"uint160","internalType":"uint160"},{"name":"tick","type":"int24","internalType":"int24"}],"outputs":[{"name":"","type":"bytes4","internalType":"bytes4"}],"stateMutability":"nonpayable"},{"type":"function","name":"afterRemoveLiquidity","inputs":[{"name":"sender","type":"address","internalType":"address"},{"name":"key","type":"tuple","internalType":"struct PoolKey","components":[{"name":"currency0","type":"address","internalType":"Currency"},{"name":"currency1","type":"address","internalType":"Currency"},{"name":"fee","type":"uint24","internalType":"uint24"},{"name":"tickSpacing","type":"int24","internalType":"int24"},{"name":"hooks","type":"address","internalType":"contract IHooks"}]},{"name":"params","type":"tuple","internalType":"struct ModifyLiquidityParams","components":[{"name":"tickLower","type":"int24","internalType":"int24"},{"name":"tickUpper","type":"int24","internalType":"int24"},{"name":"liquidityDelta","type":"int256","internalType":"int256"},{"name":"salt","type":"bytes32","internalType":"bytes32"}]},{"name":"delta","type":"int256","internalType":"BalanceDelta"},{"name":"feesAccrued","type":"int256","internalType":"BalanceDelta"},{"name":"hookData","type":"bytes","internalType":"bytes"}],"outputs":[{"name":"","type":"bytes4","internalType":"bytes4"},{"name":"","type":"int256","internalType":"BalanceDelta"}],"stateMutability":"nonpayable"},{"type":"function","name":"afterSwap","inputs":[{"name":"sender","type":"address","internalType":"address"},{"name":"key","type":"tuple","internalType":"struct PoolKey","components":[{"name":"currency0","type":"address","internalType":"Currency"},{"name":"currency1","type":"address","internalType":"Currency"},{"name":"fee","type":"uint24","internalType":"uint24"},{"name":"tickSpacing","type":"int24","internalType":"int24"},{"name":"hooks","type":"address","internalType":"contract IHooks"}]},{"name":"params","type":"tuple","internalType":"struct SwapParams","components":[{"name":"zeroForOne","type":"bool","internalType":"bool"},{"name":"amountSpecified","type":"int256","internalType":"int256"},{"name":"sqrtPriceLimitX96","type":"uint160","internalType":"uint160"}]},{"name":"delta","type":"int256","internalType":"BalanceDelta"},{"name":"hookData","type":"bytes","internalType":"bytes"}],"outputs":[{"name":"","type":"bytes4","internalType":"bytes4"},{"name":"","type":"int128","internalType":"int128"}],"stateMutability":"nonpayable"},{"type":"function","name":"auctions","inputs":[{"name":"","type":"bytes32","internalType":"bytes32"}],"outputs":[{"name":"poolId","type":"bytes32","internalType":"PoolId"},{"name":"startTime","type":"uint256","internalType":"uint256"},{"name":"duration","type":"uint256","internalType":"uint256"},{"name":"isActive","type":"bool","internalType":"bool"},{"name":"isComplete","type":"bool","internalType":"bool"},{"name":"winner","type":"address","internalType":"address"},{"name":"winningBid","type":"uint256","internalType":"uint256"},{"name":"totalBids","type":"uint256","internalType":"uint256"}],"stateMutability":"view"},{"type":"function","name":"authorizedOperators","inputs":[{"name":"","type":"address","internalType":"address"}],"outputs":[{"name":"","type":"bool","internalType":"bool"}],"stateMutability":"view"},{"type":"function","name":"avsDirectory","inputs":[],"outputs":[{"name":"","type":"address","internalType":"contract IAVSDirectory"}],"stateMutability":"view"},{"type":"function","name":"beforeAddLiquidity","inputs":[{"name":"sender","type":"address","internalType":"address"},{"name":"key","type":"tuple","internalType":"struct PoolKey","components":[{"name":"currency0","type":"address","internalType":"Currency"},{"name":"currency1","type":"address","internalType":"Currency"},{"name":"fee","type":"uint24","internalType":"uint24"},{"name":"tickSpacing","type":"int24","internalType":"int24"},{"name":"hooks","type":"address","internalType":"contract IHooks"}]},{"name":"params","type":"tuple","internalType":"struct ModifyLiquidityParams","components":[{"name":"tickLower","type":"int24","internalType":"int24"},{"name":"tickUpper","type":"int24","internalType":"int24"},{"name":"liquidityDelta","type":"int256","internalType":"int256"},{"name":"salt","type":"bytes32","internalType":"bytes32"}]},{"name":"hookData","type":"bytes","internalType":"bytes"}],"outputs":[{"name":"","type":"bytes4","internalType":"bytes4"}],"stateMutability":"nonpayable"},{"type":"function","name":"beforeDonate","inputs":[{"name":"sender","type":"address","internalType":"address"},{"name":"key","type":"tuple","internalType":"struct PoolKey","components":[{"name":"currency0","type":"address","internalType":"Currency"},{"name":"currency1","type":"address","internalType":"Currency"},{"name":"fee","type":"uint24","internalType":"uint24"},{"name":"tickSpacing","type":"int24","internalType":"int24"},{"name":"hooks","type":"address","internalType":"contract IHooks"}]},{"name":"amount0","type":"uint256","internalType":"uint256"},{"name":"amount1","type":"uint256","internalType":"uint256"},{"name":"hookData","type":"bytes","internalType":"bytes"}],"outputs":[{"name":"","type":"bytes4","internalType":"bytes4"}],"stateMutability":"nonpayable"},{"type":"function","name":"beforeInitialize","inputs":[{"name":"sender","type":"address","internalType":"address"},{"name":"key","type":"tuple","internalType":"struct PoolKey","components":[{"name":"currency0","type":"address","internalType":"Currency"},{"name":"currency1","type":"address","internalType":"Currency"},{"name":"fee","type":"uint24","internalType":"uint24"},{"name":"tickSpacing","type":"int24","internalType":"int24"},{"name":"hooks","type":"address","internalType":"contract IHooks"}]},{"name":"sqrtPriceX96","type":"uint160","internalType":"uint160"}],"outputs":[{"name":"","type":"bytes4","internalType":"bytes4"}],"stateMutability":"nonpayable"},{"type":"function","name":"beforeRemoveLiquidity","inputs":[{"name":"sender","type":"address","internalType":"address"},{"name":"key","type":"tuple","internalType":"struct PoolKey","components":[{"name":"currency0","type":"address","internalType":"Currency"},{"name":"currency1","type":"address","internalType":"Currency"},{"name":"fee","type":"uint24","internalType":"uint24"},{"name":"tickSpacing","type":"int24","internalType":"int24"},{"name":"hooks","type":"address","internalType":"contract IHooks"}]},{"name":"params","type":"tuple","internalType":"struct ModifyLiquidityParams","components":[{"name":"tickLower","type":"int24","internalType":"int24"},{"name":"tickUpper","type":"int24","internalType":"int24"},{"name":"liquidityDelta","type":"int256","internalType":"int256"},{"name":"salt","type":"bytes32","internalType":"bytes32"}]},{"name":"hookData","type":"bytes","internalType":"bytes"}],"outputs":[{"name":"","type":"bytes4","internalType":"bytes4"}],"stateMutability":"nonpayable"},{"type":"function","name":"beforeSwap","inputs":[{"name":"sender","type":"address","internalType":"address"},{"name":"key","type":"tuple","internalType":"struct PoolKey","components":[{"name":"currency0","type":"address","internalType":"Currency"},{"name":"currency1","type":"address","internalType":"Currency"},{"name":"fee","type":"uint24","internalType":"uint24"},{"name":"tickSpacing","type":"int24","internalType":"int24"},{"name":"hooks","type":"address","internalType":"contract IHooks"}]},{"name":"params","type":"tuple","internalType":"struct SwapParams","components":[{"name":"zeroForOne","type":"bool","internalType":"bool"},{"name":"amountSpecified","type":"int256","internalType":"int256"},{"name":"sqrtPriceLimitX96","type":"uint160","internalType":"uint160"}]},{"name":"hookData","type":"bytes","internalType":"bytes"}],"outputs":[{"name":"","type":"bytes4","internalType":"bytes4"},{"name":"","type":"int256","internalType":"BeforeSwapDelta"},{"name":"","type":"uint24","internalType":"uint24"}],"stateMutability":"nonpayable"},{"type":"function","name":"claimRewards","inputs":[{"name":"poolId","type":"bytes32","internalType":"PoolId"}],"outputs":[],"stateMutability":"nonpayable"},{"type":"function","name":"feeRecipient","inputs":[],"outputs":[{"name":"","type":"address","internalType":"address"}],"stateMutability":"view"},{"type":"function","name":"getHookPermissions","inputs":[],"outputs":[{"name":"","type":"tuple","internalType":"struct Hooks.Permissions","components":[{"name":"beforeInitialize","type":"bool","internalType":"bool"},{"name":"afterInitialize","type":"bool","internalType":"bool"},{"name":"beforeAddLiquidity","type":"bool","internalType":"bool"},{"name":"afterAddLiquidity","type":"bool","internalType":"bool"},{"name":"beforeRemoveLiquidity","type":"bool","internalType":"bool"},{"name":"afterRemoveLiquidity","type":"bool","internalType":"bool"},{"name":"beforeSwap","type":"bool","internalType":"bool"},{"name":"afterSwap","type":"bool","internalType":"bool"},{"name":"beforeDonate","type":"bool","internalType":"bool"},{"name":"afterDonate","type":"bool","internalType":"bool"},{"name":"beforeSwapReturnDelta","type":"bool","internalType":"bool"},{"name":"afterSwapReturnDelta","type":"bool","internalType":"bool"},{"name":"afterAddLiquidityReturnDelta","type":"bool","internalType":"bool"},{"name":"afterRemoveLiquidityReturnDelta","type":"bool","internalType":"bool"}]}],"stateMutability":"pure"},{"type":"function","name":"lpLiquidity","inputs":[{"name":"","type":"bytes32","internalType":"PoolId"},{"name":"","type":"address","internalType":"address"}],"outputs":[{"name":"","type":"uint256","internalType":"uint256"}],"stateMutability":"view"},{"type":"function","name":"lpRewards","inputs":[{"name":"","type":"bytes32","internalType":"PoolId"},{"name":"","type":"address","internalType":"address"}],"outputs":[{"name":"","type":"uint256","internalType":"uint256"}],"stateMutability":"view"},{"type":"function","name":"lvrThreshold","inputs":[],"outputs":[{"name":"","type":"uint256","internalType":"uint256"}],"stateMutability":"view"},{"type":"function","name":"mockPoolPrices","inputs":[{"name":"","type":"bytes32","internalType":"bytes32"}],"outputs":[{"name":"","type":"uint256","internalType":"uint256"}],"stateMutability":"view"},{"type":"function","name":"owner","inputs":[],"outputs":[{"name":"","type":"address","internalType":"address"}],"stateMutability":"view"},{"type":"function","name":"pause","inputs":[],"outputs":[],"stateMutability":"nonpayable"},{"type":"function","name":"paused","inputs":[],"outputs":[{"name":"","type":"bool","internalType":"bool"}],"stateMutability":"view"},{"type":"function","name":"poolManager","inputs":[],"outputs":[{"name":"","type":"address","internalType":"contract IPoolManager"}],"stateMutability":"view"},{"type":"function","name":"poolRewards","inputs":[{"name":"","type":"bytes32","internalType":"PoolId"}],"outputs":[{"name":"","type":"uint256","internalType":"uint256"}],"stateMutability":"view"},{"type":"function","name":"priceOracle","inputs":[],"outputs":[{"name":"","type":"address","internalType":"contract IPriceOracle"}],"stateMutability":"view"},{"type":"function","name":"renounceOwnership","inputs":[],"outputs":[],"stateMutability":"nonpayable"},{"type":"function","name":"setFeeRecipient","inputs":[{"name":"newFeeRecipient","type":"address","internalType":"address"}],"outputs":[],"stateMutability":"nonpayable"},{"type":"function","name":"setLVRThreshold","inputs":[{"name":"newThreshold","type":"uint256","internalType":"uint256"}],"outputs":[],"stateMutability":"nonpayable"},{"type":"function","name":"setMockPoolPrice","inputs":[{"name":"key","type":"tuple","internalType":"struct PoolKey","components":[{"name":"currency0","type":"address","internalType":"Currency"},{"name":"currency1","type":"address","internalType":"Currency"},{"name":"fee","type":"uint24","internalType":"uint24"},{"name":"tickSpacing","type":"int24","internalType":"int24"},{"name":"hooks","type":"address","internalType":"contract IHooks"}]},{"name":"price","type":"uint256","internalType":"uint256"}],"outputs":[],"stateMutability":"nonpayable"},{"type":"function","name":"setOperatorAuthorization","inputs":[{"name":"operator","type":"address","internalType":"address"},{"name":"authorized","type":"bool","internalType":"bool"}],"outputs":[],"stateMutability":"nonpayable"},{"type":"function","name":"submitAuctionResult","inputs":[{"name":"auctionId","type":"bytes32","internalType":"bytes32"},{"name":"winner","type":"address","internalType":"address"},{"name":"winningBid","type":"uint256","internalType":"uint256"}],"outputs":[],"stateMutability":"nonpayable"},{"type":"function","name":"testAfterSwap","inputs":[{"name":"sender","type":"address","internalType":"address"},{"name":"key","type":"tuple","internalType":"struct PoolKey","components":[{"name":"currency0","type":"address","internalType":"Currency"},{"name":"currency1","type":"address","internalType":"Currency"},{"name":"fee","type":"uint24","internalType":"uint24"},{"name":"tickSpacing","type":"int24","internalType":"int24"},{"name":"hooks","type":"address","internalType":"contract IHooks"}]},{"name":"params","type":"tuple","internalType":"struct SwapParams","components":[{"name":"zeroForOne","type":"bool","internalType":"bool"},{"name":"amountSpecified","type":"int256","internalType":"int256"},{"name":"sqrtPriceLimitX96","type":"uint160","internalType":"uint160"}]},{"name":"delta","type":"int256","internalType":"BalanceDelta"},{"name":"hookData","type":"bytes","internalType":"bytes"}],"outputs":[{"name":"","type":"bytes4","internalType":"bytes4"},{"name":"","type":"int128","internalType":"int128"}],"stateMutability":"nonpayable"},{"type":"function","name":"testBeforeAddLiquidity","inputs":[{"name":"sender","type":"address","internalType":"address"},{"name":"key","type":"tuple","internalType":"struct PoolKey","components":[{"name":"currency0","type":"address","internalType":"Currency"},{"name":"currency1","type":"address","internalType":"Currency"},{"name":"fee","type":"uint24","internalType":"uint24"},{"name":"tickSpacing","type":"int24","internalType":"int24"},{"name":"hooks","type":"address","internalType":"contract IHooks"}]},{"name":"params","type":"tuple","internalType":"struct ModifyLiquidityParams","components":[{"name":"tickLower","type":"int24","internalType":"int24"},{"name":"tickUpper","type":"int24","internalType":"int24"},{"name":"liquidityDelta","type":"int256","internalType":"int256"},{"name":"salt","type":"bytes32","internalType":"bytes32"}]},{"name":"hookData","type":"bytes","internalType":"bytes"}],"outputs":[{"name":"","type":"bytes4","internalType":"bytes4"}],"stateMutability":"nonpayable"},{"type":"function","name":"testBeforeRemoveLiquidity","inputs":[{"name":"sender","type":"address","internalType":"address"},{"name":"key","type":"tuple","internalType":"struct PoolKey","components":[{"name":"currency0","type":"address","internalType":"Currency"},{"name":"currency1","type":"address","internalType":"Currency"},{"name":"fee","type":"uint24","internalType":"uint24"},{"name":"tickSpacing","type":"int24","internalType":"int24"},{"name":"hooks","type":"address","internalType":"contract IHooks"}]},{"name":"params","type":"tuple","internalType":"struct ModifyLiquidityParams","components":[{"name":"tickLower","type":"int24","internalType":"int24"},{"name":"tickUpper","type":"int24","internalType":"int24"},{"name":"liquidityDelta","type":"int256","internalType":"int256"},{"name":"salt","type":"bytes32","internalType":"bytes32"}]},{"name":"hookData","type":"bytes","internalType":"bytes"}],"outputs":[{"name":"","type":"bytes4","internalType":"bytes4"}],"stateMutability":"nonpayable"},{"type":"function","name":"testBeforeSwap","inputs":[{"name":"sender","type":"address","internalType":"address"},{"name":"key","type":"tuple","internalType":"struct PoolKey","components":[{"name":"currency0","type":"address","internalType":"Currency"},{"name":"currency1","type":"address","internalType":"Currency"},{"name":"fee","type":"uint24","internalType":"uint24"},{"name":"tickSpacing","type":"int24","internalType":"int24"},{"name":"hooks","type":"address","internalType":"contract IHooks"}]},{"name":"params","type":"tuple","internalType":"struct SwapParams","components":[{"name":"zeroForOne","type":"bool","internalType":"bool"},{"name":"amountSpecified","type":"int256","internalType":"int256"},{"name":"sqrtPriceLimitX96","type":"uint160","internalType":"uint160"}]},{"name":"hookData","type":"bytes","internalType":"bytes"}],"outputs":[{"name":"","type":"bytes4","internalType":"bytes4"},{"name":"","type":"int256","internalType":"BeforeSwapDelta"},{"name":"","type":"uint24","internalType":"uint24"}],"stateMutability":"nonpayable"},{"type":"function","name":"testClaimRewards","inputs":[{"name":"poolId","type":"bytes32","internalType":"PoolId"}],"outputs":[],"stateMutability":"nonpayable"},{"type":"function","name":"testCreateAuction","inputs":[{"name":"poolId","type":"bytes32","internalType":"PoolId"},{"name":"auctionId","type":"bytes32","internalType":"bytes32"},{"name":"startTime","type":"uint256","internalType":"uint256"},{"name":"duration","type":"uint256","internalType":"uint256"},{"name":"isActive","type":"bool","internalType":"bool"},{"name":"isComplete","type":"bool","internalType":"bool"}],"outputs":[],"stateMutability":"nonpayable"},{"type":"function","name":"testSetActiveAuction","inputs":[{"name":"poolId","type":"bytes32","internalType":"PoolId"},{"name":"auctionId","type":"bytes32","internalType":"bytes32"}],"outputs":[],"stateMutability":"nonpayable"},{"type":"function","name":"testSetLpLiquidity","inputs":[{"name":"poolId","type":"bytes32","internalType":"PoolId"},{"name":"lp","type":"address","internalType":"address"},{"name":"amount","type":"uint256","internalType":"uint256"}],"outputs":[],"stateMutability":"nonpayable"},{"type":"function","name":"testSetPoolRewards","inputs":[{"name":"poolId","type":"bytes32","internalType":"PoolId"},{"name":"amount","type":"uint256","internalType":"uint256"}],"outputs":[],"stateMutability":"nonpayable"},{"type":"function","name":"testSetTotalLiquidity","inputs":[{"name":"poolId","type":"bytes32","internalType":"PoolId"},{"name":"amount","type":"uint256","internalType":"uint256"}],"outputs":[],"stateMutability":"nonpayable"},{"type":"function","name":"testSubmitAuctionResult","inputs":[{"name":"auctionId","type":"bytes32","internalType":"bytes32"},{"name":"winner","type":"address","internalType":"address"},{"name":"winningBid","type":"uint256","internalType":"uint256"}],"outputs":[],"stateMutability":"nonpayable"},{"type":"function","name":"totalLiquidity","inputs":[{"name":"","type":"bytes32","internalType":"PoolId"}],"outputs":[{"name":"","type":"uint256","internalType":"uint256"}],"stateMutability":"view"},{"type":"function","name":"transferOwnership","inputs":[{"name":"newOwner","type":"address","internalType":"address"}],"outputs":[],"stateMutability":"nonpayable"},{"type":"function","name":"unpause","inputs":[],"outputs":[],"stateMutability":"nonpayable"},{"type":"event","name":"AuctionEnded","inputs":[{"name":"auctionId","type":"bytes32","indexed":true,"internalType":"bytes32"},{"name":"poolId","type":"bytes32","indexed":true,"internalType":"PoolId"},{"name":"winner","type":"address","indexed":true,"internalType":"address"},{"name":"winningBid","type":"uint256","indexed":false,"internalType":"uint256"}],"anonymous":false},{"type":"event","name":"AuctionStarted","inputs":[{"name":"auctionId","type":"bytes32","indexed":true,"internalType":"bytes32"},{"name":"poolId","type":"bytes32","indexed":true,"internalType":"PoolId"},{"name":"startTime","type":"uint256","indexed":false,"internalType":"uint256"},{"name":"duration","type":"uint256","indexed":false,"internalType":"uint256"}],"anonymous":false},{"type":"event","name":"LVRThresholdUpdated","inputs":[{"name":"oldThreshold","type":"uint256","indexed":false,"internalType":"uint256"},{"name":"newThreshold","type":"uint256","indexed":false,"internalType":"uint256"}],"anonymous":false},{"type":"event","name":"MEVDistributed","inputs":[{"name":"poolId","type":"bytes32","indexed":true,"internalType":"PoolId"},{"name":"totalAmount","type":"uint256","indexed":false,"internalType":"uint256"},{"name":"lpAmount","type":"uint256","indexed":false,"internalType":"uint256"},{"name":"avsAmount","type":"uint256","indexed":false,"internalType":"uint256"},{"name":"protocolAmount","type":"uint256","indexed":false,"internalType":"uint256"}],"anonymous":false},{"type":"event","name":"OperatorAuthorized","inputs":[{"name":"operator","type":"address","indexed":true,"internalType":"address"},{"name":"authorized","type":"bool","indexed":false,"internalType":"bool"}],"anonymous":false},{"type":"event","name":"OwnershipTransferred","inputs":[{"name":"previousOwner","type":"address","indexed":true,"internalType":"address"},{"name":"newOwner","type":"address","indexed":true,"internalType":"address"}],"anonymous":false},{"type":"event","name":"Paused","inputs":[{"name":"account","type":"address","indexed":false,"internalType":"address"}],"anonymous":false},{"type":"event","name":"RewardsClaimed","inputs":[{"name":"poolId","type":"bytes32","indexed":true,"internalType":"PoolId"},{"name":"lp","type":"address","indexed":true,"internalType":"address"},{"name":"amount","type":"uint256","indexed":false,"internalType":"uint256"}],"anonymous":false},{"type":"event","name":"Unpaused","inputs":[{"name":"account","type":"address","indexed":false,"internalType":"address"}],"anonymous":false},{"type":"error","name":"EnforcedPause","inputs":[]},{"type":"error","name":"ExpectedPause","inputs":[]},{"type":"error","name":"HookNotImplemented","inputs":[]},{"type":"error","name":"NotPoolManager","inputs":[]},{"type":"error","name":"OwnableInvalidOwner","inputs":[{"name":"owner","type":"address","internalType":"address"}]},{"type":"error","name":"OwnableUnauthorizedAccount","inputs":[{"name":"account","type":"address","internalType":"address"}]},{"type":"error","name":"ReentrancyGuardReentrantCall","inputs":[]}],"bytecode":{"object":"0x60e03461018857601f6122df38819003918201601f19168301916001600160401b0383118484101761018c5780849260a0946040528339810103126101885780516001600160a01b0381168103610188576020820151916001600160a01b03831683036101885760408101516001600160a01b03811681036101885760608201516001600160a01b038116929083900361018857608001519260805260015f553315610175576001546040519490336001600160a01b0382167f8be0079c531659141344cd1fd0a4f28419497f9722a3daafe3b4186f6b6457e05f80a36001600160a81b0319163360ff60a01b19161760015560a05260c052600980546001600160a01b031916919091179055600a5561213e90816101a1823960805181818161046c015281816105320152818161058401528181610c9901528181610f5b015281816114a401528181611783015261183e015260a0518161143a015260c0518181816107210152818161169901526120980152f35b631e4fbdf760e01b5f525f60045260245ffd5b5f80fd5b634e487b7160e01b5f52604160045260245ffdfe608080604052600436101561001c575b50361561001a575f80fd5b005b5f3560e01c908163181d989b14611a39575080631a8a61f314611a1d5780631e52301c146119025780631edbc5be1461187b57806321d0ee7014611829578063259982e51461176e5780632619b98a146116c85780632630c12f146116845780632ae8c718146116695780633f4ba83a146115fb5780633fb35178146115e0578063446124561461159c57806344a32bff1461157d57806346904840146115555780634b2328e81461152e5780635498304c1461150457806354b7a8f7146114da578063575e24b41461148e5780635c975abb146114695780636b3aa72e146114255780636c2bbe7e14610f485780636fac2187146114055780636fe7e6eb146113cd578063715018a614611372578063726b01141461132e5780637790ddc61461121f5780637f98978c1461119a578063835c1a521461117b57806383b83aca146110ef5780638456cb591461108e578063872edadc14610fc65780638da5cb5b14610f9e5780639f063efc14610f48578063a99e408714610ec2578063af4cbe8014610ea5578063b26565c514610e89578063b47b2fb114610c83578063b6a8b0fa14610459578063ba65162014610b9b578063c0e8d38414610b71578063c4e833ce14610a09578063c8dc5568146106a1578063ce69cd2014610680578063d40ea4d9146105dd578063d5eab68d146105b3578063dc4c90d31461056f578063dc98354e14610501578063dcd728b5146104bd578063e1b4af6914610459578063e1f1c4a71461043d578063e4d7d6dc14610421578063e74b981b14610390578063f2fde38b1461030a5763f6afbb631461027a575f61000f565b346103065761029c60a0604061028f36611b0a565b5050939194903690611f01565b20910135915f83136102bb575b60405163259982e560e01b8152602090f35b815f52600760205260405f209060018060a01b03165f5260205260405f206102e4838254611d7c565b90555f5260066020526102fc60405f20918254611d7c565b90555f80806102a9565b5f80fd5b3461030657602036600319011261030657610323611a72565b61032b611f91565b6001600160a01b0316801561037d57600180546001600160a01b0319811683179091556001600160a01b03167f8be0079c531659141344cd1fd0a4f28419497f9722a3daafe3b4186f6b6457e05f80a3005b631e4fbdf760e01b5f525f60045260245ffd5b34610306576020366003190112610306576103a9611a72565b6103b1611f91565b6001600160a01b031680156103dc576bffffffffffffffffffffffff60a01b60095416176009555f80f35b60405162461bcd60e51b815260206004820152601960248201527f456967656e4c56523a20696e76616c69642061646472657373000000000000006044820152606490fd5b34610306575f36600319011261030657602060405161012c8152f35b34610306575f3660031901126103065760206040516127108152f35b346103065761046736611cd8565b5050507f00000000000000000000000000000000000000000000000000000000000000006001600160a01b0316330392506104ae91505057630a85dc2960e01b5f5260045ffd5b63570c108560e11b5f5260045ffd5b34610306576040366003190112610306576104d6611a88565b6004355f52600760205260405f209060018060a01b03165f52602052602060405f2054604051908152f35b346103065760e03660031901126103065761051a611a72565b5060a03660231901126103065761052f611cb2565b507f00000000000000000000000000000000000000000000000000000000000000006001600160a01b031633036104ae57630a85dc2960e01b5f5260045ffd5b34610306575f366003190112610306576040517f00000000000000000000000000000000000000000000000000000000000000006001600160a01b03168152602090f35b34610306576020366003190112610306576004355f52600b602052602060405f2054604051908152f35b34610306576020366003190112610306576004356105f9611f91565b6103e8811161063b5760407ff579147a7a27652efe56a2f791890638acfb4625388b7c67846205588b4009fb91600a549080600a5582519182526020820152a1005b60405162461bcd60e51b815260206004820152601c60248201527f456967656e4c56523a207468726573686f6c6420746f6f2068696768000000006044820152606490fd5b34610306575f36600319011261030657602060405166038d7ea4c680008152f35b34610306576106af36611b84565b50509091506106bc611fb8565b61071d60a06106cb3685611f01565b209260206106d882611fd6565b916106ed826106e683611dd5565b9201611dd5565b604051635620c32d60e11b81526001600160a01b0392831660048201529116602482015292839081906044820190565b03817f00000000000000000000000000000000000000000000000000000000000000006001600160a01b03165afa9182156109fe575f926109ca575b508181111561099b578161076c91611ed6565b9061271082029180830461271014901517156109875761078b91611eb8565b600a5411159081610954575b506107c6575b604051806107c281905f604060608401936315d7892d60e21b81528260208201520152565b0390f35b6040516020810190828252426040820152436060820152606081526107ec608082611e37565b519020815f52600260205260405f20546109105760405161080c81611de9565b82815260056020820142815260408301600c81526108c26060850160018152608086015f815261089d60a08801915f835260c08901955f875260e08a01975f89528b5f52600360205260405f209a518b555160018b01555160028a015561088660038a0194511515859060ff801983541691151516179055565b51835461ff00191690151560081b61ff0016178355565b51815462010000600160b01b03191660109190911b62010000600160b01b0316179055565b51600484015551910155815f5260026020528060405f20557f8d50f1936786e8fcaf1a432bed2207696b5cc11646e7107f3e439f44546d848260408051428152600c6020820152a38061079d565b606460405162461bcd60e51b815260206004820152602060248201527f456967656e4c56523a2061756374696f6e20616c7265616479206163746976656044820152fd5b602091500135670de0b6b3a76400008113908115610974575b5082610797565b670de0b6b3a763ffff191390508261096d565b634e487b7160e01b5f52601160045260245ffd5b90816109a691611ed6565b906127108202918083046127101490151715610987576109c591611eb8565b61078b565b9091506020813d6020116109f6575b816109e660209383611e37565b8101031261030657519084610759565b3d91506109d9565b6040513d5f823e3d90fd5b34610306575f366003190112610306575f6101a0604051610a2981611e1a565b8281528260208201528260408201528260608201528260808201528260a08201528260c08201528260e0820152826101008201528261012082015282610140820152826101608201528261018082015201526101c06020604051610a8c81611e1a565b5f8152818101905f82526040810160018152606082015f8152608083016001815260a084015f815260c085016001815260e0860190600182526101008701925f84526101208801945f86526101408901965f88526101608a01985f8a526101a06101808c019b5f8d52019b5f8d526040519d8e915f835251151591015251151560408d015251151560608c015251151560808b015251151560a08a015251151560c089015251151560e08801525115156101008701525115156101208601525115156101408501525115156101608401525115156101808301525115156101a0820152f35b34610306576020366003190112610306576004355f526004602052602060405f2054604051908152f35b34610306576020366003190112610306576004355f818152600760209081526040808320338452909152902054610bd3811515611e59565b815f52600660205260405f2054825f52600460205260405f20549182151580610c7a575b610bfd57005b610c0f92610c0a91611ea5565b611eb8565b80158015610c1957005b5f8093928193928383948452600460205260408420610c39848254611ed6565b9055835260056020908152604080852033865290915283208054610c5e908490611d7c565b90558290610c71575b3390f1156109fe57005b506108fc610c67565b50811515610bf7565b3461030657610c9136611c4e565b5092935050507f00000000000000000000000000000000000000000000000000000000000000006001600160a01b0316330390506104ae57610cd660a0913690611f01565b20805f52600260205260405f205480151580610e6d575b610d08575b6040805163b47b2fb160e01b81525f6020820152f35b5f526003602052600460405f20015480158015610d36575b50505f5260026020525f60408120558080610cf2565b612134820282810461213414821715610987576127109004916103e881028181046103e81483171561098757612710900461012c82029282840461012c1417156109875761271085930493835f52600460205260405f20610d98828254611d7c565b9055835f52600460205260405f20610db1828254611d7c565b905581158015610e43575b5084158015610e0c575b5093608092917f9f28cf522c1dd60442bfdecae6dfd5abc02b942618ef4f1e2fb7f3efdc8b4f459495604051938452602084015260408301526060820152a28180610d20565b5f8080939594965087819360018060a01b0360095416908390610e3a575bf1156109fe579091849286610dc6565b506108fc610e2a565b829194505f90610e64575b5f80809381933390f1156109fe57849286610dbc565b506108fc610e4e565b50805f52600360205260ff600360405f20015460081c16610ced565b34610306575f3660031901126103065760206040516121348152f35b34610306575f366003190112610306576020600a54604051908152f35b3461030657604036600319011261030657610edb611a72565b6024359081151590818303610306577fc176fcf7d48a6aca0d96d3b3201f7add47c4af04ce9a51f5f4eb15d528c46e2191610f3f602092610f1a611f91565b60018060a01b031694855f526008845260405f209060ff801983541691151516179055565b604051908152a2005b3461030657610f5636611be4565b5050507f00000000000000000000000000000000000000000000000000000000000000006001600160a01b0316330393506104ae9250505057630a85dc2960e01b5f5260045ffd5b34610306575f366003190112610306576001546040516001600160a01b039091168152602090f35b346103065760c0366003190112610306576084358015158091036103065760a43590811515809203610306576005906040519261100284611de9565b60043584526110826020850192604435845260408601926064358452606087019182526080870190815261089d60a08801915f835260c08901955f875260e08a01975f89526024355f52600360205260405f209a518b555160018b01555160028a015561088660038a0194511515859060ff801983541691151516179055565b51600484015551910155005b34610306575f366003190112610306576110a6611f91565b6110ae611fb8565b6001805460ff60a01b1916600160a01b1790556040513381527f62e78cea01bee320cd4e420270b5ea74000d11b0c9f74754ebdbfc544b05a25890602090a1005b346103065761110460a0604061028f36611b0a565b209101355f8112611122575b60405163021d0ee760e41b8152602090f35b600160ff1b8114610987575f0391815f52600760205260405f209060018060a01b03165f5260205260405f20611159838254611ed6565b90555f52600660205261117160405f20918254611ed6565b9055808080611110565b346103065761118936611b6e565b905f52600460205260405f20555f80f35b34610306576111a836611ab2565b90915f526003602052600460405f2061120e60038201946111cc60ff875416611d30565b6111ea6111e26001850154600286015490611d7c565b421015611d89565b855462010000600160b01b03191660109190911b62010000600160b01b0316178555565b0155805461ffff1916610100179055005b346103065760203660031901126103065760043561123b611ee3565b5f81815260076020908152604080832033845290915290205461128690611263811515611e59565b825f526006602052610c0a60405f205491845f52600460205260405f2054611ea5565b9081158015611296575b60015f55005b8290825f52600560205260405f2060018060a01b0333165f5260205260405f206112c1838254611d7c565b9055825f52600460205260405f206112da838254611ed6565b90555f90611325575b5f80809381933390f1156109fe576040519182527ffec539b3c42d74cd492c3ecf7966bf014b327beef98e935cdc3ec5e54a6901c760203393a3808080611290565b506108fc6112e3565b3461030657606036600319011261030657611347611a88565b6004355f9081526007602090815260408083206001600160a01b039094168352929052206044359055005b34610306575f3660031901126103065761138a611f91565b600180546001600160a01b031981169091555f906001600160a01b03167f8be0079c531659141344cd1fd0a4f28419497f9722a3daafe3b4186f6b6457e08280a3005b3461030657610100366003190112610306576113e7611a72565b5060a0366023190112610306576113fc611cb2565b5061052f611cc8565b346103065760a0610cd661141836611c4e565b5050505090503690611f01565b34610306575f366003190112610306576040517f00000000000000000000000000000000000000000000000000000000000000006001600160a01b03168152602090f35b34610306575f36600319011261030657602060ff60015460a01c166040519015158152f35b346103065761149c36611b84565b5091925090507f00000000000000000000000000000000000000000000000000000000000000006001600160a01b031633036104ae576106bc611fb8565b34610306576020366003190112610306576004355f526006602052602060405f2054604051908152f35b34610306576020366003190112610306576004355f526002602052602060405f2054604051908152f35b34610306576040366003190112610306576004355f52600260205260243560405f20555f80f35b34610306575f366003190112610306576009546040516001600160a01b039091168152602090f35b346103065761158b36611b6e565b905f52600660205260405f20555f80f35b34610306576040366003190112610306576115b5611a88565b6004355f52600560205260405f209060018060a01b03165f52602052602060405f2054604051908152f35b34610306575f366003190112610306576020604051600c8152f35b34610306575f36600319011261030657611613611f91565b60015460ff8160a01c161561165a5760ff60a01b19166001556040513381527f5db9ee0a495bf2e6ff9c91a7834c1ba4fdd244a5e8aa4e537bd38aeae4b073aa90602090a1005b638dfc202b60e01b5f5260045ffd5b34610306575f36600319011261030657602060405160c88152f35b34610306575f366003190112610306576040517f00000000000000000000000000000000000000000000000000000000000000006001600160a01b03168152602090f35b3461030657366003190160c081126103065760a013610306576004356001600160a01b0381168103610306576024356001600160a01b0381168103610306576044359062ffffff8216820361030657604080516001600160a01b0394851660208201908152949092169082015262ffffff909116606082015261175881608081015b03601f198101835282611e37565b5190205f52600b60205260a43560405f20555f80f35b346103065761177c36611b0a565b50909190507f00000000000000000000000000000000000000000000000000000000000000006001600160a01b031633036104ae5760a06117c06040923690611f01565b20910135915f83136117de5760405163259982e560e01b8152602090f35b815f52600760205260405f209060018060a01b03165f5260205260405f20611807838254611d7c565b90555f52600660205261181f60405f20918254611d7c565b90558080806102a9565b346103065761183736611b0a565b50909190507f00000000000000000000000000000000000000000000000000000000000000006001600160a01b031633036104ae5760a06111046040923690611f01565b34610306576020366003190112610306576004355f52600360205261010060405f20805490600181015490600281015460038201549060056004840154930154936040519586526020860152604085015260ff81161515606085015260ff8160081c161515608085015260018060a01b039060101c1660a084015260c083015260e0820152f35b346103065761191036611ab2565b91335f52600860205260ff60405f205416156119d857805f52600360205261194160ff600360405f20015416611d30565b611949611ee3565b805f5260036020527f32f65ad10bfa4a0ee9db45ba15bf04a4005908f729d666edbc5e421b4519206c602060405f2061198e6111e26001830154600284015490611d7c565b600381018054600483018890556101006001600160b01b031990911662010000600160b01b03601089901b1617179055546040519586526001600160a01b0390941694a460015f55005b60405162461bcd60e51b815260206004820152601f60248201527f456967656e4c56523a20756e617574686f72697a6564206f70657261746f72006044820152606490fd5b34610306575f3660031901126103065760206040516103e88152f35b34610306576020366003190112610306576020906001600160a01b03611a5d611a72565b165f526008825260ff60405f20541615158152f35b600435906001600160a01b038216820361030657565b602435906001600160a01b038216820361030657565b35906001600160a01b038216820361030657565b606090600319011261030657600435906024356001600160a01b0381168103610306579060443590565b9181601f840112156103065782359167ffffffffffffffff8311610306576020838186019501011161030657565b90610160600319830112610306576004356001600160a01b0381168103610306579160a060231982011261030657602491608060c3198301126103065760c491610144359067ffffffffffffffff821161030657611b6a91600401611adc565b9091565b6040906003190112610306576004359060243590565b90610140600319830112610306576004356001600160a01b0381168103610306579160a060231982011261030657602491606060c3198301126103065760c491610124359067ffffffffffffffff821161030657611b6a91600401611adc565b906101a0600319830112610306576004356001600160a01b0381168103610306579160a060231982011261030657602491608060c3198301126103065760c49161014435916101643591610184359067ffffffffffffffff821161030657611b6a91600401611adc565b610160600319820112610306576004356001600160a01b0381168103610306579160a060231983011261030657602491606060c3198201126103065760c4916101243591610144359067ffffffffffffffff821161030657611b6a91600401611adc565b60c435906001600160a01b038216820361030657565b60e435908160020b820361030657565b610120600319820112610306576004356001600160a01b0381168103610306579160a06023198301126103065760249160c4359160e43591610104359067ffffffffffffffff821161030657611b6a91600401611adc565b15611d3757565b60405162461bcd60e51b815260206004820152601c60248201527f456967656e4c56523a2061756374696f6e206e6f7420616374697665000000006044820152606490fd5b9190820180921161098757565b15611d9057565b60405162461bcd60e51b815260206004820152601b60248201527f456967656e4c56523a2061756374696f6e206e6f7420656e64656400000000006044820152606490fd5b356001600160a01b03811681036103065790565b610100810190811067ffffffffffffffff821117611e0657604052565b634e487b7160e01b5f52604160045260245ffd5b6101c0810190811067ffffffffffffffff821117611e0657604052565b90601f8019910116810190811067ffffffffffffffff821117611e0657604052565b15611e6057565b60405162461bcd60e51b815260206004820152601f60248201527f456967656e4c56523a206e6f206c69717569646974792070726f7669646564006044820152606490fd5b8181029291811591840414171561098757565b8115611ec2570490565b634e487b7160e01b5f52601260045260245ffd5b9190820391821161098757565b60025f5414611ef25760025f55565b633ee5aeb560e01b5f5260045ffd5b91908260a09103126103065760405160a0810181811067ffffffffffffffff821117611e06576040528092611f3581611a9e565b8252611f4360208201611a9e565b6020830152604081013562ffffff811681036103065760408301526060810135908160020b820361030657606083019190915260800135906001600160a01b03821682036103065760800152565b6001546001600160a01b03163303611fa557565b63118cdaa760e01b5f523360045260245ffd5b60ff60015460a01c16611fc757565b63d93c066560e01b5f5260045ffd5b611fdf81611dd5565b906020810191611fee83611dd5565b60408301359062ffffff8216820361030657604080516001600160a01b0394851660208201908152949092169082015262ffffff9091166060820152612037816080810161174a565b5190205f52600b60205260405f20548061210257506120949161206461205e602093611dd5565b91611dd5565b604051635620c32d60e11b81526001600160a01b0392831660048201529116602482015291829081906044820190565b03817f00000000000000000000000000000000000000000000000000000000000000006001600160a01b03165afa9081156109fe575f916120d3575090565b90506020813d6020116120fa575b816120ee60209383611e37565b81010312610306575190565b3d91506120e1565b9150509056fea26469706673582212200d88b6099379618771696a003ea1a790c21582739e34e8043f5b1ebaaa74683764736f6c634300081a0033","linkReferences":{}},"methodIdentifiers":{"AVS_REWARD_PERCENTAGE()":"1a8a61f3","BASIS_POINTS()":"e1f1c4a7","GAS_COMPENSATION_PERCENTAGE()":"2ae8c718","LP_REWARD_PERCENTAGE()":"b26565c5","MAX_AUCTION_DURATION()":"3fb35178","MIN_BID()":"ce69cd20","PROTOCOL_FEE_PERCENTAGE()":"e4d7d6dc","activeAuctions(bytes32)":"5498304c","afterAddLiquidity(address,(address,address,uint24,int24,address),(int24,int24,int256,bytes32),int256,int256,bytes)":"9f063efc","afterDonate(address,(address,address,uint24,int24,address),uint256,uint256,bytes)":"e1b4af69","afterInitialize(address,(address,address,uint24,int24,address),uint160,int24)":"6fe7e6eb","afterRemoveLiquidity(address,(address,address,uint24,int24,address),(int24,int24,int256,bytes32),int256,int256,bytes)":"6c2bbe7e","afterSwap(address,(address,address,uint24,int24,address),(bool,int256,uint160),int256,bytes)":"b47b2fb1","auctions(bytes32)":"1edbc5be","authorizedOperators(address)":"181d989b","avsDirectory()":"6b3aa72e","beforeAddLiquidity(address,(address,address,uint24,int24,address),(int24,int24,int256,bytes32),bytes)":"259982e5","beforeDonate(address,(address,address,uint24,int24,address),uint256,uint256,bytes)":"b6a8b0fa","beforeInitialize(address,(address,address,uint24,int24,address),uint160)":"dc98354e","beforeRemoveLiquidity(address,(address,address,uint24,int24,address),(int24,int24,int256,bytes32),bytes)":"21d0ee70","beforeSwap(address,(address,address,uint24,int24,address),(bool,int256,uint160),bytes)":"575e24b4","claimRewards(bytes32)":"7790ddc6","feeRecipient()":"46904840","getHookPermissions()":"c4e833ce","lpLiquidity(bytes32,address)":"dcd728b5","lpRewards(bytes32,address)":"44612456","lvrThreshold()":"af4cbe80","mockPoolPrices(bytes32)":"d5eab68d","owner()":"8da5cb5b","pause()":"8456cb59","paused()":"5c975abb","poolManager()":"dc4c90d3","poolRewards(bytes32)":"c0e8d384","priceOracle()":"2630c12f","renounceOwnership()":"715018a6","setFeeRecipient(address)":"e74b981b","setLVRThreshold(uint256)":"d40ea4d9","setMockPoolPrice((address,address,uint24,int24,address),uint256)":"2619b98a","setOperatorAuthorization(address,bool)":"a99e4087","submitAuctionResult(bytes32,address,uint256)":"1e52301c","testAfterSwap(address,(address,address,uint24,int24,address),(bool,int256,uint160),int256,bytes)":"6fac2187","testBeforeAddLiquidity(address,(address,address,uint24,int24,address),(int24,int24,int256,bytes32),bytes)":"f6afbb63","testBeforeRemoveLiquidity(address,(address,address,uint24,int24,address),(int24,int24,int256,bytes32),bytes)":"83b83aca","testBeforeSwap(address,(address,address,uint24,int24,address),(bool,int256,uint160),bytes)":"c8dc5568","testClaimRewards(bytes32)":"ba651620","testCreateAuction(bytes32,bytes32,uint256,uint256,bool,bool)":"872edadc","testSetActiveAuction(bytes32,bytes32)":"4b2328e8","testSetLpLiquidity(bytes32,address,uint256)":"726b0114","testSetPoolRewards(bytes32,uint256)":"835c1a52","testSetTotalLiquidity(bytes32,uint256)":"44a32bff","testSubmitAuctionResult(bytes32,address,uint256)":"7f98978c","totalLiquidity(bytes32)":"54b7a8f7","transferOwnership(address)":"f2fde38b","unpause()":"3f4ba83a"},"id":53}