{"abi":[{"type":"constructor","inputs":[{"name":"_poolManager","type":"address","internalType":"contract IPoolManager"},{"name":"_avsDirectory","type":"address","internalType":"contract IAVSDirectory"},{"name":"_priceOracle","type":"address","internalType":"contract IPriceOracle"},{"name":"_feeRecipient","type":"address","internalType":"address"},{"name":"_lvrThreshold","type":"uint256","internalType":"uint256"}],"stateMutability":"nonpayable"},{"type":"receive","stateMutability":"payable"},{"type":"function","name":"AVS_REWARD_PERCENTAGE","inputs":[],"outputs":[{"name":"","type":"uint256","internalType":"uint256"}],"stateMutability":"view"},{"type":"function","name":"BASIS_POINTS","inputs":[],"outputs":[{"name":"","type":"uint256","internalType":"uint256"}],"stateMutability":"view"},{"type":"function","name":"GAS_COMPENSATION_PERCENTAGE","inputs":[],"outputs":[{"name":"","type":"uint256","internalType":"uint256"}],"stateMutability":"view"},{"type":"function","name":"LP_REWARD_PERCENTAGE","inputs":[],"outputs":[{"name":"","type":"uint256","internalType":"uint256"}],"stateMutability":"view"},{"type":"function","name":"MAX_AUCTION_DURATION","inputs":[],"outputs":[{"name":"","type":"uint256","internalType":"uint256"}],"stateMutability":"view"},{"type":"function","name":"MIN_BID","inputs":[],"outputs":[{"name":"","type":"uint256","internalType":"uint256"}],"stateMutability":"view"},{"type":"function","name":"PROTOCOL_FEE_PERCENTAGE","inputs":[],"outputs":[{"name":"","type":"uint256","internalType":"uint256"}],"stateMutability":"view"},{"type":"function","name":"activeAuctions","inputs":[{"name":"","type":"bytes32","internalType":"PoolId"}],"outputs":[{"name":"","type":"bytes32","internalType":"bytes32"}],"stateMutability":"view"},{"type":"function","name":"afterAddLiquidity","inputs":[{"name":"sender","type":"address","internalType":"address"},{"name":"key","type":"tuple","internalType":"struct PoolKey","components":[{"name":"currency0","type":"address","internalType":"Currency"},{"name":"currency1","type":"address","internalType":"Currency"},{"name":"fee","type":"uint24","internalType":"uint24"},{"name":"tickSpacing","type":"int24","internalType":"int24"},{"name":"hooks","type":"address","internalType":"contract IHooks"}]},{"name":"params","type":"tuple","internalType":"struct ModifyLiquidityParams","components":[{"name":"tickLower","type":"int24","internalType":"int24"},{"name":"tickUpper","type":"int24","internalType":"int24"},{"name":"liquidityDelta","type":"int256","internalType":"int256"},{"name":"salt","type":"bytes32","internalType":"bytes32"}]},{"name":"delta","type":"int256","internalType":"BalanceDelta"},{"name":"feesAccrued","type":"int256","internalType":"BalanceDelta"},{"name":"hookData","type":"bytes","internalType":"bytes"}],"outputs":[{"name":"","type":"bytes4","internalType":"bytes4"},{"name":"","type":"int256","internalType":"BalanceDelta"}],"stateMutability":"nonpayable"},{"type":"function","name":"afterDonate","inputs":[{"name":"sender","type":"address","internalType":"address"},{"name":"key","type":"tuple","internalType":"struct PoolKey","components":[{"name":"currency0","type":"address","internalType":"Currency"},{"name":"currency1","type":"address","internalType":"Currency"},{"name":"fee","type":"uint24","internalType":"uint24"},{"name":"tickSpacing","type":"int24","internalType":"int24"},{"name":"hooks","type":"address","internalType":"contract IHooks"}]},{"name":"amount0","type":"uint256","internalType":"uint256"},{"name":"amount1","type":"uint256","internalType":"uint256"},{"name":"hookData","type":"bytes","internalType":"bytes"}],"outputs":[{"name":"","type":"bytes4","internalType":"bytes4"}],"stateMutability":"nonpayable"},{"type":"function","name":"afterInitialize","inputs":[{"name":"sender","type":"address","internalType":"address"},{"name":"key","type":"tuple","internalType":"struct PoolKey","components":[{"name":"currency0","type":"address","internalType":"Currency"},{"name":"currency1","type":"address","internalType":"Currency"},{"name":"fee","type":"uint24","internalType":"uint24"},{"name":"tickSpacing","type":"int24","internalType":"int24"},{"name":"hooks","type":"address","internalType":"contract IHooks"}]},{"name":"sqrtPriceX96","type":"uint160","internalType":"uint160"},{"name":"tick","type":"int24","internalType":"int24"}],"outputs":[{"name":"","type":"bytes4","internalType":"bytes4"}],"stateMutability":"nonpayable"},{"type":"function","name":"afterRemoveLiquidity","inputs":[{"name":"sender","type":"address","internalType":"address"},{"name":"key","type":"tuple","internalType":"struct PoolKey","components":[{"name":"currency0","type":"address","internalType":"Currency"},{"name":"currency1","type":"address","internalType":"Currency"},{"name":"fee","type":"uint24","internalType":"uint24"},{"name":"tickSpacing","type":"int24","internalType":"int24"},{"name":"hooks","type":"address","internalType":"contract IHooks"}]},{"name":"params","type":"tuple","internalType":"struct ModifyLiquidityParams","components":[{"name":"tickLower","type":"int24","internalType":"int24"},{"name":"tickUpper","type":"int24","internalType":"int24"},{"name":"liquidityDelta","type":"int256","internalType":"int256"},{"name":"salt","type":"bytes32","internalType":"bytes32"}]},{"name":"delta","type":"int256","internalType":"BalanceDelta"},{"name":"feesAccrued","type":"int256","internalType":"BalanceDelta"},{"name":"hookData","type":"bytes","internalType":"bytes"}],"outputs":[{"name":"","type":"bytes4","internalType":"bytes4"},{"name":"","type":"int256","internalType":"BalanceDelta"}],"stateMutability":"nonpayable"},{"type":"function","name":"afterSwap","inputs":[{"name":"sender","type":"address","internalType":"address"},{"name":"key","type":"tuple","internalType":"struct PoolKey","components":[{"name":"currency0","type":"address","internalType":"Currency"},{"name":"currency1","type":"address","internalType":"Currency"},{"name":"fee","type":"uint24","internalType":"uint24"},{"name":"tickSpacing","type":"int24","internalType":"int24"},{"name":"hooks","type":"address","internalType":"contract IHooks"}]},{"name":"params","type":"tuple","internalType":"struct SwapParams","components":[{"name":"zeroForOne","type":"bool","internalType":"bool"},{"name":"amountSpecified","type":"int256","internalType":"int256"},{"name":"sqrtPriceLimitX96","type":"uint160","internalType":"uint160"}]},{"name":"delta","type":"int256","internalType":"BalanceDelta"},{"name":"hookData","type":"bytes","internalType":"bytes"}],"outputs":[{"name":"","type":"bytes4","internalType":"bytes4"},{"name":"","type":"int128","internalType":"int128"}],"stateMutability":"nonpayable"},{"type":"function","name":"auctions","inputs":[{"name":"","type":"bytes32","internalType":"bytes32"}],"outputs":[{"name":"poolId","type":"bytes32","internalType":"PoolId"},{"name":"startTime","type":"uint256","internalType":"uint256"},{"name":"duration","type":"uint256","internalType":"uint256"},{"name":"isActive","type":"bool","internalType":"bool"},{"name":"isComplete","type":"bool","internalType":"bool"},{"name":"winner","type":"address","internalType":"address"},{"name":"winningBid","type":"uint256","internalType":"uint256"},{"name":"totalBids","type":"uint256","internalType":"uint256"}],"stateMutability":"view"},{"type":"function","name":"authorizedOperators","inputs":[{"name":"","type":"address","internalType":"address"}],"outputs":[{"name":"","type":"bool","internalType":"bool"}],"stateMutability":"view"},{"type":"function","name":"avsDirectory","inputs":[],"outputs":[{"name":"","type":"address","internalType":"contract IAVSDirectory"}],"stateMutability":"view"},{"type":"function","name":"beforeAddLiquidity","inputs":[{"name":"sender","type":"address","internalType":"address"},{"name":"key","type":"tuple","internalType":"struct PoolKey","components":[{"name":"currency0","type":"address","internalType":"Currency"},{"name":"currency1","type":"address","internalType":"Currency"},{"name":"fee","type":"uint24","internalType":"uint24"},{"name":"tickSpacing","type":"int24","internalType":"int24"},{"name":"hooks","type":"address","internalType":"contract IHooks"}]},{"name":"params","type":"tuple","internalType":"struct ModifyLiquidityParams","components":[{"name":"tickLower","type":"int24","internalType":"int24"},{"name":"tickUpper","type":"int24","internalType":"int24"},{"name":"liquidityDelta","type":"int256","internalType":"int256"},{"name":"salt","type":"bytes32","internalType":"bytes32"}]},{"name":"hookData","type":"bytes","internalType":"bytes"}],"outputs":[{"name":"","type":"bytes4","internalType":"bytes4"}],"stateMutability":"nonpayable"},{"type":"function","name":"beforeDonate","inputs":[{"name":"sender","type":"address","internalType":"address"},{"name":"key","type":"tuple","internalType":"struct PoolKey","components":[{"name":"currency0","type":"address","internalType":"Currency"},{"name":"currency1","type":"address","internalType":"Currency"},{"name":"fee","type":"uint24","internalType":"uint24"},{"name":"tickSpacing","type":"int24","internalType":"int24"},{"name":"hooks","type":"address","internalType":"contract IHooks"}]},{"name":"amount0","type":"uint256","internalType":"uint256"},{"name":"amount1","type":"uint256","internalType":"uint256"},{"name":"hookData","type":"bytes","internalType":"bytes"}],"outputs":[{"name":"","type":"bytes4","internalType":"bytes4"}],"stateMutability":"nonpayable"},{"type":"function","name":"beforeInitialize","inputs":[{"name":"sender","type":"address","internalType":"address"},{"name":"key","type":"tuple","internalType":"struct PoolKey","components":[{"name":"currency0","type":"address","internalType":"Currency"},{"name":"currency1","type":"address","internalType":"Currency"},{"name":"fee","type":"uint24","internalType":"uint24"},{"name":"tickSpacing","type":"int24","internalType":"int24"},{"name":"hooks","type":"address","internalType":"contract IHooks"}]},{"name":"sqrtPriceX96","type":"uint160","internalType":"uint160"}],"outputs":[{"name":"","type":"bytes4","internalType":"bytes4"}],"stateMutability":"nonpayable"},{"type":"function","name":"beforeRemoveLiquidity","inputs":[{"name":"sender","type":"address","internalType":"address"},{"name":"key","type":"tuple","internalType":"struct PoolKey","components":[{"name":"currency0","type":"address","internalType":"Currency"},{"name":"currency1","type":"address","internalType":"Currency"},{"name":"fee","type":"uint24","internalType":"uint24"},{"name":"tickSpacing","type":"int24","internalType":"int24"},{"name":"hooks","type":"address","internalType":"contract IHooks"}]},{"name":"params","type":"tuple","internalType":"struct ModifyLiquidityParams","components":[{"name":"tickLower","type":"int24","internalType":"int24"},{"name":"tickUpper","type":"int24","internalType":"int24"},{"name":"liquidityDelta","type":"int256","internalType":"int256"},{"name":"salt","type":"bytes32","internalType":"bytes32"}]},{"name":"hookData","type":"bytes","internalType":"bytes"}],"outputs":[{"name":"","type":"bytes4","internalType":"bytes4"}],"stateMutability":"nonpayable"},{"type":"function","name":"beforeSwap","inputs":[{"name":"sender","type":"address","internalType":"address"},{"name":"key","type":"tuple","internalType":"struct PoolKey","components":[{"name":"currency0","type":"address","internalType":"Currency"},{"name":"currency1","type":"address","internalType":"Currency"},{"name":"fee","type":"uint24","internalType":"uint24"},{"name":"tickSpacing","type":"int24","internalType":"int24"},{"name":"hooks","type":"address","internalType":"contract IHooks"}]},{"name":"params","type":"tuple","internalType":"struct SwapParams","components":[{"name":"zeroForOne","type":"bool","internalType":"bool"},{"name":"amountSpecified","type":"int256","internalType":"int256"},{"name":"sqrtPriceLimitX96","type":"uint160","internalType":"uint160"}]},{"name":"hookData","type":"bytes","internalType":"bytes"}],"outputs":[{"name":"","type":"bytes4","internalType":"bytes4"},{"name":"","type":"int256","internalType":"BeforeSwapDelta"},{"name":"","type":"uint24","internalType":"uint24"}],"stateMutability":"nonpayable"},{"type":"function","name":"claimRewards","inputs":[{"name":"poolId","type":"bytes32","internalType":"PoolId"}],"outputs":[],"stateMutability":"nonpayable"},{"type":"function","name":"feeRecipient","inputs":[],"outputs":[{"name":"","type":"address","internalType":"address"}],"stateMutability":"view"},{"type":"function","name":"getHookPermissions","inputs":[],"outputs":[{"name":"","type":"tuple","internalType":"struct Hooks.Permissions","components":[{"name":"beforeInitialize","type":"bool","internalType":"bool"},{"name":"afterInitialize","type":"bool","internalType":"bool"},{"name":"beforeAddLiquidity","type":"bool","internalType":"bool"},{"name":"afterAddLiquidity","type":"bool","internalType":"bool"},{"name":"beforeRemoveLiquidity","type":"bool","internalType":"bool"},{"name":"afterRemoveLiquidity","type":"bool","internalType":"bool"},{"name":"beforeSwap","type":"bool","internalType":"bool"},{"name":"afterSwap","type":"bool","internalType":"bool"},{"name":"beforeDonate","type":"bool","internalType":"bool"},{"name":"afterDonate","type":"bool","internalType":"bool"},{"name":"beforeSwapReturnDelta","type":"bool","internalType":"bool"},{"name":"afterSwapReturnDelta","type":"bool","internalType":"bool"},{"name":"afterAddLiquidityReturnDelta","type":"bool","internalType":"bool"},{"name":"afterRemoveLiquidityReturnDelta","type":"bool","internalType":"bool"}]}],"stateMutability":"pure"},{"type":"function","name":"lpLiquidity","inputs":[{"name":"","type":"bytes32","internalType":"PoolId"},{"name":"","type":"address","internalType":"address"}],"outputs":[{"name":"","type":"uint256","internalType":"uint256"}],"stateMutability":"view"},{"type":"function","name":"lpRewards","inputs":[{"name":"","type":"bytes32","internalType":"PoolId"},{"name":"","type":"address","internalType":"address"}],"outputs":[{"name":"","type":"uint256","internalType":"uint256"}],"stateMutability":"view"},{"type":"function","name":"lvrThreshold","inputs":[],"outputs":[{"name":"","type":"uint256","internalType":"uint256"}],"stateMutability":"view"},{"type":"function","name":"owner","inputs":[],"outputs":[{"name":"","type":"address","internalType":"address"}],"stateMutability":"view"},{"type":"function","name":"pause","inputs":[],"outputs":[],"stateMutability":"nonpayable"},{"type":"function","name":"paused","inputs":[],"outputs":[{"name":"","type":"bool","internalType":"bool"}],"stateMutability":"view"},{"type":"function","name":"poolManager","inputs":[],"outputs":[{"name":"","type":"address","internalType":"contract IPoolManager"}],"stateMutability":"view"},{"type":"function","name":"poolRewards","inputs":[{"name":"","type":"bytes32","internalType":"PoolId"}],"outputs":[{"name":"","type":"uint256","internalType":"uint256"}],"stateMutability":"view"},{"type":"function","name":"priceOracle","inputs":[],"outputs":[{"name":"","type":"address","internalType":"contract IPriceOracle"}],"stateMutability":"view"},{"type":"function","name":"renounceOwnership","inputs":[],"outputs":[],"stateMutability":"nonpayable"},{"type":"function","name":"setFeeRecipient","inputs":[{"name":"newFeeRecipient","type":"address","internalType":"address"}],"outputs":[],"stateMutability":"nonpayable"},{"type":"function","name":"setLVRThreshold","inputs":[{"name":"newThreshold","type":"uint256","internalType":"uint256"}],"outputs":[],"stateMutability":"nonpayable"},{"type":"function","name":"setOperatorAuthorization","inputs":[{"name":"operator","type":"address","internalType":"address"},{"name":"authorized","type":"bool","internalType":"bool"}],"outputs":[],"stateMutability":"nonpayable"},{"type":"function","name":"submitAuctionResult","inputs":[{"name":"auctionId","type":"bytes32","internalType":"bytes32"},{"name":"winner","type":"address","internalType":"address"},{"name":"winningBid","type":"uint256","internalType":"uint256"}],"outputs":[],"stateMutability":"nonpayable"},{"type":"function","name":"testAfterSwap","inputs":[{"name":"sender","type":"address","internalType":"address"},{"name":"key","type":"tuple","internalType":"struct PoolKey","components":[{"name":"currency0","type":"address","internalType":"Currency"},{"name":"currency1","type":"address","internalType":"Currency"},{"name":"fee","type":"uint24","internalType":"uint24"},{"name":"tickSpacing","type":"int24","internalType":"int24"},{"name":"hooks","type":"address","internalType":"contract IHooks"}]},{"name":"params","type":"tuple","internalType":"struct SwapParams","components":[{"name":"zeroForOne","type":"bool","internalType":"bool"},{"name":"amountSpecified","type":"int256","internalType":"int256"},{"name":"sqrtPriceLimitX96","type":"uint160","internalType":"uint160"}]},{"name":"delta","type":"int256","internalType":"BalanceDelta"},{"name":"hookData","type":"bytes","internalType":"bytes"}],"outputs":[{"name":"","type":"bytes4","internalType":"bytes4"},{"name":"","type":"int128","internalType":"int128"}],"stateMutability":"nonpayable"},{"type":"function","name":"testBeforeAddLiquidity","inputs":[{"name":"sender","type":"address","internalType":"address"},{"name":"key","type":"tuple","internalType":"struct PoolKey","components":[{"name":"currency0","type":"address","internalType":"Currency"},{"name":"currency1","type":"address","internalType":"Currency"},{"name":"fee","type":"uint24","internalType":"uint24"},{"name":"tickSpacing","type":"int24","internalType":"int24"},{"name":"hooks","type":"address","internalType":"contract IHooks"}]},{"name":"params","type":"tuple","internalType":"struct ModifyLiquidityParams","components":[{"name":"tickLower","type":"int24","internalType":"int24"},{"name":"tickUpper","type":"int24","internalType":"int24"},{"name":"liquidityDelta","type":"int256","internalType":"int256"},{"name":"salt","type":"bytes32","internalType":"bytes32"}]},{"name":"hookData","type":"bytes","internalType":"bytes"}],"outputs":[{"name":"","type":"bytes4","internalType":"bytes4"}],"stateMutability":"nonpayable"},{"type":"function","name":"testBeforeRemoveLiquidity","inputs":[{"name":"sender","type":"address","internalType":"address"},{"name":"key","type":"tuple","internalType":"struct PoolKey","components":[{"name":"currency0","type":"address","internalType":"Currency"},{"name":"currency1","type":"address","internalType":"Currency"},{"name":"fee","type":"uint24","internalType":"uint24"},{"name":"tickSpacing","type":"int24","internalType":"int24"},{"name":"hooks","type":"address","internalType":"contract IHooks"}]},{"name":"params","type":"tuple","internalType":"struct ModifyLiquidityParams","components":[{"name":"tickLower","type":"int24","internalType":"int24"},{"name":"tickUpper","type":"int24","internalType":"int24"},{"name":"liquidityDelta","type":"int256","internalType":"int256"},{"name":"salt","type":"bytes32","internalType":"bytes32"}]},{"name":"hookData","type":"bytes","internalType":"bytes"}],"outputs":[{"name":"","type":"bytes4","internalType":"bytes4"}],"stateMutability":"nonpayable"},{"type":"function","name":"testBeforeSwap","inputs":[{"name":"sender","type":"address","internalType":"address"},{"name":"key","type":"tuple","internalType":"struct PoolKey","components":[{"name":"currency0","type":"address","internalType":"Currency"},{"name":"currency1","type":"address","internalType":"Currency"},{"name":"fee","type":"uint24","internalType":"uint24"},{"name":"tickSpacing","type":"int24","internalType":"int24"},{"name":"hooks","type":"address","internalType":"contract IHooks"}]},{"name":"params","type":"tuple","internalType":"struct SwapParams","components":[{"name":"zeroForOne","type":"bool","internalType":"bool"},{"name":"amountSpecified","type":"int256","internalType":"int256"},{"name":"sqrtPriceLimitX96","type":"uint160","internalType":"uint160"}]},{"name":"hookData","type":"bytes","internalType":"bytes"}],"outputs":[{"name":"","type":"bytes4","internalType":"bytes4"},{"name":"","type":"int256","internalType":"BeforeSwapDelta"},{"name":"","type":"uint24","internalType":"uint24"}],"stateMutability":"nonpayable"},{"type":"function","name":"totalLiquidity","inputs":[{"name":"","type":"bytes32","internalType":"PoolId"}],"outputs":[{"name":"","type":"uint256","internalType":"uint256"}],"stateMutability":"view"},{"type":"function","name":"transferOwnership","inputs":[{"name":"newOwner","type":"address","internalType":"address"}],"outputs":[],"stateMutability":"nonpayable"},{"type":"function","name":"unpause","inputs":[],"outputs":[],"stateMutability":"nonpayable"},{"type":"event","name":"AuctionEnded","inputs":[{"name":"auctionId","type":"bytes32","indexed":true,"internalType":"bytes32"},{"name":"poolId","type":"bytes32","indexed":true,"internalType":"PoolId"},{"name":"winner","type":"address","indexed":true,"internalType":"address"},{"name":"winningBid","type":"uint256","indexed":false,"internalType":"uint256"}],"anonymous":false},{"type":"event","name":"AuctionStarted","inputs":[{"name":"auctionId","type":"bytes32","indexed":true,"internalType":"bytes32"},{"name":"poolId","type":"bytes32","indexed":true,"internalType":"PoolId"},{"name":"startTime","type":"uint256","indexed":false,"internalType":"uint256"},{"name":"duration","type":"uint256","indexed":false,"internalType":"uint256"}],"anonymous":false},{"type":"event","name":"LVRThresholdUpdated","inputs":[{"name":"oldThreshold","type":"uint256","indexed":false,"internalType":"uint256"},{"name":"newThreshold","type":"uint256","indexed":false,"internalType":"uint256"}],"anonymous":false},{"type":"event","name":"MEVDistributed","inputs":[{"name":"poolId","type":"bytes32","indexed":true,"internalType":"PoolId"},{"name":"totalAmount","type":"uint256","indexed":false,"internalType":"uint256"},{"name":"lpAmount","type":"uint256","indexed":false,"internalType":"uint256"},{"name":"avsAmount","type":"uint256","indexed":false,"internalType":"uint256"},{"name":"protocolAmount","type":"uint256","indexed":false,"internalType":"uint256"}],"anonymous":false},{"type":"event","name":"OperatorAuthorized","inputs":[{"name":"operator","type":"address","indexed":true,"internalType":"address"},{"name":"authorized","type":"bool","indexed":false,"internalType":"bool"}],"anonymous":false},{"type":"event","name":"OwnershipTransferred","inputs":[{"name":"previousOwner","type":"address","indexed":true,"internalType":"address"},{"name":"newOwner","type":"address","indexed":true,"internalType":"address"}],"anonymous":false},{"type":"event","name":"Paused","inputs":[{"name":"account","type":"address","indexed":false,"internalType":"address"}],"anonymous":false},{"type":"event","name":"RewardsClaimed","inputs":[{"name":"poolId","type":"bytes32","indexed":true,"internalType":"PoolId"},{"name":"lp","type":"address","indexed":true,"internalType":"address"},{"name":"amount","type":"uint256","indexed":false,"internalType":"uint256"}],"anonymous":false},{"type":"event","name":"Unpaused","inputs":[{"name":"account","type":"address","indexed":false,"internalType":"address"}],"anonymous":false},{"type":"error","name":"EnforcedPause","inputs":[]},{"type":"error","name":"ExpectedPause","inputs":[]},{"type":"error","name":"HookNotImplemented","inputs":[]},{"type":"error","name":"NotPoolManager","inputs":[]},{"type":"error","name":"OwnableInvalidOwner","inputs":[{"name":"owner","type":"address","internalType":"address"}]},{"type":"error","name":"OwnableUnauthorizedAccount","inputs":[{"name":"account","type":"address","internalType":"address"}]},{"type":"error","name":"ReentrancyGuardReentrantCall","inputs":[]}],"bytecode":{"object":"0x60e03461018857601f611dff38819003918201601f19168301916001600160401b0383118484101761018c5780849260a0946040528339810103126101885780516001600160a01b0381168103610188576020820151916001600160a01b03831683036101885760408101516001600160a01b03811681036101885760608201516001600160a01b038116929083900361018857608001519260805260015f553315610175576001546040519490336001600160a01b0382167f8be0079c531659141344cd1fd0a4f28419497f9722a3daafe3b4186f6b6457e05f80a36001600160a81b0319163360ff60a01b19161760015560a05260c052600980546001600160a01b031916919091179055600a55611c5e90816101a18239608051818181610409015281816104cf0152818161052101528181610b2401528181610de6015281816111cb015281816113be0152611479015260a05181611161015260c0518181816106940152818161137a0152611bbe0152f35b631e4fbdf760e01b5f525f60045260245ffd5b5f80fd5b634e487b7160e01b5f52604160045260245ffdfe608080604052600436101561001c575b50361561001a575f80fd5b005b5f3560e01c908163181d989b14611711575080631a8a61f3146116f55780631e52301c1461153d5780631edbc5be146114b657806321d0ee7014611464578063259982e5146113a95780632630c12f146113655780632ae8c7181461134a5780633f4ba83a146112dc5780633fb35178146112c1578063446124561461127d57806346904840146112555780635498304c1461122b57806354b7a8f714611201578063575e24b4146111b55780635c975abb146111905780636b3aa72e1461114c5780636c2bbe7e14610dd35780636fac21871461112c5780636fe7e6eb146110f4578063715018a6146110995780637790ddc614610f3e57806383b83aca14610eb25780638456cb5914610e515780638da5cb5b14610e295780639f063efc14610dd3578063a99e408714610d4d578063af4cbe8014610d30578063b26565c514610d14578063b47b2fb114610b0e578063b6a8b0fa146103f6578063c0e8d38414610ae4578063c4e833ce1461097c578063c8dc556814610614578063ce69cd20146105f3578063d40ea4d914610550578063dc4c90d31461050c578063dc98354e1461049e578063dcd728b51461045a578063e1b4af69146103f6578063e1f1c4a7146103da578063e4d7d6dc146103be578063e74b981b1461032d578063f2fde38b146102a75763f6afbb6314610217575f61000f565b346102a35761023960a0604061022c366117b8565b5050939194903690611a8e565b20910135915f8313610258575b60405163259982e560e01b8152602090f35b815f52600760205260405f209060018060a01b03165f5260205260405f206102818382546119c8565b90555f52600660205261029960405f209182546119c8565b90555f8080610246565b5f80fd5b346102a35760203660031901126102a3576102c061174a565b6102c8611b1e565b6001600160a01b0316801561031a57600180546001600160a01b0319811683179091556001600160a01b03167f8be0079c531659141344cd1fd0a4f28419497f9722a3daafe3b4186f6b6457e05f80a3005b631e4fbdf760e01b5f525f60045260245ffd5b346102a35760203660031901126102a35761034661174a565b61034e611b1e565b6001600160a01b03168015610379576bffffffffffffffffffffffff60a01b60095416176009555f80f35b60405162461bcd60e51b815260206004820152601960248201527f456967656e4c56523a20696e76616c69642061646472657373000000000000006044820152606490fd5b346102a3575f3660031901126102a357602060405161012c8152f35b346102a3575f3660031901126102a35760206040516127108152f35b346102a35761040436611970565b5050507f00000000000000000000000000000000000000000000000000000000000000006001600160a01b03163303925061044b91505057630a85dc2960e01b5f5260045ffd5b63570c108560e11b5f5260045ffd5b346102a35760403660031901126102a357610473611760565b6004355f52600760205260405f209060018060a01b03165f52602052602060405f2054604051908152f35b346102a35760e03660031901126102a3576104b761174a565b5060a03660231901126102a3576104cc61194a565b507f00000000000000000000000000000000000000000000000000000000000000006001600160a01b0316330361044b57630a85dc2960e01b5f5260045ffd5b346102a3575f3660031901126102a3576040517f00000000000000000000000000000000000000000000000000000000000000006001600160a01b03168152602090f35b346102a35760203660031901126102a35760043561056c611b1e565b6103e881116105ae5760407ff579147a7a27652efe56a2f791890638acfb4625388b7c67846205588b4009fb91600a549080600a5582519182526020820152a1005b60405162461bcd60e51b815260206004820152601c60248201527f456967656e4c56523a207468726573686f6c6420746f6f2068696768000000006044820152606490fd5b346102a3575f3660031901126102a357602060405166038d7ea4c680008152f35b346102a3576106223661181c565b505090915061062f611b45565b61069060a061063e3685611a8e565b2092602061064b82611b77565b916106608261065983611b63565b9201611b63565b604051635620c32d60e11b81526001600160a01b0392831660048201529116602482015292839081906044820190565b03817f00000000000000000000000000000000000000000000000000000000000000006001600160a01b03165afa918215610971575f9261093d575b508181111561090e57816106df916119f3565b9061271082029180830461271014901517156108fa576106fe916119d5565b600a54111590816108c7575b50610739575b6040518061073581905f604060608401936315d7892d60e21b81528260208201520152565b0390f35b60405160208101908282524260408201524360608201526060815261075f608082611a4e565b519020815f52600260205260405f20546108835760405161077f81611a00565b82815260056020820142815260408301600c81526108356060850160018152608086015f815261081060a08801915f835260c08901955f875260e08a01975f89528b5f52600360205260405f209a518b555160018b01555160028a01556107f960038a0194511515859060ff801983541691151516179055565b51835461ff00191690151560081b61ff0016178355565b51815462010000600160b01b03191660109190911b62010000600160b01b0316179055565b51600484015551910155815f5260026020528060405f20557f8d50f1936786e8fcaf1a432bed2207696b5cc11646e7107f3e439f44546d848260408051428152600c6020820152a380610710565b606460405162461bcd60e51b815260206004820152602060248201527f456967656e4c56523a2061756374696f6e20616c7265616479206163746976656044820152fd5b602091500135670de0b6b3a764000081139081156108e7575b508261070a565b670de0b6b3a763ffff19139050826108e0565b634e487b7160e01b5f52601160045260245ffd5b9081610919916119f3565b9061271082029180830461271014901517156108fa57610938916119d5565b6106fe565b9091506020813d602011610969575b8161095960209383611a4e565b810103126102a3575190846106cc565b3d915061094c565b6040513d5f823e3d90fd5b346102a3575f3660031901126102a3575f6101a060405161099c81611a31565b8281528260208201528260408201528260608201528260808201528260a08201528260c08201528260e0820152826101008201528261012082015282610140820152826101608201528261018082015201526101c060206040516109ff81611a31565b5f8152818101905f82526040810160018152606082015f8152608083016001815260a084015f815260c085016001815260e0860190600182526101008701925f84526101208801945f86526101408901965f88526101608a01985f8a526101a06101808c019b5f8d52019b5f8d526040519d8e915f835251151591015251151560408d015251151560608c015251151560808b015251151560a08a015251151560c089015251151560e08801525115156101008701525115156101208601525115156101408501525115156101608401525115156101808301525115156101a0820152f35b346102a35760203660031901126102a3576004355f526004602052602060405f2054604051908152f35b346102a357610b1c366118e6565b5092935050507f00000000000000000000000000000000000000000000000000000000000000006001600160a01b03163303905061044b57610b6160a0913690611a8e565b20805f52600260205260405f205480151580610cf8575b610b93575b6040805163b47b2fb160e01b81525f6020820152f35b5f526003602052600460405f20015480158015610bc1575b50505f5260026020525f60408120558080610b7d565b6121348202828104612134148217156108fa576127109004916103e881028181046103e8148317156108fa57612710900461012c82029282840461012c1417156108fa5761271085930493835f52600460205260405f20610c238282546119c8565b9055835f52600460205260405f20610c3c8282546119c8565b905581158015610cce575b5084158015610c97575b5093608092917f9f28cf522c1dd60442bfdecae6dfd5abc02b942618ef4f1e2fb7f3efdc8b4f459495604051938452602084015260408301526060820152a28180610bab565b5f8080939594965087819360018060a01b0360095416908390610cc5575bf115610971579091849286610c51565b506108fc610cb5565b829194505f90610cef575b5f80809381933390f11561097157849286610c47565b506108fc610cd9565b50805f52600360205260ff600360405f20015460081c16610b78565b346102a3575f3660031901126102a35760206040516121348152f35b346102a3575f3660031901126102a3576020600a54604051908152f35b346102a35760403660031901126102a357610d6661174a565b60243590811515908183036102a3577fc176fcf7d48a6aca0d96d3b3201f7add47c4af04ce9a51f5f4eb15d528c46e2191610dca602092610da5611b1e565b60018060a01b031694855f526008845260405f209060ff801983541691151516179055565b604051908152a2005b346102a357610de13661187c565b5050507f00000000000000000000000000000000000000000000000000000000000000006001600160a01b03163303935061044b9250505057630a85dc2960e01b5f5260045ffd5b346102a3575f3660031901126102a3576001546040516001600160a01b039091168152602090f35b346102a3575f3660031901126102a357610e69611b1e565b610e71611b45565b6001805460ff60a01b1916600160a01b1790556040513381527f62e78cea01bee320cd4e420270b5ea74000d11b0c9f74754ebdbfc544b05a25890602090a1005b346102a357610ec760a0604061022c366117b8565b209101355f8112610ee5575b60405163021d0ee760e41b8152602090f35b600160ff1b81146108fa575f0391815f52600760205260405f209060018060a01b03165f5260205260405f20610f1c8382546119f3565b90555f526006602052610f3460405f209182546119f3565b9055808080610ed3565b346102a35760203660031901126102a357600435610f5a611a70565b5f818152600760209081526040808320338452909152902054801561105457815f52600660205260405f2054825f52600460205260405f20548281029281840414901517156108fa57610fac916119d5565b9081158015610fbc575b60015f55005b8290825f52600560205260405f2060018060a01b0333165f5260205260405f20610fe78382546119c8565b9055825f52600460205260405f206110008382546119f3565b90555f9061104b575b5f80809381933390f115610971576040519182527ffec539b3c42d74cd492c3ecf7966bf014b327beef98e935cdc3ec5e54a6901c760203393a3808080610fb6565b506108fc611009565b60405162461bcd60e51b815260206004820152601f60248201527f456967656e4c56523a206e6f206c69717569646974792070726f7669646564006044820152606490fd5b346102a3575f3660031901126102a3576110b1611b1e565b600180546001600160a01b031981169091555f906001600160a01b03167f8be0079c531659141344cd1fd0a4f28419497f9722a3daafe3b4186f6b6457e08280a3005b346102a3576101003660031901126102a35761110e61174a565b5060a03660231901126102a35761112361194a565b506104cc611960565b346102a35760a0610b6161113f366118e6565b5050505090503690611a8e565b346102a3575f3660031901126102a3576040517f00000000000000000000000000000000000000000000000000000000000000006001600160a01b03168152602090f35b346102a3575f3660031901126102a357602060ff60015460a01c166040519015158152f35b346102a3576111c33661181c565b5091925090507f00000000000000000000000000000000000000000000000000000000000000006001600160a01b0316330361044b5761062f611b45565b346102a35760203660031901126102a3576004355f526006602052602060405f2054604051908152f35b346102a35760203660031901126102a3576004355f526002602052602060405f2054604051908152f35b346102a3575f3660031901126102a3576009546040516001600160a01b039091168152602090f35b346102a35760403660031901126102a357611296611760565b6004355f52600560205260405f209060018060a01b03165f52602052602060405f2054604051908152f35b346102a3575f3660031901126102a3576020604051600c8152f35b346102a3575f3660031901126102a3576112f4611b1e565b60015460ff8160a01c161561133b5760ff60a01b19166001556040513381527f5db9ee0a495bf2e6ff9c91a7834c1ba4fdd244a5e8aa4e537bd38aeae4b073aa90602090a1005b638dfc202b60e01b5f5260045ffd5b346102a3575f3660031901126102a357602060405160c88152f35b346102a3575f3660031901126102a3576040517f00000000000000000000000000000000000000000000000000000000000000006001600160a01b03168152602090f35b346102a3576113b7366117b8565b50909190507f00000000000000000000000000000000000000000000000000000000000000006001600160a01b0316330361044b5760a06113fb6040923690611a8e565b20910135915f83136114195760405163259982e560e01b8152602090f35b815f52600760205260405f209060018060a01b03165f5260205260405f206114428382546119c8565b90555f52600660205261145a60405f209182546119c8565b9055808080610246565b346102a357611472366117b8565b50909190507f00000000000000000000000000000000000000000000000000000000000000006001600160a01b0316330361044b5760a0610ec76040923690611a8e565b346102a35760203660031901126102a3576004355f52600360205261010060405f20805490600181015490600281015460038201549060056004840154930154936040519586526020860152604085015260ff81161515606085015260ff8160081c161515608085015260018060a01b039060101c1660a084015260c083015260e0820152f35b346102a35760603660031901126102a357600435611559611760565b60443591335f52600860205260ff60405f205416156116b057805f52600360205260ff600360405f200154161561166b57611592611a70565b805f52600360205260405f206115b160018201546002830154906119c8565b421061162657600381018054600483018690556101006001600160b01b031990911662010000600160b01b03601087901b1617179055546040519384526001600160a01b03909216927f32f65ad10bfa4a0ee9db45ba15bf04a4005908f729d666edbc5e421b4519206c90602090a460015f55005b60405162461bcd60e51b815260206004820152601b60248201527f456967656e4c56523a2061756374696f6e206e6f7420656e64656400000000006044820152606490fd5b60405162461bcd60e51b815260206004820152601c60248201527f456967656e4c56523a2061756374696f6e206e6f7420616374697665000000006044820152606490fd5b60405162461bcd60e51b815260206004820152601f60248201527f456967656e4c56523a20756e617574686f72697a6564206f70657261746f72006044820152606490fd5b346102a3575f3660031901126102a35760206040516103e88152f35b346102a35760203660031901126102a3576020906001600160a01b0361173561174a565b165f526008825260ff60405f20541615158152f35b600435906001600160a01b03821682036102a357565b602435906001600160a01b03821682036102a357565b35906001600160a01b03821682036102a357565b9181601f840112156102a35782359167ffffffffffffffff83116102a357602083818601950101116102a357565b906101606003198301126102a3576004356001600160a01b03811681036102a3579160a06023198201126102a357602491608060c3198301126102a35760c491610144359067ffffffffffffffff82116102a3576118189160040161178a565b9091565b906101406003198301126102a3576004356001600160a01b03811681036102a3579160a06023198201126102a357602491606060c3198301126102a35760c491610124359067ffffffffffffffff82116102a3576118189160040161178a565b906101a06003198301126102a3576004356001600160a01b03811681036102a3579160a06023198201126102a357602491608060c3198301126102a35760c49161014435916101643591610184359067ffffffffffffffff82116102a3576118189160040161178a565b6101606003198201126102a3576004356001600160a01b03811681036102a3579160a06023198301126102a357602491606060c3198201126102a35760c4916101243591610144359067ffffffffffffffff82116102a3576118189160040161178a565b60c435906001600160a01b03821682036102a357565b60e435908160020b82036102a357565b6101206003198201126102a3576004356001600160a01b03811681036102a3579160a06023198301126102a35760249160c4359160e43591610104359067ffffffffffffffff82116102a3576118189160040161178a565b919082018092116108fa57565b81156119df570490565b634e487b7160e01b5f52601260045260245ffd5b919082039182116108fa57565b610100810190811067ffffffffffffffff821117611a1d57604052565b634e487b7160e01b5f52604160045260245ffd5b6101c0810190811067ffffffffffffffff821117611a1d57604052565b90601f8019910116810190811067ffffffffffffffff821117611a1d57604052565b60025f5414611a7f5760025f55565b633ee5aeb560e01b5f5260045ffd5b91908260a09103126102a35760405160a0810181811067ffffffffffffffff821117611a1d576040528092611ac281611776565b8252611ad060208201611776565b6020830152604081013562ffffff811681036102a35760408301526060810135908160020b82036102a357606083019190915260800135906001600160a01b03821682036102a35760800152565b6001546001600160a01b03163303611b3257565b63118cdaa760e01b5f523360045260245ffd5b60ff60015460a01c16611b5457565b63d93c066560e01b5f5260045ffd5b356001600160a01b03811681036102a35790565b6020611bba91611b8a8261065983611b63565b604051635620c32d60e11b81526001600160a01b0392831660048201529116602482015291829081906044820190565b03817f00000000000000000000000000000000000000000000000000000000000000006001600160a01b03165afa908115610971575f91611bf9575090565b90506020813d602011611c20575b81611c1460209383611a4e565b810103126102a3575190565b3d9150611c0756fea264697066735822122077f942cb065f98ac00182cfd04ebd7ac28ba913595cca7f5892838720ab7c66364736f6c634300081a0033","linkReferences":{}},"methodIdentifiers":{"AVS_REWARD_PERCENTAGE()":"1a8a61f3","BASIS_POINTS()":"e1f1c4a7","GAS_COMPENSATION_PERCENTAGE()":"2ae8c718","LP_REWARD_PERCENTAGE()":"b26565c5","MAX_AUCTION_DURATION()":"3fb35178","MIN_BID()":"ce69cd20","PROTOCOL_FEE_PERCENTAGE()":"e4d7d6dc","activeAuctions(bytes32)":"5498304c","afterAddLiquidity(address,(address,address,uint24,int24,address),(int24,int24,int256,bytes32),int256,int256,bytes)":"9f063efc","afterDonate(address,(address,address,uint24,int24,address),uint256,uint256,bytes)":"e1b4af69","afterInitialize(address,(address,address,uint24,int24,address),uint160,int24)":"6fe7e6eb","afterRemoveLiquidity(address,(address,address,uint24,int24,address),(int24,int24,int256,bytes32),int256,int256,bytes)":"6c2bbe7e","afterSwap(address,(address,address,uint24,int24,address),(bool,int256,uint160),int256,bytes)":"b47b2fb1","auctions(bytes32)":"1edbc5be","authorizedOperators(address)":"181d989b","avsDirectory()":"6b3aa72e","beforeAddLiquidity(address,(address,address,uint24,int24,address),(int24,int24,int256,bytes32),bytes)":"259982e5","beforeDonate(address,(address,address,uint24,int24,address),uint256,uint256,bytes)":"b6a8b0fa","beforeInitialize(address,(address,address,uint24,int24,address),uint160)":"dc98354e","beforeRemoveLiquidity(address,(address,address,uint24,int24,address),(int24,int24,int256,bytes32),bytes)":"21d0ee70","beforeSwap(address,(address,address,uint24,int24,address),(bool,int256,uint160),bytes)":"575e24b4","claimRewards(bytes32)":"7790ddc6","feeRecipient()":"46904840","getHookPermissions()":"c4e833ce","lpLiquidity(bytes32,address)":"dcd728b5","lpRewards(bytes32,address)":"44612456","lvrThreshold()":"af4cbe80","owner()":"8da5cb5b","pause()":"8456cb59","paused()":"5c975abb","poolManager()":"dc4c90d3","poolRewards(bytes32)":"c0e8d384","priceOracle()":"2630c12f","renounceOwnership()":"715018a6","setFeeRecipient(address)":"e74b981b","setLVRThreshold(uint256)":"d40ea4d9","setOperatorAuthorization(address,bool)":"a99e4087","submitAuctionResult(bytes32,address,uint256)":"1e52301c","testAfterSwap(address,(address,address,uint24,int24,address),(bool,int256,uint160),int256,bytes)":"6fac2187","testBeforeAddLiquidity(address,(address,address,uint24,int24,address),(int24,int24,int256,bytes32),bytes)":"f6afbb63","testBeforeRemoveLiquidity(address,(address,address,uint24,int24,address),(int24,int24,int256,bytes32),bytes)":"83b83aca","testBeforeSwap(address,(address,address,uint24,int24,address),(bool,int256,uint160),bytes)":"c8dc5568","totalLiquidity(bytes32)":"54b7a8f7","transferOwnership(address)":"f2fde38b","unpause()":"3f4ba83a"},"id":53}