{"abi":[{"type":"constructor","inputs":[{"name":"_poolManager","type":"address","internalType":"contract IPoolManager"},{"name":"_avsDirectory","type":"address","internalType":"contract IAVSDirectory"},{"name":"_priceOracle","type":"address","internalType":"contract IPriceOracle"},{"name":"_feeRecipient","type":"address","internalType":"address"},{"name":"_lvrThreshold","type":"uint256","internalType":"uint256"}],"stateMutability":"nonpayable"},{"type":"receive","stateMutability":"payable"},{"type":"function","name":"AVS_REWARD_PERCENTAGE","inputs":[],"outputs":[{"name":"","type":"uint256","internalType":"uint256"}],"stateMutability":"view"},{"type":"function","name":"BASIS_POINTS","inputs":[],"outputs":[{"name":"","type":"uint256","internalType":"uint256"}],"stateMutability":"view"},{"type":"function","name":"GAS_COMPENSATION_PERCENTAGE","inputs":[],"outputs":[{"name":"","type":"uint256","internalType":"uint256"}],"stateMutability":"view"},{"type":"function","name":"LP_REWARD_PERCENTAGE","inputs":[],"outputs":[{"name":"","type":"uint256","internalType":"uint256"}],"stateMutability":"view"},{"type":"function","name":"MAX_AUCTION_DURATION","inputs":[],"outputs":[{"name":"","type":"uint256","internalType":"uint256"}],"stateMutability":"view"},{"type":"function","name":"MIN_BID","inputs":[],"outputs":[{"name":"","type":"uint256","internalType":"uint256"}],"stateMutability":"view"},{"type":"function","name":"PROTOCOL_FEE_PERCENTAGE","inputs":[],"outputs":[{"name":"","type":"uint256","internalType":"uint256"}],"stateMutability":"view"},{"type":"function","name":"activeAuctions","inputs":[{"name":"","type":"bytes32","internalType":"PoolId"}],"outputs":[{"name":"","type":"bytes32","internalType":"bytes32"}],"stateMutability":"view"},{"type":"function","name":"afterAddLiquidity","inputs":[{"name":"sender","type":"address","internalType":"address"},{"name":"key","type":"tuple","internalType":"struct PoolKey","components":[{"name":"currency0","type":"address","internalType":"Currency"},{"name":"currency1","type":"address","internalType":"Currency"},{"name":"fee","type":"uint24","internalType":"uint24"},{"name":"tickSpacing","type":"int24","internalType":"int24"},{"name":"hooks","type":"address","internalType":"contract IHooks"}]},{"name":"params","type":"tuple","internalType":"struct ModifyLiquidityParams","components":[{"name":"tickLower","type":"int24","internalType":"int24"},{"name":"tickUpper","type":"int24","internalType":"int24"},{"name":"liquidityDelta","type":"int256","internalType":"int256"},{"name":"salt","type":"bytes32","internalType":"bytes32"}]},{"name":"delta","type":"int256","internalType":"BalanceDelta"},{"name":"feesAccrued","type":"int256","internalType":"BalanceDelta"},{"name":"hookData","type":"bytes","internalType":"bytes"}],"outputs":[{"name":"","type":"bytes4","internalType":"bytes4"},{"name":"","type":"int256","internalType":"BalanceDelta"}],"stateMutability":"nonpayable"},{"type":"function","name":"afterDonate","inputs":[{"name":"sender","type":"address","internalType":"address"},{"name":"key","type":"tuple","internalType":"struct PoolKey","components":[{"name":"currency0","type":"address","internalType":"Currency"},{"name":"currency1","type":"address","internalType":"Currency"},{"name":"fee","type":"uint24","internalType":"uint24"},{"name":"tickSpacing","type":"int24","internalType":"int24"},{"name":"hooks","type":"address","internalType":"contract IHooks"}]},{"name":"amount0","type":"uint256","internalType":"uint256"},{"name":"amount1","type":"uint256","internalType":"uint256"},{"name":"hookData","type":"bytes","internalType":"bytes"}],"outputs":[{"name":"","type":"bytes4","internalType":"bytes4"}],"stateMutability":"nonpayable"},{"type":"function","name":"afterInitialize","inputs":[{"name":"sender","type":"address","internalType":"address"},{"name":"key","type":"tuple","internalType":"struct PoolKey","components":[{"name":"currency0","type":"address","internalType":"Currency"},{"name":"currency1","type":"address","internalType":"Currency"},{"name":"fee","type":"uint24","internalType":"uint24"},{"name":"tickSpacing","type":"int24","internalType":"int24"},{"name":"hooks","type":"address","internalType":"contract IHooks"}]},{"name":"sqrtPriceX96","type":"uint160","internalType":"uint160"},{"name":"tick","type":"int24","internalType":"int24"}],"outputs":[{"name":"","type":"bytes4","internalType":"bytes4"}],"stateMutability":"nonpayable"},{"type":"function","name":"afterRemoveLiquidity","inputs":[{"name":"sender","type":"address","internalType":"address"},{"name":"key","type":"tuple","internalType":"struct PoolKey","components":[{"name":"currency0","type":"address","internalType":"Currency"},{"name":"currency1","type":"address","internalType":"Currency"},{"name":"fee","type":"uint24","internalType":"uint24"},{"name":"tickSpacing","type":"int24","internalType":"int24"},{"name":"hooks","type":"address","internalType":"contract IHooks"}]},{"name":"params","type":"tuple","internalType":"struct ModifyLiquidityParams","components":[{"name":"tickLower","type":"int24","internalType":"int24"},{"name":"tickUpper","type":"int24","internalType":"int24"},{"name":"liquidityDelta","type":"int256","internalType":"int256"},{"name":"salt","type":"bytes32","internalType":"bytes32"}]},{"name":"delta","type":"int256","internalType":"BalanceDelta"},{"name":"feesAccrued","type":"int256","internalType":"BalanceDelta"},{"name":"hookData","type":"bytes","internalType":"bytes"}],"outputs":[{"name":"","type":"bytes4","internalType":"bytes4"},{"name":"","type":"int256","internalType":"BalanceDelta"}],"stateMutability":"nonpayable"},{"type":"function","name":"afterSwap","inputs":[{"name":"sender","type":"address","internalType":"address"},{"name":"key","type":"tuple","internalType":"struct PoolKey","components":[{"name":"currency0","type":"address","internalType":"Currency"},{"name":"currency1","type":"address","internalType":"Currency"},{"name":"fee","type":"uint24","internalType":"uint24"},{"name":"tickSpacing","type":"int24","internalType":"int24"},{"name":"hooks","type":"address","internalType":"contract IHooks"}]},{"name":"params","type":"tuple","internalType":"struct SwapParams","components":[{"name":"zeroForOne","type":"bool","internalType":"bool"},{"name":"amountSpecified","type":"int256","internalType":"int256"},{"name":"sqrtPriceLimitX96","type":"uint160","internalType":"uint160"}]},{"name":"delta","type":"int256","internalType":"BalanceDelta"},{"name":"hookData","type":"bytes","internalType":"bytes"}],"outputs":[{"name":"","type":"bytes4","internalType":"bytes4"},{"name":"","type":"int128","internalType":"int128"}],"stateMutability":"nonpayable"},{"type":"function","name":"auctions","inputs":[{"name":"","type":"bytes32","internalType":"bytes32"}],"outputs":[{"name":"poolId","type":"bytes32","internalType":"PoolId"},{"name":"startTime","type":"uint256","internalType":"uint256"},{"name":"duration","type":"uint256","internalType":"uint256"},{"name":"isActive","type":"bool","internalType":"bool"},{"name":"isComplete","type":"bool","internalType":"bool"},{"name":"winner","type":"address","internalType":"address"},{"name":"winningBid","type":"uint256","internalType":"uint256"},{"name":"totalBids","type":"uint256","internalType":"uint256"}],"stateMutability":"view"},{"type":"function","name":"authorizedOperators","inputs":[{"name":"","type":"address","internalType":"address"}],"outputs":[{"name":"","type":"bool","internalType":"bool"}],"stateMutability":"view"},{"type":"function","name":"avsDirectory","inputs":[],"outputs":[{"name":"","type":"address","internalType":"contract IAVSDirectory"}],"stateMutability":"view"},{"type":"function","name":"beforeAddLiquidity","inputs":[{"name":"sender","type":"address","internalType":"address"},{"name":"key","type":"tuple","internalType":"struct PoolKey","components":[{"name":"currency0","type":"address","internalType":"Currency"},{"name":"currency1","type":"address","internalType":"Currency"},{"name":"fee","type":"uint24","internalType":"uint24"},{"name":"tickSpacing","type":"int24","internalType":"int24"},{"name":"hooks","type":"address","internalType":"contract IHooks"}]},{"name":"params","type":"tuple","internalType":"struct ModifyLiquidityParams","components":[{"name":"tickLower","type":"int24","internalType":"int24"},{"name":"tickUpper","type":"int24","internalType":"int24"},{"name":"liquidityDelta","type":"int256","internalType":"int256"},{"name":"salt","type":"bytes32","internalType":"bytes32"}]},{"name":"hookData","type":"bytes","internalType":"bytes"}],"outputs":[{"name":"","type":"bytes4","internalType":"bytes4"}],"stateMutability":"nonpayable"},{"type":"function","name":"beforeDonate","inputs":[{"name":"sender","type":"address","internalType":"address"},{"name":"key","type":"tuple","internalType":"struct PoolKey","components":[{"name":"currency0","type":"address","internalType":"Currency"},{"name":"currency1","type":"address","internalType":"Currency"},{"name":"fee","type":"uint24","internalType":"uint24"},{"name":"tickSpacing","type":"int24","internalType":"int24"},{"name":"hooks","type":"address","internalType":"contract IHooks"}]},{"name":"amount0","type":"uint256","internalType":"uint256"},{"name":"amount1","type":"uint256","internalType":"uint256"},{"name":"hookData","type":"bytes","internalType":"bytes"}],"outputs":[{"name":"","type":"bytes4","internalType":"bytes4"}],"stateMutability":"nonpayable"},{"type":"function","name":"beforeInitialize","inputs":[{"name":"sender","type":"address","internalType":"address"},{"name":"key","type":"tuple","internalType":"struct PoolKey","components":[{"name":"currency0","type":"address","internalType":"Currency"},{"name":"currency1","type":"address","internalType":"Currency"},{"name":"fee","type":"uint24","internalType":"uint24"},{"name":"tickSpacing","type":"int24","internalType":"int24"},{"name":"hooks","type":"address","internalType":"contract IHooks"}]},{"name":"sqrtPriceX96","type":"uint160","internalType":"uint160"}],"outputs":[{"name":"","type":"bytes4","internalType":"bytes4"}],"stateMutability":"nonpayable"},{"type":"function","name":"beforeRemoveLiquidity","inputs":[{"name":"sender","type":"address","internalType":"address"},{"name":"key","type":"tuple","internalType":"struct PoolKey","components":[{"name":"currency0","type":"address","internalType":"Currency"},{"name":"currency1","type":"address","internalType":"Currency"},{"name":"fee","type":"uint24","internalType":"uint24"},{"name":"tickSpacing","type":"int24","internalType":"int24"},{"name":"hooks","type":"address","internalType":"contract IHooks"}]},{"name":"params","type":"tuple","internalType":"struct ModifyLiquidityParams","components":[{"name":"tickLower","type":"int24","internalType":"int24"},{"name":"tickUpper","type":"int24","internalType":"int24"},{"name":"liquidityDelta","type":"int256","internalType":"int256"},{"name":"salt","type":"bytes32","internalType":"bytes32"}]},{"name":"hookData","type":"bytes","internalType":"bytes"}],"outputs":[{"name":"","type":"bytes4","internalType":"bytes4"}],"stateMutability":"nonpayable"},{"type":"function","name":"beforeSwap","inputs":[{"name":"sender","type":"address","internalType":"address"},{"name":"key","type":"tuple","internalType":"struct PoolKey","components":[{"name":"currency0","type":"address","internalType":"Currency"},{"name":"currency1","type":"address","internalType":"Currency"},{"name":"fee","type":"uint24","internalType":"uint24"},{"name":"tickSpacing","type":"int24","internalType":"int24"},{"name":"hooks","type":"address","internalType":"contract IHooks"}]},{"name":"params","type":"tuple","internalType":"struct SwapParams","components":[{"name":"zeroForOne","type":"bool","internalType":"bool"},{"name":"amountSpecified","type":"int256","internalType":"int256"},{"name":"sqrtPriceLimitX96","type":"uint160","internalType":"uint160"}]},{"name":"hookData","type":"bytes","internalType":"bytes"}],"outputs":[{"name":"","type":"bytes4","internalType":"bytes4"},{"name":"","type":"int256","internalType":"BeforeSwapDelta"},{"name":"","type":"uint24","internalType":"uint24"}],"stateMutability":"nonpayable"},{"type":"function","name":"claimRewards","inputs":[{"name":"poolId","type":"bytes32","internalType":"PoolId"}],"outputs":[],"stateMutability":"nonpayable"},{"type":"function","name":"feeRecipient","inputs":[],"outputs":[{"name":"","type":"address","internalType":"address"}],"stateMutability":"view"},{"type":"function","name":"getHookPermissions","inputs":[],"outputs":[{"name":"","type":"tuple","internalType":"struct Hooks.Permissions","components":[{"name":"beforeInitialize","type":"bool","internalType":"bool"},{"name":"afterInitialize","type":"bool","internalType":"bool"},{"name":"beforeAddLiquidity","type":"bool","internalType":"bool"},{"name":"afterAddLiquidity","type":"bool","internalType":"bool"},{"name":"beforeRemoveLiquidity","type":"bool","internalType":"bool"},{"name":"afterRemoveLiquidity","type":"bool","internalType":"bool"},{"name":"beforeSwap","type":"bool","internalType":"bool"},{"name":"afterSwap","type":"bool","internalType":"bool"},{"name":"beforeDonate","type":"bool","internalType":"bool"},{"name":"afterDonate","type":"bool","internalType":"bool"},{"name":"beforeSwapReturnDelta","type":"bool","internalType":"bool"},{"name":"afterSwapReturnDelta","type":"bool","internalType":"bool"},{"name":"afterAddLiquidityReturnDelta","type":"bool","internalType":"bool"},{"name":"afterRemoveLiquidityReturnDelta","type":"bool","internalType":"bool"}]}],"stateMutability":"pure"},{"type":"function","name":"lpLiquidity","inputs":[{"name":"","type":"bytes32","internalType":"PoolId"},{"name":"","type":"address","internalType":"address"}],"outputs":[{"name":"","type":"uint256","internalType":"uint256"}],"stateMutability":"view"},{"type":"function","name":"lpRewards","inputs":[{"name":"","type":"bytes32","internalType":"PoolId"},{"name":"","type":"address","internalType":"address"}],"outputs":[{"name":"","type":"uint256","internalType":"uint256"}],"stateMutability":"view"},{"type":"function","name":"lvrThreshold","inputs":[],"outputs":[{"name":"","type":"uint256","internalType":"uint256"}],"stateMutability":"view"},{"type":"function","name":"mockPoolPrices","inputs":[{"name":"","type":"bytes32","internalType":"bytes32"}],"outputs":[{"name":"","type":"uint256","internalType":"uint256"}],"stateMutability":"view"},{"type":"function","name":"owner","inputs":[],"outputs":[{"name":"","type":"address","internalType":"address"}],"stateMutability":"view"},{"type":"function","name":"pause","inputs":[],"outputs":[],"stateMutability":"nonpayable"},{"type":"function","name":"paused","inputs":[],"outputs":[{"name":"","type":"bool","internalType":"bool"}],"stateMutability":"view"},{"type":"function","name":"poolManager","inputs":[],"outputs":[{"name":"","type":"address","internalType":"contract IPoolManager"}],"stateMutability":"view"},{"type":"function","name":"poolRewards","inputs":[{"name":"","type":"bytes32","internalType":"PoolId"}],"outputs":[{"name":"","type":"uint256","internalType":"uint256"}],"stateMutability":"view"},{"type":"function","name":"priceOracle","inputs":[],"outputs":[{"name":"","type":"address","internalType":"contract IPriceOracle"}],"stateMutability":"view"},{"type":"function","name":"renounceOwnership","inputs":[],"outputs":[],"stateMutability":"nonpayable"},{"type":"function","name":"setFeeRecipient","inputs":[{"name":"newFeeRecipient","type":"address","internalType":"address"}],"outputs":[],"stateMutability":"nonpayable"},{"type":"function","name":"setLVRThreshold","inputs":[{"name":"newThreshold","type":"uint256","internalType":"uint256"}],"outputs":[],"stateMutability":"nonpayable"},{"type":"function","name":"setMockPoolPrice","inputs":[{"name":"key","type":"tuple","internalType":"struct PoolKey","components":[{"name":"currency0","type":"address","internalType":"Currency"},{"name":"currency1","type":"address","internalType":"Currency"},{"name":"fee","type":"uint24","internalType":"uint24"},{"name":"tickSpacing","type":"int24","internalType":"int24"},{"name":"hooks","type":"address","internalType":"contract IHooks"}]},{"name":"price","type":"uint256","internalType":"uint256"}],"outputs":[],"stateMutability":"nonpayable"},{"type":"function","name":"setOperatorAuthorization","inputs":[{"name":"operator","type":"address","internalType":"address"},{"name":"authorized","type":"bool","internalType":"bool"}],"outputs":[],"stateMutability":"nonpayable"},{"type":"function","name":"submitAuctionResult","inputs":[{"name":"auctionId","type":"bytes32","internalType":"bytes32"},{"name":"winner","type":"address","internalType":"address"},{"name":"winningBid","type":"uint256","internalType":"uint256"}],"outputs":[],"stateMutability":"nonpayable"},{"type":"function","name":"testAfterSwap","inputs":[{"name":"sender","type":"address","internalType":"address"},{"name":"key","type":"tuple","internalType":"struct PoolKey","components":[{"name":"currency0","type":"address","internalType":"Currency"},{"name":"currency1","type":"address","internalType":"Currency"},{"name":"fee","type":"uint24","internalType":"uint24"},{"name":"tickSpacing","type":"int24","internalType":"int24"},{"name":"hooks","type":"address","internalType":"contract IHooks"}]},{"name":"params","type":"tuple","internalType":"struct SwapParams","components":[{"name":"zeroForOne","type":"bool","internalType":"bool"},{"name":"amountSpecified","type":"int256","internalType":"int256"},{"name":"sqrtPriceLimitX96","type":"uint160","internalType":"uint160"}]},{"name":"delta","type":"int256","internalType":"BalanceDelta"},{"name":"hookData","type":"bytes","internalType":"bytes"}],"outputs":[{"name":"","type":"bytes4","internalType":"bytes4"},{"name":"","type":"int128","internalType":"int128"}],"stateMutability":"nonpayable"},{"type":"function","name":"testBeforeAddLiquidity","inputs":[{"name":"sender","type":"address","internalType":"address"},{"name":"key","type":"tuple","internalType":"struct PoolKey","components":[{"name":"currency0","type":"address","internalType":"Currency"},{"name":"currency1","type":"address","internalType":"Currency"},{"name":"fee","type":"uint24","internalType":"uint24"},{"name":"tickSpacing","type":"int24","internalType":"int24"},{"name":"hooks","type":"address","internalType":"contract IHooks"}]},{"name":"params","type":"tuple","internalType":"struct ModifyLiquidityParams","components":[{"name":"tickLower","type":"int24","internalType":"int24"},{"name":"tickUpper","type":"int24","internalType":"int24"},{"name":"liquidityDelta","type":"int256","internalType":"int256"},{"name":"salt","type":"bytes32","internalType":"bytes32"}]},{"name":"hookData","type":"bytes","internalType":"bytes"}],"outputs":[{"name":"","type":"bytes4","internalType":"bytes4"}],"stateMutability":"nonpayable"},{"type":"function","name":"testBeforeRemoveLiquidity","inputs":[{"name":"sender","type":"address","internalType":"address"},{"name":"key","type":"tuple","internalType":"struct PoolKey","components":[{"name":"currency0","type":"address","internalType":"Currency"},{"name":"currency1","type":"address","internalType":"Currency"},{"name":"fee","type":"uint24","internalType":"uint24"},{"name":"tickSpacing","type":"int24","internalType":"int24"},{"name":"hooks","type":"address","internalType":"contract IHooks"}]},{"name":"params","type":"tuple","internalType":"struct ModifyLiquidityParams","components":[{"name":"tickLower","type":"int24","internalType":"int24"},{"name":"tickUpper","type":"int24","internalType":"int24"},{"name":"liquidityDelta","type":"int256","internalType":"int256"},{"name":"salt","type":"bytes32","internalType":"bytes32"}]},{"name":"hookData","type":"bytes","internalType":"bytes"}],"outputs":[{"name":"","type":"bytes4","internalType":"bytes4"}],"stateMutability":"nonpayable"},{"type":"function","name":"testBeforeSwap","inputs":[{"name":"sender","type":"address","internalType":"address"},{"name":"key","type":"tuple","internalType":"struct PoolKey","components":[{"name":"currency0","type":"address","internalType":"Currency"},{"name":"currency1","type":"address","internalType":"Currency"},{"name":"fee","type":"uint24","internalType":"uint24"},{"name":"tickSpacing","type":"int24","internalType":"int24"},{"name":"hooks","type":"address","internalType":"contract IHooks"}]},{"name":"params","type":"tuple","internalType":"struct SwapParams","components":[{"name":"zeroForOne","type":"bool","internalType":"bool"},{"name":"amountSpecified","type":"int256","internalType":"int256"},{"name":"sqrtPriceLimitX96","type":"uint160","internalType":"uint160"}]},{"name":"hookData","type":"bytes","internalType":"bytes"}],"outputs":[{"name":"","type":"bytes4","internalType":"bytes4"},{"name":"","type":"int256","internalType":"BeforeSwapDelta"},{"name":"","type":"uint24","internalType":"uint24"}],"stateMutability":"nonpayable"},{"type":"function","name":"testClaimRewards","inputs":[{"name":"poolId","type":"bytes32","internalType":"PoolId"}],"outputs":[],"stateMutability":"nonpayable"},{"type":"function","name":"testCreateAuction","inputs":[{"name":"poolId","type":"bytes32","internalType":"PoolId"},{"name":"auctionId","type":"bytes32","internalType":"bytes32"},{"name":"startTime","type":"uint256","internalType":"uint256"},{"name":"duration","type":"uint256","internalType":"uint256"},{"name":"isActive","type":"bool","internalType":"bool"},{"name":"isComplete","type":"bool","internalType":"bool"}],"outputs":[],"stateMutability":"nonpayable"},{"type":"function","name":"testSetActiveAuction","inputs":[{"name":"poolId","type":"bytes32","internalType":"PoolId"},{"name":"auctionId","type":"bytes32","internalType":"bytes32"}],"outputs":[],"stateMutability":"nonpayable"},{"type":"function","name":"testSetLpLiquidity","inputs":[{"name":"poolId","type":"bytes32","internalType":"PoolId"},{"name":"lp","type":"address","internalType":"address"},{"name":"amount","type":"uint256","internalType":"uint256"}],"outputs":[],"stateMutability":"nonpayable"},{"type":"function","name":"testSetPoolRewards","inputs":[{"name":"poolId","type":"bytes32","internalType":"PoolId"},{"name":"amount","type":"uint256","internalType":"uint256"}],"outputs":[],"stateMutability":"nonpayable"},{"type":"function","name":"testSetTotalLiquidity","inputs":[{"name":"poolId","type":"bytes32","internalType":"PoolId"},{"name":"amount","type":"uint256","internalType":"uint256"}],"outputs":[],"stateMutability":"nonpayable"},{"type":"function","name":"testSubmitAuctionResult","inputs":[{"name":"auctionId","type":"bytes32","internalType":"bytes32"},{"name":"winner","type":"address","internalType":"address"},{"name":"winningBid","type":"uint256","internalType":"uint256"}],"outputs":[],"stateMutability":"nonpayable"},{"type":"function","name":"testSubmitAuctionResultWithTimingCheck","inputs":[{"name":"auctionId","type":"bytes32","internalType":"bytes32"},{"name":"winner","type":"address","internalType":"address"},{"name":"winningBid","type":"uint256","internalType":"uint256"}],"outputs":[],"stateMutability":"nonpayable"},{"type":"function","name":"totalLiquidity","inputs":[{"name":"","type":"bytes32","internalType":"PoolId"}],"outputs":[{"name":"","type":"uint256","internalType":"uint256"}],"stateMutability":"view"},{"type":"function","name":"transferOwnership","inputs":[{"name":"newOwner","type":"address","internalType":"address"}],"outputs":[],"stateMutability":"nonpayable"},{"type":"function","name":"unpause","inputs":[],"outputs":[],"stateMutability":"nonpayable"},{"type":"event","name":"AuctionEnded","inputs":[{"name":"auctionId","type":"bytes32","indexed":true,"internalType":"bytes32"},{"name":"poolId","type":"bytes32","indexed":true,"internalType":"PoolId"},{"name":"winner","type":"address","indexed":true,"internalType":"address"},{"name":"winningBid","type":"uint256","indexed":false,"internalType":"uint256"}],"anonymous":false},{"type":"event","name":"AuctionStarted","inputs":[{"name":"auctionId","type":"bytes32","indexed":true,"internalType":"bytes32"},{"name":"poolId","type":"bytes32","indexed":true,"internalType":"PoolId"},{"name":"startTime","type":"uint256","indexed":false,"internalType":"uint256"},{"name":"duration","type":"uint256","indexed":false,"internalType":"uint256"}],"anonymous":false},{"type":"event","name":"LVRThresholdUpdated","inputs":[{"name":"oldThreshold","type":"uint256","indexed":false,"internalType":"uint256"},{"name":"newThreshold","type":"uint256","indexed":false,"internalType":"uint256"}],"anonymous":false},{"type":"event","name":"MEVDistributed","inputs":[{"name":"poolId","type":"bytes32","indexed":true,"internalType":"PoolId"},{"name":"totalAmount","type":"uint256","indexed":false,"internalType":"uint256"},{"name":"lpAmount","type":"uint256","indexed":false,"internalType":"uint256"},{"name":"avsAmount","type":"uint256","indexed":false,"internalType":"uint256"},{"name":"protocolAmount","type":"uint256","indexed":false,"internalType":"uint256"}],"anonymous":false},{"type":"event","name":"OperatorAuthorized","inputs":[{"name":"operator","type":"address","indexed":true,"internalType":"address"},{"name":"authorized","type":"bool","indexed":false,"internalType":"bool"}],"anonymous":false},{"type":"event","name":"OwnershipTransferred","inputs":[{"name":"previousOwner","type":"address","indexed":true,"internalType":"address"},{"name":"newOwner","type":"address","indexed":true,"internalType":"address"}],"anonymous":false},{"type":"event","name":"Paused","inputs":[{"name":"account","type":"address","indexed":false,"internalType":"address"}],"anonymous":false},{"type":"event","name":"RewardsClaimed","inputs":[{"name":"poolId","type":"bytes32","indexed":true,"internalType":"PoolId"},{"name":"lp","type":"address","indexed":true,"internalType":"address"},{"name":"amount","type":"uint256","indexed":false,"internalType":"uint256"}],"anonymous":false},{"type":"event","name":"Unpaused","inputs":[{"name":"account","type":"address","indexed":false,"internalType":"address"}],"anonymous":false},{"type":"error","name":"EnforcedPause","inputs":[]},{"type":"error","name":"ExpectedPause","inputs":[]},{"type":"error","name":"HookNotImplemented","inputs":[]},{"type":"error","name":"NotPoolManager","inputs":[]},{"type":"error","name":"OwnableInvalidOwner","inputs":[{"name":"owner","type":"address","internalType":"address"}]},{"type":"error","name":"OwnableUnauthorizedAccount","inputs":[{"name":"account","type":"address","internalType":"address"}]},{"type":"error","name":"ReentrancyGuardReentrantCall","inputs":[]}],"bytecode":{"object":"0x60e03461018857601f6123ac38819003918201601f19168301916001600160401b0383118484101761018c5780849260a0946040528339810103126101885780516001600160a01b0381168103610188576020820151916001600160a01b03831683036101885760408101516001600160a01b03811681036101885760608201516001600160a01b038116929083900361018857608001519260805260015f553315610175576001546040519490336001600160a01b0382167f8be0079c531659141344cd1fd0a4f28419497f9722a3daafe3b4186f6b6457e05f80a36001600160a81b0319163360ff60a01b19161760015560a05260c052600980546001600160a01b031916919091179055600a5561220b90816101a182396080518181816104770152818161053d0152818161058f015281816109e801528181610cbe01528181611258015281816115a80152611663015260a051816111ee015260c0518181816114be01528181611e5301526121650152f35b631e4fbdf760e01b5f525f60045260245ffd5b5f80fd5b634e487b7160e01b5f52604160045260245ffdfe608080604052600436101561001c575b50361561001a575f80fd5b005b5f3560e01c908163181d989b1461185e575080631a8a61f3146118425780631e52301c146117275780631edbc5be146116a057806321d0ee701461164e578063259982e5146115935780632619b98a146114ed5780632630c12f146114a9578063274b5f461461143c5780632ae8c718146114215780633f4ba83a146113b35780633fb3517814611398578063446124561461135457806344a32bff14611335578063469048401461130d5780634b2328e8146112e65780635498304c146112bc57806354b7a8f714611292578063575e24b4146112425780635c975abb1461121d5780636b3aa72e146111d95780636c2bbe7e14610cab5780636fac2187146111b95780636fe7e6eb14611181578063715018a614611126578063726b0114146110e25780637790ddc614610fd35780637f98978c14610f39578063835c1a5214610f1a57806383b83aca14610e8e5780638456cb5914610e2d578063872edadc14610d295780638da5cb5b14610d015780639f063efc14610cab578063a99e408714610c25578063af4cbe8014610c08578063b26565c514610bec578063b47b2fb1146109d2578063b6a8b0fa14610464578063ba651620146108ad578063c0e8d38414610883578063c4e833ce1461071b578063c8dc5568146106ac578063ce69cd201461068b578063d40ea4d9146105e8578063d5eab68d146105be578063dc4c90d31461057a578063dc98354e1461050c578063dcd728b5146104c8578063e1b4af6914610464578063e1f1c4a714610448578063e4d7d6dc1461042c578063e74b981b1461039b578063f2fde38b146103155763f6afbb6314610285575f61000f565b34610311576102a760a0604061029a3661192f565b5050939194903690611d26565b20910135915f83136102c6575b60405163259982e560e01b8152602090f35b815f52600760205260405f209060018060a01b03165f5260205260405f206102ef838254611ba1565b90555f52600660205261030760405f20918254611ba1565b90555f80806102b4565b5f80fd5b346103115760203660031901126103115761032e611897565b610336611db6565b6001600160a01b0316801561038857600180546001600160a01b0319811683179091556001600160a01b03167f8be0079c531659141344cd1fd0a4f28419497f9722a3daafe3b4186f6b6457e05f80a3005b631e4fbdf760e01b5f525f60045260245ffd5b34610311576020366003190112610311576103b4611897565b6103bc611db6565b6001600160a01b031680156103e7576bffffffffffffffffffffffff60a01b60095416176009555f80f35b60405162461bcd60e51b815260206004820152601960248201527f456967656e4c56523a20696e76616c69642061646472657373000000000000006044820152606490fd5b34610311575f36600319011261031157602060405161012c8152f35b34610311575f3660031901126103115760206040516127108152f35b346103115761047236611afd565b5050507f00000000000000000000000000000000000000000000000000000000000000006001600160a01b0316330392506104b991505057630a85dc2960e01b5f5260045ffd5b63570c108560e11b5f5260045ffd5b34610311576040366003190112610311576104e16118ad565b6004355f52600760205260405f209060018060a01b03165f52602052602060405f2054604051908152f35b346103115760e036600319011261031157610525611897565b5060a03660231901126103115761053a611ad7565b507f00000000000000000000000000000000000000000000000000000000000000006001600160a01b031633036104b957630a85dc2960e01b5f5260045ffd5b34610311575f366003190112610311576040517f00000000000000000000000000000000000000000000000000000000000000006001600160a01b03168152602090f35b34610311576020366003190112610311576004355f52600b602052602060405f2054604051908152f35b3461031157602036600319011261031157600435610604611db6565b6103e881116106465760407ff579147a7a27652efe56a2f791890638acfb4625388b7c67846205588b4009fb91600a549080600a5582519182526020820152a1005b60405162461bcd60e51b815260206004820152601c60248201527f456967656e4c56523a207468726573686f6c6420746f6f2068696768000000006044820152606490fd5b34610311575f36600319011261031157602060405166038d7ea4c680008152f35b34610311576106de6106bd366119a9565b5050909291506106cb611ddd565b60a06106d73685611d26565b2092611dfb565b61070c575b6040518061070881905f604060608401936315d7892d60e21b81528260208201520152565b0390f35b61071590611f96565b806106e3565b34610311575f366003190112610311575f6101a060405161073b81611c3f565b8281528260208201528260408201528260608201528260808201528260a08201528260c08201528260e0820152826101008201528261012082015282610140820152826101608201528261018082015201526101c0602060405161079e81611c3f565b5f8152818101905f82526040810160018152606082015f8152608083016001815260a084015f815260c085016001815260e0860190600182526101008701925f84526101208801945f86526101408901965f88526101608a01985f8a526101a06101808c019b5f8d52019b5f8d526040519d8e915f835251151591015251151560408d015251151560608c015251151560808b015251151560a08a015251151560c089015251151560e08801525115156101008701525115156101208601525115156101408501525115156101608401525115156101808301525115156101a0820152f35b34610311576020366003190112610311576004355f526004602052602060405f2054604051908152f35b34610311576020366003190112610311576004355f8181526007602090815260408083203384529091529020546108e5811515611c7e565b815f52600660205260405f2054825f52600460205260405f205491821515806109c9575b61090f57005b6109219261091c91611cca565b611cdd565b908115801561092c57005b8290825f52600460205260405f20610945838254611cfb565b9055825f52600560205260405f2060018060a01b0333165f5260205260405f20610970838254611ba1565b90555f906109c0575b5f80809381933390f1156109b5576040519182527ffec539b3c42d74cd492c3ecf7966bf014b327beef98e935cdc3ec5e54a6901c760203393a3005b6040513d5f823e3d90fd5b506108fc610979565b50811515610909565b34610311576109e036611a73565b5092935050507f00000000000000000000000000000000000000000000000000000000000000006001600160a01b0316330390506104b957610a2560a0913690611d26565b20805f52600260205260405f205480151580610bd0575b610a57575b6040805163b47b2fb160e01b81525f6020820152f35b5f526003602052600460405f20015480158015610a85575b50505f5260026020525f60408120558080610a41565b612134820282810461213414821715610bbc576127109004916103e881028181046103e814831715610bbc57612710900461012c82029282840461012c141715610bbc5761271085930493835f52600460205260405f20610ae7828254611ba1565b9055835f52600460205260405f20610b00828254611ba1565b905581158015610b92575b5084158015610b5b575b5093608092917f9f28cf522c1dd60442bfdecae6dfd5abc02b942618ef4f1e2fb7f3efdc8b4f459495604051938452602084015260408301526060820152a28180610a6f565b5f8080939594965087819360018060a01b0360095416908390610b89575bf1156109b5579091849286610b15565b506108fc610b79565b829194505f90610bb3575b5f80809381933390f1156109b557849286610b0b565b506108fc610b9d565b634e487b7160e01b5f52601160045260245ffd5b50805f52600360205260ff600360405f20015460081c16610a3c565b34610311575f3660031901126103115760206040516121348152f35b34610311575f366003190112610311576020600a54604051908152f35b3461031157604036600319011261031157610c3e611897565b6024359081151590818303610311577fc176fcf7d48a6aca0d96d3b3201f7add47c4af04ce9a51f5f4eb15d528c46e2191610ca2602092610c7d611db6565b60018060a01b031694855f526008845260405f209060ff801983541691151516179055565b604051908152a2005b3461031157610cb936611a09565b5050507f00000000000000000000000000000000000000000000000000000000000000006001600160a01b0316330393506104b99250505057630a85dc2960e01b5f5260045ffd5b34610311575f366003190112610311576001546040516001600160a01b039091168152602090f35b346103115760c0366003190112610311576084358015158091036103115760a435908115158092036103115760059060405192610d6584611c0e565b6004358452610e2160208501926044358452604086019260643584526060870191825260808701908152610dfc60a08801915f835260c08901955f875260e08a01975f89526024355f52600360205260405f209a518b555160018b01555160028a0155610de560038a0194511515859060ff801983541691151516179055565b51835461ff00191690151560081b61ff0016178355565b51815462010000600160b01b03191660109190911b62010000600160b01b0316179055565b51600484015551910155005b34610311575f36600319011261031157610e45611db6565b610e4d611ddd565b6001805460ff60a01b1916600160a01b1790556040513381527f62e78cea01bee320cd4e420270b5ea74000d11b0c9f74754ebdbfc544b05a25890602090a1005b3461031157610ea360a0604061029a3661192f565b209101355f8112610ec1575b60405163021d0ee760e41b8152602090f35b600160ff1b8114610bbc575f0391815f52600760205260405f209060018060a01b03165f5260205260405f20610ef8838254611cfb565b90555f526006602052610f1060405f20918254611cfb565b9055808080610eaf565b3461031157610f2836611993565b905f52600460205260405f20555f80f35b3461031157610f47366118d7565b91805f5260036020527f32f65ad10bfa4a0ee9db45ba15bf04a4005908f729d666edbc5e421b4519206c602060405f2060038101610f8860ff825416611b55565b805462010000600160b01b031916601087901b62010000600160b01b031617815560048201879055805461ffff1916610100179055546040519586526001600160a01b0390941694a4005b3461031157602036600319011261031157600435610fef611d08565b5f81815260076020908152604080832033845290915290205461103a90611017811515611c7e565b825f52600660205261091c60405f205491845f52600460205260405f2054611cca565b908115801561104a575b60015f55005b8290825f52600560205260405f2060018060a01b0333165f5260205260405f20611075838254611ba1565b9055825f52600460205260405f2061108e838254611cfb565b90555f906110d9575b5f80809381933390f1156109b5576040519182527ffec539b3c42d74cd492c3ecf7966bf014b327beef98e935cdc3ec5e54a6901c760203393a3808080611044565b506108fc611097565b34610311576060366003190112610311576110fb6118ad565b6004355f9081526007602090815260408083206001600160a01b039094168352929052206044359055005b34610311575f3660031901126103115761113e611db6565b600180546001600160a01b031981169091555f906001600160a01b03167f8be0079c531659141344cd1fd0a4f28419497f9722a3daafe3b4186f6b6457e08280a3005b34610311576101003660031901126103115761119b611897565b5060a0366023190112610311576111b0611ad7565b5061053a611aed565b346103115760a0610a256111cc36611a73565b5050505090503690611d26565b34610311575f366003190112610311576040517f00000000000000000000000000000000000000000000000000000000000000006001600160a01b03168152602090f35b34610311575f36600319011261031157602060ff60015460a01c166040519015158152f35b3461031157611250366119a9565b5091925090507f00000000000000000000000000000000000000000000000000000000000000006001600160a01b031633036104b9576106de906106cb611ddd565b34610311576020366003190112610311576004355f526006602052602060405f2054604051908152f35b34610311576020366003190112610311576004355f526002602052602060405f2054604051908152f35b34610311576040366003190112610311576004355f52600260205260243560405f20555f80f35b34610311575f366003190112610311576009546040516001600160a01b039091168152602090f35b346103115761134336611993565b905f52600660205260405f20555f80f35b346103115760403660031901126103115761136d6118ad565b6004355f52600560205260405f209060018060a01b03165f52602052602060405f2054604051908152f35b34610311575f366003190112610311576020604051600c8152f35b34610311575f366003190112610311576113cb611db6565b60015460ff8160a01c16156114125760ff60a01b19166001556040513381527f5db9ee0a495bf2e6ff9c91a7834c1ba4fdd244a5e8aa4e537bd38aeae4b073aa90602090a1005b638dfc202b60e01b5f5260045ffd5b34610311575f36600319011261031157602060405160c88152f35b346103115761144a366118d7565b91805f5260036020527f32f65ad10bfa4a0ee9db45ba15bf04a4005908f729d666edbc5e421b4519206c602060405f206003810161148b60ff825416611b55565b610f886114a16001840154600285015490611ba1565b421015611bae565b34610311575f366003190112610311576040517f00000000000000000000000000000000000000000000000000000000000000006001600160a01b03168152602090f35b3461031157366003190160c081126103115760a013610311576004356001600160a01b0381168103610311576024356001600160a01b0381168103610311576044359062ffffff8216820361031157604080516001600160a01b0394851660208201908152949092169082015262ffffff909116606082015261157d81608081015b03601f198101835282611c5c565b5190205f52600b60205260a43560405f20555f80f35b34610311576115a13661192f565b50909190507f00000000000000000000000000000000000000000000000000000000000000006001600160a01b031633036104b95760a06115e56040923690611d26565b20910135915f83136116035760405163259982e560e01b8152602090f35b815f52600760205260405f209060018060a01b03165f5260205260405f2061162c838254611ba1565b90555f52600660205261164460405f20918254611ba1565b90558080806102b4565b346103115761165c3661192f565b50909190507f00000000000000000000000000000000000000000000000000000000000000006001600160a01b031633036104b95760a0610ea36040923690611d26565b34610311576020366003190112610311576004355f52600360205261010060405f20805490600181015490600281015460038201549060056004840154930154936040519586526020860152604085015260ff81161515606085015260ff8160081c161515608085015260018060a01b039060101c1660a084015260c083015260e0820152f35b3461031157611735366118d7565b91335f52600860205260ff60405f205416156117fd57805f52600360205261176660ff600360405f20015416611b55565b61176e611d08565b805f5260036020527f32f65ad10bfa4a0ee9db45ba15bf04a4005908f729d666edbc5e421b4519206c602060405f206117b36114a16001830154600284015490611ba1565b600381018054600483018890556101006001600160b01b031990911662010000600160b01b03601089901b1617179055546040519586526001600160a01b0390941694a460015f55005b60405162461bcd60e51b815260206004820152601f60248201527f456967656e4c56523a20756e617574686f72697a6564206f70657261746f72006044820152606490fd5b34610311575f3660031901126103115760206040516103e88152f35b34610311576020366003190112610311576020906001600160a01b03611882611897565b165f526008825260ff60405f20541615158152f35b600435906001600160a01b038216820361031157565b602435906001600160a01b038216820361031157565b35906001600160a01b038216820361031157565b606090600319011261031157600435906024356001600160a01b0381168103610311579060443590565b9181601f840112156103115782359167ffffffffffffffff8311610311576020838186019501011161031157565b90610160600319830112610311576004356001600160a01b0381168103610311579160a060231982011261031157602491608060c3198301126103115760c491610144359067ffffffffffffffff82116103115761198f91600401611901565b9091565b6040906003190112610311576004359060243590565b90610140600319830112610311576004356001600160a01b0381168103610311579160a060231982011261031157602491606060c3198301126103115760c491610124359067ffffffffffffffff82116103115761198f91600401611901565b906101a0600319830112610311576004356001600160a01b0381168103610311579160a060231982011261031157602491608060c3198301126103115760c49161014435916101643591610184359067ffffffffffffffff82116103115761198f91600401611901565b610160600319820112610311576004356001600160a01b0381168103610311579160a060231983011261031157602491606060c3198201126103115760c4916101243591610144359067ffffffffffffffff82116103115761198f91600401611901565b60c435906001600160a01b038216820361031157565b60e435908160020b820361031157565b610120600319820112610311576004356001600160a01b0381168103610311579160a06023198301126103115760249160c4359160e43591610104359067ffffffffffffffff82116103115761198f91600401611901565b15611b5c57565b60405162461bcd60e51b815260206004820152601c60248201527f456967656e4c56523a2061756374696f6e206e6f7420616374697665000000006044820152606490fd5b91908201809211610bbc57565b15611bb557565b60405162461bcd60e51b815260206004820152601b60248201527f456967656e4c56523a2061756374696f6e206e6f7420656e64656400000000006044820152606490fd5b356001600160a01b03811681036103115790565b610100810190811067ffffffffffffffff821117611c2b57604052565b634e487b7160e01b5f52604160045260245ffd5b6101c0810190811067ffffffffffffffff821117611c2b57604052565b90601f8019910116810190811067ffffffffffffffff821117611c2b57604052565b15611c8557565b60405162461bcd60e51b815260206004820152601f60248201527f456967656e4c56523a206e6f206c69717569646974792070726f7669646564006044820152606490fd5b81810292918115918404141715610bbc57565b8115611ce7570490565b634e487b7160e01b5f52601260045260245ffd5b91908203918211610bbc57565b60025f5414611d175760025f55565b633ee5aeb560e01b5f5260045ffd5b91908260a09103126103115760405160a0810181811067ffffffffffffffff821117611c2b576040528092611d5a816118c3565b8252611d68602082016118c3565b6020830152604081013562ffffff811681036103115760408301526060810135908160020b820361031157606083019190915260800135906001600160a01b03821682036103115760800152565b6001546001600160a01b03163303611dca57565b63118cdaa760e01b5f523360045260245ffd5b60ff60015460a01c16611dec57565b63d93c066560e01b5f5260045ffd5b611e4f906020611e0a826120a3565b91611e1f82611e1883611bfa565b9201611bfa565b604051635620c32d60e11b81526001600160a01b0392831660048201529116602482015292839081906044820190565b03817f00000000000000000000000000000000000000000000000000000000000000006001600160a01b03165afa9182156109b5575f92611f62575b5080158015611f5a575b611f535781811115611f1e57819003907e068db8bac710cb295e9e1b089a027525460aa64c2f837b4a2339c0ebedfa43821115611f0c5750505f195b600a5411159081611ee0575090565b602091500135670de0b6b3a76400008113908115611efc575090565b670de0b6b3a763ffff1913905090565b612710611f199202611cdd565b611ed1565b809103907e068db8bac710cb295e9e1b089a027525460aa64c2f837b4a2339c0ebedfa4382115f14611f0c5750505f19611ed1565b5050505f90565b508115611e95565b9091506020813d602011611f8e575b81611f7e60209383611c5c565b810103126103115751905f611e8b565b3d9150611f71565b805f52600260205260405f20546120a057604051602081019082825242604082015243606082015260608152611fcd608082611c5c565b519020604051611fdc81611c0e565b82815260056020820142815260408301600c81526120566060850160018152608086015f8152610dfc60a08801915f835260c08901955f875260e08a01975f89528b5f52600360205260405f209a518b555160018b01555160028a0155610de560038a0194511515859060ff801983541691151516179055565b51600484015551910155815f5260026020528060405f20557f8d50f1936786e8fcaf1a432bed2207696b5cc11646e7107f3e439f44546d848260408051428152600c6020820152a3565b50565b6120ac81611bfa565b9060208101916120bb83611bfa565b60408301359062ffffff8216820361031157604080516001600160a01b0394851660208201908152949092169082015262ffffff9091166060820152612104816080810161156f565b5190205f52600b60205260405f2054806121cf57506121619161213161212b602093611bfa565b91611bfa565b604051635620c32d60e11b81526001600160a01b0392831660048201529116602482015291829081906044820190565b03817f00000000000000000000000000000000000000000000000000000000000000006001600160a01b03165afa9081156109b5575f916121a0575090565b90506020813d6020116121c7575b816121bb60209383611c5c565b81010312610311575190565b3d91506121ae565b9150509056fea26469706673582212202dd972bf33aa83b80b3f136dff306683d2de6fdafd1d30ca1556f73f7baddde664736f6c634300081a0033","linkReferences":{}},"methodIdentifiers":{"AVS_REWARD_PERCENTAGE()":"1a8a61f3","BASIS_POINTS()":"e1f1c4a7","GAS_COMPENSATION_PERCENTAGE()":"2ae8c718","LP_REWARD_PERCENTAGE()":"b26565c5","MAX_AUCTION_DURATION()":"3fb35178","MIN_BID()":"ce69cd20","PROTOCOL_FEE_PERCENTAGE()":"e4d7d6dc","activeAuctions(bytes32)":"5498304c","afterAddLiquidity(address,(address,address,uint24,int24,address),(int24,int24,int256,bytes32),int256,int256,bytes)":"9f063efc","afterDonate(address,(address,address,uint24,int24,address),uint256,uint256,bytes)":"e1b4af69","afterInitialize(address,(address,address,uint24,int24,address),uint160,int24)":"6fe7e6eb","afterRemoveLiquidity(address,(address,address,uint24,int24,address),(int24,int24,int256,bytes32),int256,int256,bytes)":"6c2bbe7e","afterSwap(address,(address,address,uint24,int24,address),(bool,int256,uint160),int256,bytes)":"b47b2fb1","auctions(bytes32)":"1edbc5be","authorizedOperators(address)":"181d989b","avsDirectory()":"6b3aa72e","beforeAddLiquidity(address,(address,address,uint24,int24,address),(int24,int24,int256,bytes32),bytes)":"259982e5","beforeDonate(address,(address,address,uint24,int24,address),uint256,uint256,bytes)":"b6a8b0fa","beforeInitialize(address,(address,address,uint24,int24,address),uint160)":"dc98354e","beforeRemoveLiquidity(address,(address,address,uint24,int24,address),(int24,int24,int256,bytes32),bytes)":"21d0ee70","beforeSwap(address,(address,address,uint24,int24,address),(bool,int256,uint160),bytes)":"575e24b4","claimRewards(bytes32)":"7790ddc6","feeRecipient()":"46904840","getHookPermissions()":"c4e833ce","lpLiquidity(bytes32,address)":"dcd728b5","lpRewards(bytes32,address)":"44612456","lvrThreshold()":"af4cbe80","mockPoolPrices(bytes32)":"d5eab68d","owner()":"8da5cb5b","pause()":"8456cb59","paused()":"5c975abb","poolManager()":"dc4c90d3","poolRewards(bytes32)":"c0e8d384","priceOracle()":"2630c12f","renounceOwnership()":"715018a6","setFeeRecipient(address)":"e74b981b","setLVRThreshold(uint256)":"d40ea4d9","setMockPoolPrice((address,address,uint24,int24,address),uint256)":"2619b98a","setOperatorAuthorization(address,bool)":"a99e4087","submitAuctionResult(bytes32,address,uint256)":"1e52301c","testAfterSwap(address,(address,address,uint24,int24,address),(bool,int256,uint160),int256,bytes)":"6fac2187","testBeforeAddLiquidity(address,(address,address,uint24,int24,address),(int24,int24,int256,bytes32),bytes)":"f6afbb63","testBeforeRemoveLiquidity(address,(address,address,uint24,int24,address),(int24,int24,int256,bytes32),bytes)":"83b83aca","testBeforeSwap(address,(address,address,uint24,int24,address),(bool,int256,uint160),bytes)":"c8dc5568","testClaimRewards(bytes32)":"ba651620","testCreateAuction(bytes32,bytes32,uint256,uint256,bool,bool)":"872edadc","testSetActiveAuction(bytes32,bytes32)":"4b2328e8","testSetLpLiquidity(bytes32,address,uint256)":"726b0114","testSetPoolRewards(bytes32,uint256)":"835c1a52","testSetTotalLiquidity(bytes32,uint256)":"44a32bff","testSubmitAuctionResult(bytes32,address,uint256)":"7f98978c","testSubmitAuctionResultWithTimingCheck(bytes32,address,uint256)":"274b5f46","totalLiquidity(bytes32)":"54b7a8f7","transferOwnership(address)":"f2fde38b","unpause()":"3f4ba83a"},"id":76}